:020000040800F2
:10000000504D00242D04000869D3000839A40008CD
:1000100015D00008AD2F00080DF00008000000000A
:1000200000000000000000000000000073DC000879
:10003000693D000800000000FDD4000809DF000849
:100040004704000847040008470400084704000864
:100050004704000847040008470400084704000854
:1000600047040008470400084704000869320008F4
:1000700075320008813200088D320008993200087C
:10008000A5320008B132000847040008853E000888
:10009000913E000847040008470400084704000890
:1000A0004704000847040008470400084704000804
:1000B00047040008470400084704000847040008F4
:1000C00047040008470400084704000847040008E4
:1000D00047040008B9EF0008D1EF0008E9EF000875
:1000E0004704000847040008000000004704000817
:1000F00091E2000885E2000847040008BD320008CC
:1001000047040008470400084704000847040008A3
:10011000ADE40008C5E400084704000847040008EF
:10012000C9320008D5320008E1320008ED3200087B
:10013000F932000847040008470400084704000893
:1001400000000000000000000000000000000000AF
:1001500005330008113300084704000801F00008C7
:100160004704000847040008470400084704000843
:100170004704000847040008470400084704000833
:100180004704000847040008DDE40008F5E400081F
:100190004704000847040008470400084704000813
:1001A0004704000847040008470400084704000803
:1001B00047040008470400084704000847040008F3
:1001C00047040008470400084704000847040008E3
:1001D00047040008470400084704000847040008D3
:1001E00047040008470400084704000847040008C3
:1001F00047040008470400084704000847040008B3
:1002000047040008470400084704000847040008A2
:100210004704000847040008470400084704000892
:1002200047040008470400084704000800000000D5
:1002300047040008470400080000000047040008C5
:100240004704000847040008470400084704000862
:100250004704000847040008470400084704000852
:100260004704000847040008470400084704000842
:100270004704000847040008470400080000000085
:100280004704000847040008470400080000000075
:10029000000000004704000800F002F800F0B6F883
:1002A0000AA090E8000C82448344AAF10107DA45D1
:1002B00001D100F0ABF8AFF2090EBAE80F0013F06D
:1002C000010F18BFFB1A43F001031847380601005D
:1002D000580601000A444FF0000C10F8013B13F0DF
:1002E000070408BF10F8014B1D1108BF10F8015B8F
:1002F000641E05D010F8016B641E01F8016BF9D182
:1003000013F0080F1EBF10F8014BAD1C0C1B09D1D8
:100310006D1E58BF01F801CBFAD505E014F8016B4A
:1003200001F8016B6D1EF9D59142D6D370470000DC
:100330000023002400250026103A28BF78C1FBD8EE
:10034000520728BF30C148BF0B6070476E2900F0CC
:100350004983702900F09384662910F01081652983
:1003600010F00D81672910F00A81612910F00981D0
:1003700003681B0A28BF41F08001692900F0F6825A
:10038000642900F0F382752900F0F0826F2900F0F3
:100390002084782900F05F84E92900F0BB83E429F8
:1003A00000F0B883F52900F0B583EF2900F01D8433
:1003B000F82900F05E840368DB0928BF41F0800162
:1003C000632901F08381732901F08881E32901F019
:1003D0009381F32901F09881002070471FB510F038
:1003E000C9F89DE8030000F0F7F901F0E7F904000F
:1003F0000020002110F0A8F8401C606000200021BF
:1004000010F08CF8E0601FBD10B510BD01F0A8F928
:100410001146FFF7E3FF0FF0EFFF01F085FA03B499
:10042000FFF7F2FF03BC01F0B5FA0000094880476E
:1004300009480047FEE7FEE7FEE7FEE7FEE7FEE7C6
:10044000FEE7FEE7FEE7FEE704480549054A064BDE
:1004500070470000E9DF000899020008502D0024D1
:10046000504D0024503D0024503D002470B50646F8
:1004700000F096F9056806F10B0020F00704B4427D
:100480009CBF002070BD2B466A68BAB11068A042BC
:1004900010D304F1080188423CBF5068586007D36C
:1004A0005168101941601168091B0160586014609F
:1004B000101D70BD13465268002AE7D12146284618
:1004C00000F076F90028DED170BD70B50D46064605
:1004D000041F00F065F9D0F800C0C5B1E6B105F120
:1004E0000B0020F00703AB423CBF002070BD20682A
:1004F000984238BFDCF8042013D3C11A08292FD33F
:10050000E01840F8041B236000F09CF928E0304616
:1005100000F098F9002070BD2846BDE87040FFF754
:10052000A5BF002A18BFA2423CBF94465268F8D328
:100530000119914216D111680844984212D3C11A88
:1005400008293CBF2060506808D35168E01841601A
:10055000216812681144C91A01602360CCF80400B4
:10056000201D70BD181FFFF781FF050007D021680F
:100570000A1F211D00F096F8201D00F063F928469F
:1005800070BD53EA020C00F069802DE9F04B4FF08A
:100590000006002B1FBFB3FA83F503FA05F424FA13
:1005A00005F65E4012BF1643B2FA82F502FA05F470
:1005B000C5F120051EBF22FA05FC44EA0C042035D3
:1005C00056EA044C4FEA144418BF641C4FF000086C
:1005D0004FF00009904271EB030C39D3002919BF89
:1005E000B1FA81F701FA07F6B0FA80F700FA07F6D8
:1005F000C7F120071EBF20FA07FC46EA0C06203789
:10060000B6FBF4FCA7EB0507103F07F01F0BCBF17F
:1006100020060CFA0BFB2CFA06F644BFB346002664
:10062000202FA4BF5E464FF0000B5BEA060C08BF0C
:100630004FF0010B19EB0B09ABFB027C48EB0608F2
:10064000C01B06FB02CC0BFB03CC71EB0C01C1E71A
:100650000B46024641464846BDE8F08B13B54FF0C5
:1006600000004FF00001AFF30080BDE81C40704770
:100670007CB51D4616460C00009001D02044401E5B
:10068000074B7B442A4669460190304600F0C3F987
:1006900005461CB10020694600F0D0F928467CBD13
:1006A000C103000010B5203AC0F00B80B1E818502B
:1006B000203AA0E81850B1E81850A0E81850BFF44C
:1006C000F5AF5FEA027C24BFB1E81850A0E81850EB
:1006D00044BF18C918C0BDE810405FEA827C24BF3F
:1006E00051F8043B40F8043B08BF7047D20728BFCD
:1006F00031F8023B48BF11F8012B28BF20F8023B1C
:1007000048BF00F8012B70474FF000020429C0F0E9
:10071000128010F0030C00F01B80CCF1040CBCF133
:10072000020F18BF00F8012BA8BF20F8022BA1EB85
:100730000C0100F00DB85FEAC17C24BF00F8012B6A
:1007400000F8012B48BF00F8012B70474FF0000262
:1007500000B5134694469646203922BFA0E80C50B7
:10076000A0E80C50B1F12001BFF4F7AF090728BF92
:10077000A0E80C5048BF0CC05DF804EB890028BF0E
:1007800040F8042B08BF704748BF20F8022B11F037
:10079000804F18BF00F8012B7047704770477047B3
:1007A00000487047F82C0024704770477047704726
:1007B00038B504460A4600206946AFF30080002899
:1007C00008BF38BD02460099204600F02FFB0120EB
:1007D00038BD012000F0BCBFF8B5AFF3008005467E
:1007E00000200C46102000BF0646A819A0420DD9D3
:1007F000324669460020AFF30080070008BF00F0D2
:10080000A7FF0098A04218BF0546C419FFF7C8FF0C
:1008100005600746F01D20F007004619284600F045
:100820000AF8B44208BFF8BDA21B31463868BDE8DB
:10083000F84000F0FBBA00210160C0E901107047E8
:100840001020704770B50446051FFFF7A9FF006828
:10085000002C14BF446870BD002C18BFAC423CBFD4
:1008600020466468F8D301680A18AA4218BF456098
:1008700003D12A6805461144016028684119A14244
:100880001CBF6C6070BD61686960216808442860A5
:1008900070BD10B500F0C6FA006810BD10B5044672
:1008A00000F0C0FA046010BD70B5044685690068A8
:1008B000C10601D5302600E02026C00707D070BD54
:1008C000D4E9012130469047206A401C20626D1E09
:1008D000F6D570BD70B5044685690078C00707D1AC
:1008E00070BDD4E9012120209047206A401C20627D
:1008F0006D1EF6D570BD09684A0501D540B2704736
:10090000C905FCD500B2704709684A0501D5C0B2D7
:100910007047C905FCD580B2704770B50C460546D6
:10092000012A05D02878800600D5EA69002302E074
:10093000012305E05B1C934202D2E05C0028F9D160
:10094000A869E618C01AA861286A184428622846CF
:10095000FFF7AAFF04E0D5E9012114F8010B904745
:10096000B442F8D32846FFF7B5FF70BD2DE9F0413A
:100970000646002410687529314616A510D0FFF7E9
:10098000BAFF002802DA404213A507E031688A075F
:1009900001D512A502E0490704D511A5012401E003
:1009A000FFF7B2FF00210A2206F1240709E0B0FB9D
:1009B000F2FCB0FBF2F302FB1C0030307854184616
:1009C000491C0028F3D123462A463046BDE8F041B1
:1009D00000F08BBA000000002D0000002B0000008A
:1009E0002000000011680268006A530501D50870F4
:1009F0000AE0D30501D5088006E0130603D5C21727
:100A0000C1E9000200E008600120704701694A1C4A
:100A100002610878704700B58FB0CDE9013100213F
:100A2000059105497944CDE903101146684600F067
:100A300031F90FB000BD0000E5FFFFFF0A6802F8C2
:100A4000010B0A607047D1E900239A4202D2531C7D
:100A50000B601070704700002DE9FF5F15468A4655
:100A60000446DFF8AC80F8440027D8E900103E4681
:100A7000CDE9001010E03AF816106A4602A800F01E
:100A800047FE411C07D02178890603D5E269391851
:100A900091420DD80744761C2078800602D5E06983
:100AA000B84205DDAE42E6DB3AF816000028E2D196
:100AB000A069C01BA0612046FFF7F6FED8E9001030
:100AC000CDE90010002017E03AF818106A4602A895
:100AD00000F01EFEB0F1FF3F81460BD000250DF166
:100AE000080B05E0D4E901211BF8050090476D1CB7
:100AF0004D45F7D308F10100B0428046E4DB206A9F
:100B0000384420622046FFF7E5FEBDE8FF9F000065
:100B1000D6FC00002DE9F0418046D21D22F00702EC
:100B20000025D2E90002F52915A614D0011E72F1A4
:100B3000000106DA0023D0EB030063EB020211A6EA
:100B400008E0D8F800108B0701D50FA602E049078E
:100B500001D50EA601251146002408F1240704E062
:100B600000F07EF930323A55641C50EA0102F7D1A8
:100B70002B46324621464046BDE8F04100F0B5B96B
:100B8000000000002D0000002B00000020000000ED
:100B900030B4002100F1240408E002F00705D20877
:100BA000303542EA4372DB086554491C52EA0305BA
:100BB000F3D10468002310A2250707D5A40600D4AA
:100BC00021B1C46901230DA2641EC46130BC00F0D0
:100BD0008CB910B5044621461068FFF795FE024611
:100BE0002046BDE810400023D2E7D21D22F00701C5
:100BF000D1E90023CCE70000000000003000000035
:100C0000F0B40D460188090502D5214C7C4402E070
:100C10001F4C7C440E34002100F1240608E002F051
:100C20000F071209E75D42EA03721B097754491C5A
:100C300052EA0307F3D102780023120704D5702D7E
:100C400006D009B1022311342246F0BC00F04DB9A0
:100C500001231034F8E770B504460D4621461068AC
:100C6000FFF752FE024629462046BDE870400023A9
:100C7000C6E7D21D22F00703D3E90023C0E70368CB
:100C8000126843F0200303600823C3610023B7E721
:100C900038FB00002DE9F05F894604464FF0000A5A
:100CA000DFF874B1FB44C0F820A02046E168884713
:100CB000002874D0252806D0D4E901219047206A65
:100CC000401C2062F1E700265F462046E168884725
:100CD0002028054607DB312D05D2781910F8200CA5
:100CE00008B10643F1E7B00701D526F00406C4F8C1
:100CF0001CA00027C4F818A02A2D09D028460FF000
:100D0000AFF938B304EB8708303DC8F8185019E044
:100D100059F8041B204604EB87029161E16888477B
:100D2000012F054618D1E069002820DA26F02006B8
:100D30001DE0D8F8180000EB800005EB40003038CB
:100D4000C8F818002046E168884705460FF088F982
:100D50000028EED1012F0AD02E2D08D12046E168BF
:100D600088477F1C0546022F46F02006C4DBA06999
:100D7000002803DA404246F00106A061F00701D0E6
:100D800026F010066C2D0BD0682D09D04C2D39D0D3
:100D90006A2D35D0742D35D07A2D33D016E038E059
:100DA000E1682F4620468847B842054609D16C2F96
:100DB00026D04FF48060E168064320468847054608
:100DC00004E06C2F1AD04FF4807006430DB3A5F1E8
:100DD0004100192802D8203546F400664A462946C3
:100DE000204626604E46FFF7B1FA80B101280BD0AD
:100DF000F61D26F0070000F1080956E74020E4E759
:100E00008020D8E70020D6E706F104094DE7284600
:100E100052E7206ABDE8F09FC8FA0000004870471A
:100E2000F02C002400487047F02C00240346406852
:100E30008C46002818BF88423CBF03464068F8D360
:100E400018681844884207D00CF1030020F007000E
:100E5000001D411A521A0146081D0A60FFF7F2BC34
:100E600030B5B0F10A024FEA900E71F100034EEA7C
:100E7000817EB0EB0E0061EB91014FEA101E4EEA4D
:100E8000017E10EB0E0041EB11114FEA102E4EEADD
:100E9000016E10EB0E0041EB11214FEA104E4EEAAD
:100EA000014E10EB0E0041EB1141401841F10001E1
:100EB0004FEAD00040EA41704FEAD10110EB8005C3
:100EC0004FEA810444EA907444EB01046D1944EB49
:100ED0000404521BA3414FF0000348BF0A3200D55F
:100EE00030BD401C41F1000130BD2DE9F0470D46F9
:100EF00099469246044600F124080168880604D504
:100F0000E06921F01001216000E00120A84201DD2C
:100F1000471B00E00027A1697A1902EB0900081AB3
:100F2000A0612078C00602D42046FFF7BDFC002651
:100F300008E0D4E901211AF806009047206A401C15
:100F4000761C20624E45F4DB2078C0060AD5204688
:100F5000FFF7AAFC06E0D4E9012130209047206A7F
:100F6000401C2062381EA7F10107F4DC07E0D4E939
:100F7000012118F805009047206A401C2062281EB5
:100F8000A5F10105F3DC2046FFF7A4FC207800065C
:100F900002D50220BDE8F0870120FBE770472DE96C
:100FA000FF4F0C461E464FF0FF378BB0D2E90001D1
:100FB000DDF860800A908A46C1F30A5505B93D46BE
:100FC000002108464FF00000BAF1000F00F4400085
:100FD00005DA00EB80004FF4400101EA50004FEACF
:100FE0009059B9F1010F00DDB9460A9850EA4A005C
:100FF0000ED044F61050A5F2FF3545432F14B8F13A
:10100000000F1ED07542291E1EDDC9F100021CE032
:10101000B8F1010F4FF0000001D0302103E0F2439E
:1010200005E02154401CB042FBDB30460022002189
:1010300021540B99C1F80880C1E900200FB0BDE828
:10104000F08FBD1B6D1CDEE74A4600DA694206A838
:1010500000F0F8FB06AB93E8070003AB83E807005A
:1010600050460A9900F0F1FC8DE80700A0F5005009
:101070001F3800900398002D0ADD42F21F014A46F6
:101080000844002303A90390684600F05AFF09E0D2
:10109000A0F500504A461F38002303A90390684674
:1010A00000F064FF8DE807000004000C03D04FF04F
:1010B000FF30410800E01046B8F1000F03D00022D5
:1010C000009215461EE0751E05D4FFF7C9FE3032AA
:1010D00062556D1EF9D5B3460122084302D00022A5
:1010E0007F1C04E02078302801D100227F1E002AD6
:1010F000099784D01DE0112D07DAFFF7B1FE3032D9
:1011000062556D1C50EA0102F5D1084302D00098E7
:10111000C8B10EE00021681E05E0235C625C6354E8
:101120002254401E491C8142F7DBAB46A81B401EDF
:101130000990002004F80B000B98099AC0F8088069
:10114000C0E9002B7AE711264FF0000857E72DE998
:10115000F04F88460446D21D22F0070191B0D1E934
:101160000001CDE90A010DF067FF02460B98C00FA0
:1011700001D02D2007E02068810701D52B2002E057
:10118000202101EAC000032A099001D0072A05DBCB
:1011900003464146204600F015FB0BE1207880060F
:1011A00001D5E06900E00620B8F1650F814606D060
:1011B000B8F1660F18D0B8F1670F70D131E0002098
:1011C000B9F1110F009001DB112301E009F10103D6
:1011D0000AAA01A90CA8FFF7E2FEDDE90C700026BF
:1011E00009F10105834647E001204B4600904FF08E
:1011F00000470AAA01A90CA8FFF7D1FEDDE90DB04E
:101200000C995D46002610B909F101000D18B9EBE3
:10121000050003D4C0F1FF3609F10105A5EB090073
:101220002BE0B9F1010F01DA4FF001090020B9F10B
:10123000110F0090484601DD112300E003460AAA81
:1012400001A90CA8FFF7ABFEDDE90C704D460026A6
:101250008346207800070AD4AB4500DA5D4601A832
:10126000012D04DD411911F8011C302907D04F452B
:1012700002DA17F1040F04DA012082460FE06D1E36
:10128000EEE7002F02DCED1B3E4403E0781CA84291
:1012900000DD7D1CB81B00F1010A4FF000472078EB
:1012A000000703D4AA4501DB4FF0FF3A0021B7F154
:1012B000004F0DF143088DF8431024D002202B235A
:1012C000002F01DA7F422D230A21021EA0F1010026
:1012D00000DC5FB197FBF1FC97FBF1F201FB1C7C9A
:1012E00017460CF1300C08F801CDEEE7A8F101002B
:1012F00003702188090501D5452100E06521A0F191
:10130000010800F8011C09980FA9A1EB0807FF1DAF
:1013100000B10120411901EBEA70A1693844081AB3
:10132000401EA0612078C00602D42046FFF7BCFA18
:10133000099828B1D4E901219047206A401C206215
:101340002078C00622D52046FFF7AEFA1EE0002E18
:1013500004DBB34502DD01A8805D00E03020D4E964
:1013600001219047206A401C2062761CAAF10100EE
:101370005FEA000A0AD100F021FAC0680168405C07
:10138000D4E901219047206A401C2062281EA5F163
:101390000105DCDC07E0D4E9012118F8010B9047D6
:1013A000206A401C2062381EA7F10107F3DC2046AA
:1013B000FFF790FA032011B041E600002DE9F04F4D
:1013C00004460D46D21D22F0070089B0D0E90097EF
:1013D000484639460DF030FE0246F80F01D02D2365
:1013E00007E02068810701D52B2302E0202101EAD4
:1013F000C0038DF820300BB1012000E00020032A4B
:10140000824601D0072A04DB2946204600F0DAF99B
:101410003FE12078800601D40D2500E0E569C7F39F
:101420000A560D2D49DA00214FEA175B08464FF0A6
:101430000000002F00F4400007DA00EB80004FF4BA
:10144000400100EBD07001EA60008115012901DD47
:101450004FF0FF3100224FEA850CBCF1180F06D384
:101460001346ACF118004FF08052C24003E04FF435
:10147000801323FA0CF30CF10C0CBCF1200F04D3F5
:10148000ACF1200C09FA0CF001E007FA0CF000298D
:101490004FF0004801DD18B90FE00ED140450CD3E4
:1014A00019EB02095F4121B9404502D19F4329EA66
:1014B0000209BBEB175F00D0761C2088000502D51F
:1014C0007B48784402E07A487844193808AA3023E7
:1014D00002F80A30037C0AF10101002E0AF1020A27
:1014E00053546A4602DC4FF0300101E04FF0310105
:1014F0004FF001088DF8001002D0A6F2FF3603E08D
:1015000059EA470100D06B4E002D02DC2178090713
:1015100004D54FF002082E218DF80110C446002199
:101520000BE0C7F303433F01C35C491C6D1E02F887
:101530000830052908F1010801DA002DF1DC00214D
:101540000CE000EB1973491C1B786D1E082902F88A
:1015500008304FEA091908F1010801DA002DF0DC22
:1015600021688B0602D516E0A8F10108E04505DDEB
:1015700002EB080313F8013C302BF5D0B8F1000F53
:1015800009DD02EB080313F8013C2E2B03D10907F8
:1015900001D4A8F10108002D05DD3E2102F8081054
:1015A0006D1E08F10108407C002E02F8080008F1C9
:1015B000010804DA2D20764202F8080002E02B2010
:1015C00002F808000A214FF47A70864208F10108F7
:1015D0000BDB96FBF0F3303302F8083096FBF0F3A8
:1015E00008F1010800FB136601E0642E0CDB6420A7
:1015F00096FBF0F3303302F8083096FBF0F308F175
:10160000010800FB136601E00A2E06DB96FBF1F0F1
:10161000303002F8080008F1010896FBF1F001FBF8
:101620001060303002F80800A16908F1010808EBE9
:10163000050202EB0A00081AA0612078C00602D455
:101640002046FFF731F9216A08AE01EB0A0020625B
:1016500004E0D4E9012116F8010B9047BAF1010A20
:10166000F7D22078C00602D52046FFF71DF96E4656
:1016700009E016F8010B3E280FD0D4E9012190476C
:10168000206A401C2062B8F10108F2D22046FFF720
:1016900021F909B00320BDE8F08F206A28442062B8
:1016A00003E0D4E90121302090476D1EEBD3F8E729
:1016B00095F3000002FCFFFF10B5436913B1AFF3CF
:1016C000008001E0FFF729F9012010BD127800F138
:1016D00024010A7000224A700122EDE711684FF0E0
:1016E000FF32E9E710B5436913B1AFF3008001E0C1
:1016F000FFF7B2F9012010BD128800F124018284A5
:101700000022C2840122EDE711684FF0FF32E9E7C1
:1017100070B516460C46054600F048F8036893F885
:101720000101012806D0FF2C0FD8185D68B10120F7
:101730002C7070BDD3F807013246214603F207131F
:1017400003442846BDE8704018474FF0FF3070BD95
:1017500010B500F0F7F8BDE8104000F0EEB87047A3
:101760007546FFF75BFBAE4605006946534620F021
:101770000700854618B020B5FEF766FEBDE820409C
:101780004FF000064FF000074FF000084FF0000B3D
:1017900021F00701AC46ACE8C009ACE8C009ACE8F0
:1017A000C009ACE8C0098D467047000010B500F0D4
:1017B00005F8001D10BD00BF91ED00000048704706
:1017C000102D00242DE9F0411F4604460326016830
:1017D000072A01F4006004DB08B116A505E016A590
:1017E00003E008B115A500E015A521F01000206068
:1017F000A069C01EA0610FB1401EA0612046FFF786
:1018000053F84FB1D4E9012138469047206A401C73
:101810002062C01C206206E0206AFAE7D4E90121B8
:1018200015F8010B9047761EF8D22046FFF752F8C4
:10183000BDE8F0814E414E006E616E00494E46009B
:10184000696E66002DE9F047814616468AB0354834
:1018500078440DC88DE80D0032487844801C03ACF4
:101860000DC884E80D0041F69B300844372190FBF9
:10187000F1F290FBF1F5A5F1800501FB12041B3C90
:1018800002D56442012000E00020DFF898A08046E5
:101890000027FA44AAF1BE0A0EE0E0070AD0324659
:1018A000684607EB470101230AEB810100F05EFB6C
:1018B0008DE8070064107F1C002CEED1194F7F4487
:1018C000AE3F19E0E80715D007EB04100DF1180A38
:1018D00090E80E008AE80E00C068F04201D1981925
:1018E00008903246012306A903A800F03FFB03AB92
:1018F00083E807006D10641C002DE3D14FF0010355
:1019000032466946B8F1000F03A802D000F019FB77
:1019100001E000F02BFBC9E90001C9F808200AB07A
:10192000BDE8F08798F0000010B50446AFF30080E2
:101930002046BDE81040FEF772BD002801D000F03F
:1019400029B8704710B5012805D0002103A000F088
:1019500027F8012010BD09A1F8E7000053494752BC
:10196000544D454D3A204F7574206F66206865616F
:1019700070206D656D6F7279000000003A20486537
:101980006170206D656D6F727920636F7272757012
:101990007465640001491820ABBEFEE72600020012
:1019A00070B505460C460A2000E06D1C00F046F8B4
:1019B00035B128780028F8D102E0641C00F03EF828
:1019C00014B120780028F8D1BDE870400A2000F05A
:1019D00035B800004FF0013C50F8042B51F8043B9F
:1019E0009A4215D1A2EB0C03934313EACC130BD10B
:1019F00050F8042B51F8043B9A4209D1A2EB0C0396
:101A0000934313EACC13E7D04FF00000704700BFB8
:101A1000D01A01BAB1FA81F101F0180122FA01F0ED
:101A2000CB40C1F12001DBB2C0B2C01A2CFA01F3E5
:101A3000D11A914311EAC311E6D1704708B569463E
:101A40008DF800000320ABBE08BD5FEA400C08BF64
:101A500091F0000F4FEA8C234FEAC12243EA515123
:101A60004FEA1C5018BF00F5F0404FEA300018BF95
:101A700041F000415FEA6C5C00F02980BCF1FF3F5F
:101A800008BF40F080407047130C06BF12044FF0AF
:101A9000100C4FF0000C130E04BF12020CF1080CD6
:101AA000130F04BF12010CF1040C930F04BF92003A
:101AB0000CF1020CD30F04BF52000CF1010C1146C3
:101AC0004FF00002A0F11F00A0EB0C00704711F0D6
:101AD000004F08BF704731F000413FF4D5AF0B0C09
:101AE00006BF09044FF0100C4FF0000C0B0E04BFA2
:101AF00009020CF1080C0B0F04BF09010CF1040CD6
:101B00008B0F04BF89000CF1020CCB0F04BF4900FE
:101B10000CF1010CCCF12003A0EB0C0022FA03F332
:101B200002FA0CF241EA030100F10100704720F0D3
:101B30007F4C80EA030023F07F47ACEB070303F5FB
:101B40007C5300F0004003F1FF032DE980494FEA88
:101B5000154B09B44FEA144325EA0B4E24EA034817
:101B60000FF2042606EB132749083E785FEA32029B
:101B700003FB0667C7F5000707FB06F64FEA543775
:101B80004FEAD64606F1020607FB066CCCF1005C74
:101B90004FEA1C472CEA074C07FB06F40CFB06F542
:101BA00004EB15464FEA961634BF00204FF0004074
:101BB0004FEAD13706FB07FC4FEA1C4C0CFB0BF736
:101BC000D21B03FB0CF761EB07010CFB0EF7B0EB2C
:101BD000074072EB17420CFB08F734BFA2EB074239
:101BE000B2EB074261EB17414FEA0C444FEA910711
:101BF00006FB07FC4FEA1C4C0CFB0BF7B0EBC74095
:101C000072EB573203FB0CF734BFA2EBC742B2EBC7
:101C1000C74261EB57310CFB0EF7B0EBC70072EB1C
:101C200057720CFB08F734BFA2EBC702B2EBC70236
:101C300061EB5771039F4FEA816141EA921104EB16
:101C4000CC044FEAD1374FEA826206FB07FC42EA36
:101C500090124FEA80604FEA1C4C0CFB0BF7D21B32
:101C600003FB0CF761EB07010CFB0EF7B0EB074031
:101C700072EB17420CFB08F734BFA2EB0742B2EB42
:101C8000074261EB17414FEA8C554FEA910704EB8D
:101C90009C2406FB07FC4FEA1C4C0CFB0BF7B0EB3B
:101CA000C74072EB573203FB0CF734BFA2EBC742BD
:101CB000B2EBC74261EB57310CFB0EF7B0EBC7003C
:101CC00072EB57720CFB08F734BFA2EBC702B2EB02
:101CD000C70261EB577115EB4C254FEA816141EA70
:101CE00092114FEA82624FEAD13742EA901206FB24
:101CF00007FC44F100044FEA80604FEA1C4C0CFBE7
:101D00000BF7D21B03FB0CF761EB07010CFB0EF783
:101D1000B0EB074072EB17420CFB08F734BFA2EBA5
:101D20000742B2EB074261EB174115EB1C154FEA76
:101D3000813141EA92414FEA823242EA90424FEACF
:101D400080304FEA0C7644F1000448EA03434EEA3F
:101D50000B484FF0000EB2EB080C71EB030724BFE9
:101D6000624639464EEB0E0E4FF0000B0018524102
:101D700049414BEB0B0BB2EB080C71EB03077BF10A
:101D8000000B24BF624639464EEB0E0E4FF0000B9F
:101D90000018524149414BEB0B0BB2EB080C71EBB5
:101DA00003077BF1000B24BF624639464EEB0E0E53
:101DB00051EA020718BF46F0010616EB0E7655F100
:101DC000000254F1000103D5BDE88901BDE8008897
:101DD000BDE88901BDE80048B619524141EB010157
:101DE000A3F10103704780807F7E7D7C7B7A7978C8
:101DF000777676757473727171706F6E6E6D6C6CD0
:101E00006B6A6A6968686766666564646363626171
:101E10006160605F5F5E5E5D5D5C5C5B5B5A5A59F2
:101E2000595858575756565555555454535352525E
:101E30005251515050504F4F4F4E4E4D4D4D4C4CB6
:101E40004C4B4B4B4A4A4A494949484848474747FF
:101E5000474646464545454444444443434343423C
:101E6000424242414141002B9C4630D477002BD066
:101E70001CB54FEA370703B44FF010004FF01001C4
:101E8000BAF1000F06D0BCF1000FDCBF40F0080033
:101E900040F008014FF000000FBCBDE810400BF10E
:101EA000010BBBF1010F08BF5FEA170722BF12F158
:101EB000010211F101014FF0004143F1000300F074
:101EC000004043EA00007047F9D35708D0E746EADC
:101ED000064613F1400F4FEA16461FDD13F1200F9F
:101EE000DFBF16430A46002120335B42BED0C3F158
:101EF000200746EA064602FA07F74FEA164646EA80
:101F00000706C3F1200722FA03F201FA07F721FAC4
:101F100003F14FF0000342EA0702A7E746EA020690
:101F200046EA06464FEA164646EA0106BCBF46EABE
:101F30000646360C4FF000034FF000024FF0000150
:101F400094E72DE9804C9A46934670B491E83800A6
:101F500007C831EA400C48BF34EA430C03D5FFF709
:101F6000E6FDFFF780FFF0BCBDE8008C2DE9804C5A
:101F70009A46934670B491E8380007C810F0804F35
:101F800008BF13F0804F03D100F005F8FFF76BFF97
:101F9000F0BCBDE8008C20F07F4780EA030023F00E
:101FA0007F4C07EB0C03A3F57C5300F00040A3F13A
:101FB000FE0392F0000F00F0B38095F0000F00F0E8
:101FC00077802DE901494FEA11404FEA144621EA92
:101FD000004800FB06FC24EA064708FB06F607FB60
:101FE00008F800FB07F718EB06484CEB164C4FEAD5
:101FF000124B18EB07484FEA15464CEB174022EA04
:102000000B4E0BFB06FC25EA06470EFB06F607FB0C
:102010000EFE0BFB07F71EEB064E4CEB164C4FF07B
:1020200000061EEB074E4CEB174B18EB0B0840F16C
:10203000000018EB0E0B58EB000840F100008F1A5F
:102040004FF000013CBFC943661B14BFB5EB040C45
:1020500000213CBFC943F61B4FEA17444EEA8E0EDF
:1020600027EA04454FEA1C4704FB07622CEA074CA9
:1020700005FB07F70CFB05F604FB0CFC16EB07460B
:1020800042EB174216EB0C4642EB1C421BEB0606DA
:1020900058EB0202414146EA9E0601D5BDE801899E
:1020A000B619524141EB0101A3F10103BDE80189D9
:1020B0004FEA14454FEA114724EA054621EA074C46
:1020C00005FB07F406FB07F70CFB06F105FB0CFC10
:1020D00011EB074144EB17444FEA124711EB0C4157
:1020E00044EB1C4422EA074C05FB07F206FB07F70A
:1020F0000CFB06F605FB0CFC16EB074642EB174201
:1021000016EB0C4642EB1C456A1854F1000148BF1F
:102110007047B619524141EB0101A3F10103704729
:1021200095F0000F37D04FEA11424FEA144721EAE9
:10213000024624EA074C02FB07F106FB07F70CFBFB
:1021400006F402FB0CFC14EB074441EB17414FEA89
:10215000154714EB0C4441EB1C4125EA074C02FBEC
:1021600007F506FB07F70CFB06F602FB0CFC16EB6B
:10217000074645EB174516EB0C4645EB1C4212197A
:1021800051F1000148BF7047B619524141EB0101BE
:10219000A3F1010370474FEA14454FEA114724EABF
:1021A000054621EA074C05FB07F106FB07F70CFB88
:1021B00006F24FF0000605FB0CFC12EB074241EB68
:1021C000174112EB0C4251EB1C4148BF704792186B
:1021D00041EB0101A3F1010370470000F8B5164679
:1021E0000446002240F201201D460F4601231146FD
:1021F000009004F5A0700AF09DFF002240F202203A
:1022000001231146009004F50C700AF093FF40F290
:102210000320009001232046022200210AF08AFFB9
:1022200095EC030A04F1F000D5ED081A00F0E8FC83
:1022300097EC030A04F54870D7ED081A00F0E0FCAB
:1022400096EC030A04F55370D6ED081A00F0D8FC9A
:102250009FED0B0A4FF4FA50A4F83401282084F8BB
:10226000370184ED4A0A0020A4F88C034EF62020A2
:10227000A4F888034EF62A20A4F88A03F8BD0000CB
:102280001FF42C3E02480122818B806904F082B940
:10229000F801002402480022818B806904F07AB999
:1022A000F801002470B52DED028BFFF7F3FF8020BD
:1022B00000F042FC552000F03FFC552000F03CFCB3
:1022C000484C2070FFF7DEFF9FED478AB0EE480ACA
:1022D00001F084FCFFF7DEFF802000F02DFC55208C
:1022E00000F02AFC552000F027FC2070FFF7CAFF01
:1022F000B0EE480A01F072FCFFF7CCFFB6217E2059
:1023000000F02CFCFFF7BEFF9FED380A01F066FCE1
:10231000FFF7C0FF802000F00FFC552000F00CFC00
:10232000552000F009FC2070FFF7ACFFB0EE480A22
:1023300001F054FCFFF7AEFF802000F0FDFB5520BC
:1023400000F0FAFB552000F0F7FB2070FFF79AFF32
:10235000B0EE480A01F042FC20781E2803D0FF208E
:10236000BDEC028B70BD1F4D00206070D835FFF7AB
:1023700091FF607800EB40004119285C497800F03B
:10238000EDFBFFF77FFFB0EE480A01F027FCFFF7F7
:1023900081FF607800EB4000285C40F0800000F096
:1023A000CBFB552000F0C8FB552000F0C5FB20708A
:1023B000FFF768FFB0EE480A01F010FC6078237860
:1023C00000EB400129444A789A4203D08978A278E8
:1023D0001143A170401CC0B260700628C7D3002012
:1023E000BEE70000B40100246F12833A0AD7A33D70
:1023F0002DE9F04F044600202DED048B89B00090AC
:10240000DFEDF09A0190B0EE699AF0EE498A01F0A2
:1024100021FCED4E02AFDFF8B4A30DF11408DFF894
:10242000B093DFF8B0B386ED060A01F013FCD6EDE9
:10243000060AE94930EE600A10EE100A884214DDFF
:102440009FEDE60A84ED090A9FEDE50A84ED0A0A8C
:102450009FEDE40A84ED0B0A9FEDE30A84ED0C0A7C
:102460009FEDE20A84ED060A88E19FEDE10A01F0A2
:10247000B5FBC4ED0C9AC4ED099AC4ED0A9A002587
:10248000C4ED0B9AF9E0FFF705FF922000F054FB32
:1024900006226946122000F031FBFFF7F3FE9DF89B
:1024A00001009DF80010D6ED040A000200B20843B6
:1024B00000EE100AB8EEC00A20EE200A84ED000AF1
:1024C0009DF803009DF8021020EE000A000200B201
:1024D000084300EE900AB8EEE01AD6ED040A21EEA9
:1024E000201A84ED011A9DF805009DF8041001EEF4
:1024F000010A000200B2084301EE900AF8EEE11A68
:1025000061EEA00AC4ED020A00EEA00A0DF072FC12
:10251000B0EE408A94ED0C0A30EE080A84ED0C0A05
:1025200000F07EF908226946002000F0E7FA00F08A
:102530006DF99DF800000F2840D19DF803009DF82B
:102540000210000200B2084300EE100AF8EEC00AC2
:1025500096ED050A60EE800AC4ED030A94ED091AAF
:1025600071EE200AC4ED090A9DF805009DF80410DB
:10257000000200B2084300EE900AF8EEE00A60EEB6
:10258000800AC4ED040A94ED0A1A71EE200AC4ED23
:102590000A0A9DF807009DF80610000200B20843E1
:1025A00000EE900AF8EEE00A20EE800A84ED050ABB
:1025B000D4ED0B0A30EE800A84ED0B0A002D7DD09D
:1025C000B4EEC98AF1EE10FA01DDB0EE489AB4EE2D
:1025D000E88AF1EE10FA01D2F0EE488A0020424675
:1025E00004EB800191ED030A07EB8001D1ED000AB5
:1025F000B4EEE00AF1EE10FA01DD81ED000A02EB23
:102600008001D1ED000AB4EEE00AF1EE10FA01D239
:1026100081ED000A401CC0B20328E1D339EE680AFC
:10262000002041464A4686ED070A07EB8003D3EDBA
:10263000000A01EB800393ED001A02EB8003401CBB
:1026400070EEC10AC0B20328C3ED000AEDD310EE4C
:10265000100AB0F17C5F14DC11685046814210DC36
:10266000516881420DDCD9F80810514509DC9FED15
:10267000610A01F0B3FA6D1CADB2F0888542FFF437
:1026800002AFF2880020D4ED0C0A00EE102AB8EE5A
:10269000400A80EE801A84ED0C1A00EE102A04EB3A
:1026A0008001401CB8EE400AD1ED090AC0B20328EF
:1026B00080EE801A81ED091AEFD300E06BE0FFF79E
:1026C000E9FDA22000F038FA02226946222000F03B
:1026D00015FAFFF7D7FD9DF800009DF80110C00026
:1026E00040EA5110B0F5806F01DBA0F5006042496F
:1026F00000EE100AB4EE001AF8EEC00AB3EE070AB4
:1027000000EE810A84ED060AB088401CB080F069B2
:1027100088423FF78AAE94ED0C0ADFED380A38495B
:1027200030EE600AB0EEC00A10EE100A8842F0DC0B
:10273000D9F80020594648468A42EADC42688A4273
:10274000E7DCD9F808005845E3DC94ED090A2D4888
:10275000B0EEC00A10EE101A8142DADC94ED0A0ADB
:10276000B0EEC00A10EE101A8142D2DC94ED0B0AD2
:10277000B0EEC00A10EE101A8142CADC94ED0C0AC9
:10278000DFED210A80EE801A84ED081A09B0BDEC55
:10279000048BBDE8F08F00204146B0EE489AF0EE81
:1027A000488A04EB800292ED030A07EB800282ED77
:1027B000000A01EB8002401CC0B2032882ED000A2F
:1027C000EFD32BE700000000B40100249A99193ED2
:1027D000142200249A99993E0000404113ACD13A4A
:1027E0007D39253A8AAD363B52671C4100008C4248
:1027F0000AD7A33B6F12033ACDCC4C3FCDCC1C4142
:10280000CDCC4C3E8FC2F53CC3F51C4103480122A0
:10281000B0F84010C06B03F0BDBE0000F80100240A
:1028200003480022B0F84010C06B03F0B3BE0000B4
:10283000F801002470B52DED028BFFF7F1FF41493F
:10284000002000F06DF9FFF7E1FF9FED3F8AB0EE49
:10285000480A01F0C3F9FFF7E3FF3A49002000F00E
:102860005FF9FFF7D3FFB0EE480A01F0B7F9FFF7C1
:10287000D7FFB621142000F071F9FFF7C7FF9FEDD5
:10288000330A01F0ABF9FFF7CBFF2E49002000F02F
:1028900047F9FFF7BBFFB0EE480A01F09FF9FFF7D9
:1028A000BFFF2849002000F03BF9FFF7AFFFB0EE73
:1028B000480A01F093F9234D28780F2803D0FF2010
:1028C000BDEC028B70BD1F4C00206870EA34FFF72E
:1028D000A7FF687800EB40000119205C497800F000
:1028E0003DF9FFF793FFB0EE480A01F077F9FFF7E3
:1028F00097FF6878134900EB4000205C00F010F966
:10290000FFF784FFB0EE480A01F068F968782A788A
:1029100000EB40012144497891420BD0401E094907
:10292000C0B26870D83100EB40000844A9788078C4
:102930000843A8706878401CC0B268700628C6D3E7
:102940000020BDE7B40100246F12833A0AD7A33DEB
:102950000F4900220F4810B50BF034F90C49002242
:102960000C4824310BF02EF9094C0020443CA07097
:10297000FFF798FCA1780843A070FFF75BFFA178F0
:102980000843A07004F18C00FFF732FDA07810BD61
:10299000F80100248005002470B50446FFF77AFC96
:1029A000922000F0C9F854490622122000F0A6F83F
:1029B000FFF768FC504DA5F13C06687829780002C5
:1029C00000B20843208700EE100AD6ED040AB8EEE4
:1029D000C00A60EE200A94ED080A60EE800AC4ED99
:1029E000000AE878A978000200B20843608700EE88
:1029F000900AB8EEE01AD6ED040A21EE201A21EE74
:102A0000001A84ED011A68792979000200B208439E
:102A1000308101EE100AA087B8EEC11A61EE200ADB
:102A200020EE800A84ED020AFFF7FAFE082229460A
:102A3000002000F063F8FFF7E9FE28780F2834D172
:102A4000E878A978000200B20843E08700EE100A97
:102A5000D4ED090AB8EEC01A96ED050A51EE000A47
:102A6000C4ED030A68792979000200B20843A4F88A
:102A7000400000EE900A94ED0A1AF8EEE00A10EE1B
:102A8000801A84ED041AE879A979000200B208439B
:102A9000308100EE900AA4F8420094ED0B1AF8EE93
:102AA000E00A10EE801A84ED051AFFF7F3FBA2206E
:102AB00000F042F810490222222000F01FF8FFF730
:102AC000E1FB28786978C00040EA51103081B0F508
:102AD000806F02DBA0F500603081B6F90800B4EE2B
:102AE000001A00EE100AF8EEC00AB3EE070A00EE74
:102AF000810A84ED070A70BDF001002470B540F032
:102B0000800014460D4600F017F806E0552000F04E
:102B100013F8641E05F8010BE4B2002CF6D170BD69
:102B200010B540F080000C4600F006F8552000F08B
:102B300003F8207010BD000001B582B04FF47A7028
:102B40000123009001AA044802A9406806F078F821
:102B50009DF804000EBD0000DC19002410B50C46E1
:102B6000FFF7EAFF2046BDE81040FFF7E5BF000091
:102B7000074900224A7202780A70B0F801204A80A0
:102B8000B0F803208A8040798871002070470000E7
:102B90009000002470EE600AC0ED030A90ED000A78
:102BA00020EE800A80ED050A90ED061AD0ED011A9C
:102BB00000EEA11A80ED061AD0ED081AB0EEE01A68
:102BC000B4EEE11AF1EE10FA03DD9FED0C1A80ED80
:102BD000061A90ED091AD0ED021A30EEC11A21EE54
:102BE000C11A80ED071AD0ED061A30EE210A30EE38
:102BF000010A80ED0A0AC0ED090A704700000000D2
:102C0000C0ED081A80EC030A9FED040A80ED050A66
:102C100080ED060A80ED070A704700000000000002
:102C200070EE600AC0ED030A90ED000A20EE800A03
:102C300080ED050A90ED061AD0ED011A00EEA11AFA
:102C400080ED061AD0ED081AB0EEE01AB4EEE11AE3
:102C5000F1EE10FA03DD9FED0C1A80ED061A90EDEF
:102C6000091AD0ED021A30EEC11A21EEC11A80ED18
:102C7000071AD0ED061A30EE210A30EE010A80ED77
:102C80000A0AC0ED090A704700000000B6EE002AEB
:102C900092ED020AB0EE421AD2ED030A00EE401A9B
:102CA000D0ED001AD0ED013A00EEE01A21EE213A03
:102CB00092ED011AD2ED001A61EE002A41EEE02AEF
:102CC00061EE200A41EE800A02EEA33A90ED020A7C
:102CD000F0EE002A00EE803A23EE220A81ED000A8F
:102CE000D2ED010AD2ED021A92ED001A92ED030A1A
:102CF00020EEA13AD0ED003A90ED014A01EE003A03
:102D000023EE233AF0EE423A40EEE03A40EE403A0B
:102D100021EE800A01EE600A03EE843AD0ED020A49
:102D200000EE203A23EE220A81ED010AD2ED010ADB
:102D3000D2ED031A92ED020A92ED001A20EEA13AAA
:102D400060EE211AD0ED003A00EEE02A01EE403AA2
:102D500041EE201A90ED011A00EE402A23EE233AAC
:102D600090ED020A01EE813A02EE003A23EE220AC9
:102D700081ED020A70470000044B002200B50146B5
:102D80000348DA8000F006F8002000BD840000242B
:102D9000B4200024F0B50A78AA2A0AD14A7800257E
:102DA00002728B78012A437202D1CA7ADD2A01D0DD
:102DB0000570F0BD4B4A0126067090ED040A82EDC5
:102DC000000A90ED030A82ED010ACB780C7903F03A
:102DD0003F0202EBC20707EB021204EB82024FF044
:102DE000FF3400EE102A9A09F8EE400A9FED3E0AE1
:102DF00080EE801A1BD0224600EE902AF8EEE00A00
:102E000061EE200AC0ED040A4B798F7903F03F028E
:102E100002EBC20C0CEB021207EB820200EE902ACE
:102E20009A09B8EE601AC1EE000A02D002E001224F
:102E3000E2E7012400EE104AB8EEC00A20EE800A54
:102E4000F2EE040A80ED030AC97900EE101A274950
:102E5000B8EE400A80EE201A80ED051ACA7A24499D
:102E6000022A18D1234A91ED170A9FED232BD2EDA8
:102E7000040A30EE600A81ED140A91ED010A92ED28
:102E8000031AB7EEC00AB7EEC11A01EE020BB7EE95
:102E9000C00B81ED000AD1ED140A91ED171A30EE46
:102EA000C10AB5EEC00AF1EE10FA01DC31EE600A9B
:102EB000134A10EE103A934211DAD1EC020A30EEC6
:102EC000C10AB5EEC00AF1EE10FA01DC31EE600A7B
:102ED00010EE101A914202DA80F82160F0BD80F8FD
:102EE0002150F0BD9C0000240000C842E0210024D5
:102EF000B41D0024B4200024666666666666F23F50
:102F00009A99993E044B002200B5014603485A8124
:102F100000F006F8002000BD84000024B420002446
:102F200030B50A78AA2A3ED14A7880F832208B78C8
:102F3000012A80F8343036D1CB780C7903F03F0287
:102F40009FED191A02EBC20505EB0212FFEE000A13
:102F500004EB820200EE102A5A06002AB8EE400A5C
:102F6000C0EE011AB7EE000A20FE202A61EE821A96
:102F7000C0ED0E1A4A798B7902F03F0101EBC104D2
:102F800004EB011103EB810101EE901A4FEA42615B
:102F90000029F8EE611A20FE200A81EE812A22EE35
:102FA000000A80ED0F0A30BD0000C842FEE70000B5
:102FB0000146034810B50AF0FFF8002010BD0000DC
:102FC0001800002410B58AB00446014608480AF0EB
:102FD000F3F82422684604F10C01FDF763FB94E842
:102FE0000E00044800F0D4FC0AB0002010BD000020
:102FF000280000242C1E002410B588B004460221AD
:1030000000200090CDE901010121CDE903100590D8
:103010006946206802F019FC20680022012102F0B4
:1030200089FB206803F0D9F808B010BD50F8042FD0
:103030005160C1E900200160704700B500230A68B3
:1030400089B0CDE900230822049305930693CDE9C6
:1030500002320A1D079308936946006802F0BAFB22
:1030600010B1002009B000BD0120FBE770B5204E73
:1030700039990E9AA1F20124251FC2F30723B04209
:10308000D2B208D1032C01D81A480BE0032D2DD859
:1030900018480C3013E0184EB04227D1032C0AD840
:1030A00014483C3000EB4100A0F5805080F8023C11
:1030B00080F8032C1AE0032D0AD80E48483000EBA4
:1030C0004100A0F5805080F8FA3B80F8FB2B0DE022
:1030D000A1F20920022809D80648543000EB41002B
:1030E000A0F5805080F8F23B80F8F32B002070BDF3
:1030F000EC030024B40000248C04002470B52D4E91
:1031000039990E9AA1F205252C1FD3B2B042C2F311
:1031100007221CD1032D0BD8274800EB4100A0F556
:10312000805080F8FA2B80F8FB3B234818301FE0D2
:10313000022C3CD820480C3000EB4100A0F5805018
:1031400080F8F22B80F8F33B1B48243027E01B4E1D
:10315000B0422CD1032D14D817483C3000EB41006D
:10316000A0F5805080F8FA2B80F8FB3B12485430D1
:1031700000EB4100A0F5805080F8FA2B80F8FB3B73
:1031800015E0022C13D80C48483000EB4100A0F5A4
:10319000805080F8F22B80F8F33B0748603000EB5A
:1031A0004100A0F5805080F8F22B80F8F33B00201E
:1031B00070BD0000EC030024C00000248C04002437
:1031C000028842810A8D52BA02814B8D5BBA4380DC
:1031D0008B8D5BBA838091F82E1081710280002064
:1031E00070470000074B02689A4202D1064AD1603C
:1031F0001060064B02689A4203D1034A1032D16034
:103200001060704700A000401800002400A4004097
:1032100090ED010AD1ED020A91ED011A20EE200A8B
:10322000D0ED020A00EEC10A82ED000A90ED020A1A
:10323000D1ED000A91ED021A20EE200AD0ED000A2D
:1032400000EEC10A82ED010A90ED000AD1ED010AFB
:1032500091ED001A20EE200AD0ED010A00EEC10A1D
:1032600082ED020A70470000014801F039BB0000FE
:103270004C0F0024014801F033BB00006C0D00240A
:10328000014801F02DBB0000C40F0024014801F0EB
:1032900027BB00003C100024014801F021BB0000C6
:1032A000B4100024014801F01BBB00002C110024C5
:1032B000014801F015BB0000A4110024014801F0F1
:1032C0000FBB00001C120024014801F009BB0000E4
:1032D0008C0B0024014801F003BB0000040C002407
:1032E000014801F0FDBA0000E40D0024014801F09E
:1032F000F7BA00007C0C0024014801F0F1BA00008C
:10330000F40C0024014801F0EBBA00005C0E00242C
:10331000014801F0E5BA0000D40E0024264A0168F5
:1033200091422CD0254A914229D0254A914226D05B
:10333000244A914223D0244A914220D0234A9142E8
:103340001DD0234A91421AD0224A914217D0224AD4
:10335000914214D0214A914211D0214A91420ED07B
:10336000204A91420BD0204A914208D01F4A9142F4
:1033700005D01F4A914202D01E4A914217D11E4BDE
:10338000CAB2103AA3FB02321209DFF870C002F091
:1033900007031CF80330C365032A04D96FF309013E
:1033A000091D816506E06FF30901816502E021F0E6
:1033B000FF018165806D70471000024028000240C7
:1033C0004000024058000240700002408800024065
:1033D000A0000240B800024010040240280402404D
:1033E0004004024058040240700402408804024035
:1033F000A0040240B8040240ABAAAAAAF40501083E
:1034000001680123DFF894C0CAB261451BD0DFF820
:1034100090C0614517D0DFF88CC0614513D0DFF84C
:1034200088C061450FD0DFF884C061450BD0DFF85C
:1034300080C0614507D0DFF87CC0614503D0DFF86C
:1034400078C0614511D1A2F108011C4AA2FB0121FB
:1034500009091B4A02EB810202661A4A426601F020
:103460001F0103FA01F181667047DFF85CC0103A72
:10347000ACFB02C21209DFF854C06144A82900D88D
:103480000832134901EB820101661249416602F0DC
:103490001F0103FA01F181667047000008540258C9
:1034A0001C5402583054025844540258585402587C
:1034B0006C5402588054025894540258CDCCCCCC51
:1034C0000058025880580258ABAAAAAAF0FBFDBFC8
:1034D000000802408008024001794A1E072A28D8C5
:1034E000144B0168994214D0134B994211D0134BDD
:1034F00099420ED0124B99420BD0124B994208D0F0
:10350000114B994205D0114B994202D0104B994270
:1035100006D1104901EB8201C1660F49016705E040
:103520000E4901EB8201C1660D49016701219140FD
:1035300041677047085402581C54025830540258CE
:1035400044540258585402586C540258805402583B
:103550009454025800590258405902580009024038
:1035600040090240014600208B698A6A002B0FD077
:10357000B3F5005F1DD08AB3012A30D0022A2ED0C5
:10358000032A04D1C96A11F0807F00D0012070475E
:103590001AB1012A07D0022AF9D1C96A11F0807F35
:1035A000F5D001207047C96AB1F1C07FFAD101207E
:1035B00070475AB1012A0BD0022A07D0032AF7D14B
:1035C000C96AB1F1C07FF3D1012070470120704773
:1035D000C96A11F0807FFAD001207047FFE701200F
:1035E000704700002DE9F04F846D794ED0F800C08F
:1035F000784FDFF8E481B445DFF8E091DFF8E0A12F
:10360000DFF8E0B1784D4FD0BC454DD0C4454BD02C
:10361000CC4549D0D44547D0DC4545D0DFF8CCE196
:10362000F44541D0AC453FD0DFF8C4E1F4453BD090
:10363000DFF8C0E1F44537D0DFF8BCE1F44533D022
:10364000DFF8B8E1F4452FD0DFF8B4E1F4452BD032
:10365000DFF8B0E1F44527D0DFF8ACE1F44523D042
:10366000DFF8A8E1F4451FD0DFF8A4E1F4451BD052
:10367000DFF8A0E1F44517D0DFF89CE1F44513D062
:10368000DFF898E1F4450FD0DFF894E1F4450BD072
:10369000DFF890E1F44507D0DFF88CE1F44503D082
:1036A000DFF888E1F44510D1D0F864E0D0F868C0C4
:1036B000CEF804C0D0F86CC0BCF1000F05D0D0F833
:1036C00070E0D0F874C0CEF804C0D0F800C0B445A3
:1036D00026D0BC4524D0C44522D0CC4520D0D445EA
:1036E0001ED0DC451CD0414EB44519D0AC4517D096
:1036F0003F4DAC4514D03F4DAC4511D03E4DAC458F
:103700000ED03E4DAC450BD03D4DAC4508D03D4DA7
:10371000AC4505D03C4DAC4502D03C4DAC4523D129
:1037200090F85CC03F250CF01F0C05FA0CFCC4F8A7
:1037300008C0D0F800C0DCF8004024F48024CCF8A5
:103740000040D0F800C0CCF804308368402B05D08E
:10375000036899600068C260BDE8F08F03689A60F2
:103760000068C160BDE8F08F294DAC4514D0294DEB
:10377000AC4511D0284DAC450ED0284DAC450BD0F2
:10378000274DAC4508D0274DAC4505D0264DAC455E
:1037900002D0264DAC45E5D190F85CC001250CF077
:1037A0001F0C05FA0CFCC4F804C0D0F800C0CCF81B
:1037B00004308368402B05D0036899600068C260BC
:1037C000BDE8F08F03689A600068C160BDE8F08FC3
:1037D0001000024028000240400002405800024011
:1037E0007000024088000240B8000240A000024081
:1037F00010040240280402404004024058040240E1
:103800007004024088040240A0040240B804024050
:10381000085402581C540258305402584454025858
:10382000585402586C540258805402589454025808
:10383000028001F5807280F8903081614162C2633C
:10384000FC22016301F50071816440F2FE314165A3
:10385000FF21017741778177C17780F8201080F8C8
:10386000211080F8221080F8232080F8281080F89A
:10387000291080F82A1080F82B1080F82C1080F87E
:103880002D1080F82E10FD2180F82F1070470000B9
:1038900070B5044610202DED048BF0EE419AB0EE89
:1038A000608AF0EE428AB0EE619AB2EE091AFAEE40
:1038B000090A0CF06FFD264DB3EE0E1AFBEE0E0A50
:1038C000B0EE480A28800C200CF064FD9FED228A9F
:1038D0009FED201AB0EE690AF0EE480A68800C20CD
:1038E0000CF058FDB1EE041AF0EE480AB0EE490AA9
:1038F000A8800C200CF04EFDB2EE041AFAEE040A79
:10390000B0EE680AE8800C200CF044FD288129887C
:103910000A0A84F8342084F8351069880A0984F882
:1039200036200A01A98842EA112284F8372084F857
:103930003810E9880A0984F83920090141EA102180
:1039400084F83A1084F83B00BDEC048B70BD000095
:10395000B00200240000FA43000000001FB50699E1
:1039600091F8900050B101280BD002280CD0032808
:1039700003D154316846FFF760FB1FBD3031684604
:10398000F9E73C316846F6E748316846F3E700005E
:103990000FB470B5044690F8900018B1012801D01A
:1039A000022837D121880598884233D19DF83C0000
:1039B0001A4DF2EE090A0009E071BDF83D00BAEEB9
:1039C000090A40BA6881BDF83F1049BA0909A981BE
:1039D0009DF840209DF8411002F00F0241EA0221BB
:1039E000E98110210CF085FD84ED020AA8890C21E3
:1039F000DFED0B0A9FED0B0A0CF07BFD84ED040A52
:103A0000E8890C21F3EE020ABBEE020A0CF071FD0C
:103A100084ED030A70BC5DF814FB0000B0020024C2
:103A200000003442000034C21FB5684606992431B4
:103A3000FFF703FB1FBD1FB5684606991831FFF756
:103A4000FCFA1FBD4FF48061418081800322C18058
:103A500001818272C27201803221018270470000AE
:103A60000146034800B500F005F8002000BD000045
:103A7000E02100244A4A4B4BF0B5002616829A8971
:103A800001254FF4A567521C9A81857332460B8835
:103A9000C3F30A04A4F5B673BB4200D801224B78E5
:103AA0004FEAD30C8B784CEA431CCCF30A0CACF5F0
:103AB000B67CBC4500D8521C91F803C09B0943EA70
:103AC0008C0C0B794CEA832CCCF30A0CACF5B67C4D
:103AD000BC4500D8521C4FEA530C4B794CEAC31C2E
:103AE000CCF30A0CACF5B67CBC4500D8521CB5EB47
:103AF000931F07D00225B5EB931F03D00325B5EB29
:103B0000931F00D1521CC3F30115012D05D0022DC6
:103B100003D06FEA13139B0700D1521C062A3CD135
:103B20004480A4F2FD344A788B78D20842EA4312EA
:103B3000C2F30A0282808B78CD789B0943EA850321
:103B40000D7943EA8523C3F30A03C3800D794F79C6
:103B50006D0845EAC715C5F30A0505814F79BF0908
:103B600087724F79072CC7F30117C772098AC1F30F
:103B70000A0101804FF4806100D24180A2F2FD323F
:103B8000072A00D28180A3F2FD33072B00D2C18027
:103B9000A5F2FD35072D00D201818673F0BD00002E
:103BA000E0210024682000240A4808B50178002993
:103BB0000ED10121017008494A68009243699A4276
:103BC00002D20269521C0261496841610021017000
:103BD00008BD000038000024001000E00A484168D9
:103BE0000A4AD2ED010A4268521AF8EE601A01EE52
:103BF000102AB8EE411A60EE211AB4EEE11AF1EE85
:103C000010FAF0D370470000001000E038000024E4
:103C100000B50E492DED028B81B049680091016815
:103C2000009A511A00EE101A0949F8EE400A91ED77
:103C3000010A0260B8EE400A80EE808AFFF7B4FF06
:103C400001B0B0EE480ABDEC028B00BD001000E0F0
:103C50003800002410B500F043F80C489FED0C1A12
:103C600090ED000A8188C08800EE901AB8EE400AF4
:103C7000F8EE600A00EE810A00EE900A9FED051A48
:103C8000F8EE600A00EE810A10BD00006800002412
:103C90006F12833ABD3786350D490A6842F080724B
:103CA0000A600C4900224A600B6843F001030B6074
:103CB00009494FF47A7348430849B0FBF3F3C1E96B
:103CC0000103054BB0FBF3F0C1E90302FFF76CBF42
:103CD000FCED00E0001000E040420F00380000243E
:103CE0001F482DE9F84340680090FFF75DFF1D4C29
:103CF00000274FF0FF3200983D463B462169E1FB2B
:103D0000020506462946C4E90E05D4F80480424659
:103D1000FCF737FC0246A2FB083C01FB08C004F19B
:103D2000300802FB0701F61AC8F80020D4F8089002
:103D300065EB0105002330464A462946FCF721FC85
:103D400082B2A8F80420002302FB09F2B01AE2684C
:103D500065EB0701FCF715FCA8F80600BDE8F88341
:103D6000001000E038000024704790ED000AD1ED0B
:103D7000000A91ED011A20EE200AD0ED010A00EEB2
:103D8000810AD0ED020A91ED021A00EE810A704715
:103D9000C0E900127047B6EE002A92ED020AB0EEBA
:103DA000421AD2ED030A00EE401AD0ED001AD0ED0F
:103DB000013A00EEE01A21EE213A92ED011AD2ED1D
:103DC000001A61EE002A41EEA02A61EE200A41EEBF
:103DD000C00A02EEA33A90ED020AF0EE002A00EECD
:103DE000803A23EE220A81ED000AD2ED010AD2EDDB
:103DF000021A92ED001A92ED030A20EEA13AD0EDDC
:103E0000003A90ED014A01EE403A23EE233AF0EEFB
:103E1000423A40EEE03A40EE403A21EE800A01EEAE
:103E2000200A03EE843AD0ED020A00EE203A23EE97
:103E3000220A81ED010AD2ED010AD2ED031A92EDB8
:103E4000020A92ED001A20EEA13A60EE211AD0ED9E
:103E5000003A00EEE02A01EE003A41EE601A90EDE1
:103E6000011A00EE402A23EE233A90ED020A01EEF9
:103E7000813A02EE003A23EE220A81ED020A7047EF
:103E800072B6FEE7014801F019BE0000EC03002401
:103E9000014801F013BE00008C040024416B02684D
:103EA000D2F884306FF38F0343EA8103C2F8843081
:103EB0000268D2F88430B0F838C023F47F0343EAB4
:103EC0000C43C2F88430826B11440268D2F8883007
:103ED0006FF38F0343EA8103C2F888300268D2F897
:103EE0008830B0F83CC023F4FE0343EA0C43C2F828
:103EF0008830C26B01EB42010268D2F8A0306FF348
:103F00008F0343EA8103C2F8A0300268D2F8A030E0
:103F1000B0F840C023F4FE0343EA0C43C2F8A030DB
:103F2000436C026C02FB03110268D2F8B0306FF3ED
:103F30008F0343EA8103C2F8B0300268D2F8B03090
:103F4000B0F848C023F4FE0343EA0C43C2F8B03093
:103F5000C36C826C02FB03110268D2F8AC306FF3C1
:103F60008F0343EA8103C2F8AC30436D026D02FB5C
:103F700003110268D2F8F0306FF38F0343EA810334
:103F8000C2F8F0300268D2F8F030B0F858C023F42C
:103F90007C1343EA0C43C2F8F030826D01EB42021D
:103FA0000168D1F8C0306FF38F0343EA8202C1F891
:103FB000C0200168D1F8C020B0F85C3022F47C1237
:103FC00042EA0342C1F8C0200168D1F8C02090F84D
:103FD000603022F07C5242EA0362C1F8C020416B9B
:103FE000294A02EB8101C166826B01EB8202026702
:103FF000C36B02EBC3024267D0F844C0036C03FBFF
:104000000CF302EB83028267D0F84CC0836C03FB95
:104010000CF302EB8302C267D0F854C0036D03FBBC
:104020000CF302EB8302C0F88020836D02EBC30324
:10403000C0F88430D0F85CC0826E0CFB02FC03EB4D
:104040008C03C0F88830D0F860C00CFB02F203EBA0
:104050008202C0F890200D4B9A420AD9D0F89C10E9
:1040600041F02001C0F89C10032180F89810012035
:1040700070478A4206D900220A60091DD0F89030A4
:104080008B42F9D80020704700AC0040FCD30040C0
:1040900070B4D1F808C00C694D6844EA0C0C0C6887
:1040A000002D40D044F080444CEA040C8D69CC696A
:1040B00091F820602C434D6945EA06652C438D89B3
:1040C00044EA0544D0F88450806E00FB03F005EB11
:1040D0008000C0F800C0001D0460031D0020134CC8
:1040E000D1F80CC014F80CC0BCF1000F19D902EBC8
:1040F000000C155C9CF8036045EA06659CF80260BC
:104100009CF801C0360446EA0C2C45EA0C0CC3F8B6
:1041100000C01B1D001DD1F80CC014F80CC0844554
:10412000E5D870BC70474CEA844CBFE7980501089D
:1041300081898180C189C180018A0180418A418051
:10414000818A0181C18A4181002141828181C181AD
:1041500001828182C18209F0EBB8000016498842D1
:1041600001D1164870471649884202D11348D4300D
:1041700070471449884201D1134870471349884257
:1041800002D11148D43070471149884201D11148F9
:1041900070471149884202D10E48D43070470F4908
:1041A000884201D10E4870470E49884202D10C481E
:1041B000D4307047002070473C090024941200243A
:1041C000D0090024640A00243C140024EC060024D6
:1041D00080070024E4150024F80A002414080024B1
:1041E0008C170024A808002410B504463348007931
:1041F000C00708D13248C17BB4F98C0301295BD0D8
:10420000401EA4F88C03B4F98C0300214FF47A7299
:104210000CF0D4F8A4F88C03B4F888139FED291B94
:104220009FED2A2B11FB00F100EE101AB8EEC00B27
:1042300020EE010BB7EEC00B84EDDE0AB4F88A1352
:1042400011FB00F000EE900AB8EEE01B21EE021B1D
:10425000F7EEC10BC4EDDF0AB4F94A0100EE900A93
:1042600004F54870F8EEE00AFEF7DAFC84EDE00AA7
:10427000B4F93A0200EE100A04F55370F8EEC00AE1
:1042800094EDDF0AFEF7CCFC84EDE10A94EDE00A40
:1042900004F5A070BDEEC00A10EE101A08F014FF6D
:1042A00094EDE10A04F50C70BDE81040BDEEC00AC3
:1042B00010EE101A08F008BF401CA2E7B419002441
:1042C000E0210024FCA9F1D24D62503FFCA9F1D2BB
:1042D0004D6250BF2DE9F84F044602F069F9009095
:1042E0005CB194F8350002280AD080206065002077
:1042F00084F834000120BDE8F88F0120BDE8F88F74
:10430000B6492068B64EB74F8842DFF8DC82DFF846
:10431000DC92DFF8DCA2DFF8DCB226D0B04224D099
:10432000B84222D0404520D048451ED050451CD030
:1043300058451AD0B04A904217D0B04A904214D093
:10434000AF4A904211D0AF4A90420ED0AE4A90424E
:104350000BD0AE4A904208D0AD4A904205D0AD4A4B
:10436000904202D0AC4A90420AD1026822F01E026A
:1043700002602068426922F080024261256804E000
:10438000026822F00E0202602568206888423ED052
:10439000B0423CD0B8423AD0404538D0484536D0FB
:1043A000504534D0584532D0934A90422FD0934A4A
:1043B00090422CD0924A904229D0924A904226D0E4
:1043C000914A904223D0914A904220D0904A904204
:1043D0001DD0904A90421AD08F4A904217D08F4AEF
:1043E000904214D08E4A904211D08E4A90420ED004
:1043F0008D4A90420BD08D4A904208D08C4A904210
:1044000005D08C4A904202D08B4A904204D1206E53
:10441000026822F48072026070492068884226D0C7
:10442000B04224D0B84222D0404520D048451ED0CA
:1044300050451CD058451AD06F49884217D06F4953
:10444000884214D06E49884211D06E4988420ED0FD
:104450006D4988420BD06D49884208D06C4988422A
:1044600005D06C49884202D06B49884204D101686A
:1044700021F00101016003E0016821F00101016008
:10448000286810F0010F14D002F092F80099401A39
:1044900005280AD920206065032084F83500002013
:1044A00084F834000120BDE8F88F286810F0010F6F
:1044B000EAD14A4A01212068904226D0B04224D055
:1044C000B84222D0404520D048451ED050451CD08F
:1044D00058451AD0484B984217D0484B984214D0B0
:1044E000474B984211D0474B98420ED0464B9842CA
:1044F0000BD0464B984208D0454B984205D0454BCF
:10450000984202D0444B98420AD1A06D4FF03F0C24
:1045100094F85C3003F01F030CFA03F3836007E0A8
:10452000A06D94F85C3003F01F0301FA03F34360BD
:10453000206890423ED0B0423CD0B8423AD040458C
:1045400038D0484536D0504534D0584532D02A4A24
:1045500090422FD0294A90422CD0294A904229D00B
:10456000284A904226D0284A904223D0274A904297
:1045700020D0274A90421DD0264A90421AD0264A7F
:10458000904217D0254A904214D0254A904211D02B
:10459000244A90420ED0244A90420BD0234A9042A3
:1045A00008D0234A904205D0224A904202D0224AA3
:1045B00090420BD1626EA06E5060E06E30B1026826
:1045C00022F480720260226F606F506084F83510B0
:1045D000002084F83400BDE8F88F0000100002408D
:1045E0002800024040000240580002407000024093
:1045F00088000240A0000240B800024010040240BF
:104600002804024040040240580402407004024062
:1046100088040240A0040240B80402400854025832
:104620001C540258305402584454025858540258EA
:104630006C54025880540258945402582DE9F05F8B
:10464000002808D090F83510022907D08021416554
:104650000120BDE8F09F0120BDE8F09FDFF81CE2DB
:104660000168874BDFF81CC27145874C874D884E27
:10467000884FDFF82482DFF82492DFF824A2DFF8E5
:1046800024B2894A25D0994223D0614521D0A14244
:104690001FD0A9421DD0B1421BD0B94219D0DFF8BA
:1046A0000CE2714515D0DFF808E2714511D0DFF852
:1046B00004E271450DD041450BD0494509D0DFF8E2
:1046C000F8E1714505D0514503D0594501D09142DB
:1046D00032D14FF0040E80F835E06848814221D095
:1046E00099421FD061451DD0A1421BD0A94219D0CB
:1046F000B14217D0B94215D06C48814212D06C48F3
:1047000081420FD06B4881420CD041450AD04945C7
:1047100008D06948814205D0514503D0594501D0A0
:10472000914204D1086820F001000860A3E0086805
:1047300020F0010008609EE0D1F800E02EF00E0E9F
:10474000C1F800E0DFF834E10168714525D09942F5
:1047500023D0614521D0A1421FD0A9421DD0B14232
:104760001BD0B94219D0DFF844E1714515D0DFF80C
:1047700040E1714511D0DFF83CE171450DD0414574
:104780000BD0494509D0DFF830E1714505D05145DE
:1047900003D0594501D0914206D1D1F800E02EF066
:1047A000010EC1F800E005E0D1F800E02EF0010EA6
:1047B000C1F800E0DFF8C4E00168714539D09942E2
:1047C00037D0614535D0A14233D0A94231D0B14272
:1047D0002FD0B9422DD0354B99422AD0344B994233
:1047E00027D0344B994224D0414522D0494520D08E
:1047F000314B99421DD051451BD0594519D091429A
:1048000017D02E4A914214D02D4A914211D02D4AF0
:1048100091420ED02C4A91420BD02C4A914208D0A2
:104820002B4A914205D02B4A914202D02A4A91420A
:1048300018D1016E0A6822F480720A60816D90F8C6
:104840005C2002F01F0301229A404A60426E816E92
:104850005160C16E31B10A6822F480720A60026F41
:10486000416F5160012180F83510002180F834102B
:10487000016D01B188470020BDE8F09F10000240A3
:1048800028000240400002405800024070000240F0
:1048900088000240A0000240400402405804024048
:1048A00088040240A0040240B8040240B80002405C
:1048B00010040240280402407004024008540258C8
:1048C0001C54025830540258445402585854025848
:1048D0006C5402588054025894540258406D7047EA
:1048E0002DE9F04F83B00446002002904FF416519A
:1048F000FD480068B0FBF1F00190A56D2E682968B5
:10490000FA4F2068DFF8E8A3DFF8E8B3B842DFF831
:10491000E883DFF8E8932DD0524690422AD05A46D9
:10492000904227D0404525D0484523D0F44A9042B4
:1049300020D0F44A90421DD0F34A90421AD0F34A54
:10494000904217D0DFF8C8C3604513D0F14A9042B7
:1049500010D0DFF8C4E370450CD0F04A904209D083
:10496000EF4A904206D0EF4A904203D0EE4B984275
:1049700040F0408294F85C10082201F01F0102FA16
:1049800001F1314241D0B84228D0504526D0584597
:1049900024D0404522D0484520D0D94988421DD056
:1049A000D84988421AD0D849884217D0D749884276
:1049B00014D0D749884211D0D64988420ED0D64962
:1049C00088420BD0D549884208D0D549884205D0C5
:1049D000D449884202D0D449884203D1016801F009
:1049E000040102E0016801F0080171B1016821F0E1
:1049F0000401016094F85C0000F01F0002FA00F06E
:104A0000A860606D40F00100606594F85C0000F003
:104A10001F01012000FA01F1314234D02068B84270
:104A200028D0504526D0584524D0404522D048456E
:104A300020D0B34A90421DD0B24A90421AD0B24A16
:104A4000904217D0B14A904214D0B14A904211D04E
:104A5000B04A90420ED0B04A90420BD0AF4A90423A
:104A600008D0AF4A904205D0AE4A904202D0AE4A3A
:104A700090427DD1406910F0800F04D0A960606D34
:104A800040F00200606594F85C0000F01F01042013
:104A900000FA01F1314234D02068B84228D05045A4
:104AA00026D0584524D0404522D0484520D0944AAD
:104AB00090421DD0934A90421AD0934A904217D008
:104AC000924A904214D0924A904211D0914A904218
:104AD0000ED0914A90420BD0904A904208D0904A12
:104AE000904205D08F4A904202D08F4A904245D1E1
:104AF000006810F0020F04D0A960606D40F004005F
:104B0000606594F85C0000F01F01102000FA01F1CC
:104B1000314259D02068B84228D0504526D0584557
:104B200024D0404522D0484520D0754A90421DD01F
:104B3000744A90421AD0744A904217D0734A9042F5
:104B400014D0734A904211D0724A90420ED0724AE9
:104B500090420BD0714A904208D0714A904205D0E1
:104B6000704A904202D0704A904209D1006800E039
:104B700002E000F0080006E0006884E70068C0E793
:104B8000006800F00400F8B1A9602068016811F421
:104B9000802F0DD0006810F4002F04D0A16C99B1C3
:104BA0002046884710E0216C71B1204688470BE011
:104BB000016811F4807F03D1016821F008010160D0
:104BC000216C09B12046884794F85C0000F01F0171
:104BD000202000FA01F131426FD02068B84228D07D
:104BE000504526D0584524D0404522D0484520D0B5
:104BF000434A90421DD0434A90421AD0424A9042C2
:104C000017D0424A904214D0414A904211D0414AB2
:104C100090420ED0404A90420BD0404A904208D079
:104C20003F4A904205D03F4A904202D03E4A9042CD
:104C300003D1006800F0100002E0006800F00200FC
:104C4000D8B3A96094F8350004280DD02068016815
:104C500011F4802F37D0006810F4002F2ED0E16BB4
:104C600059B32046884764E02068016821F01601A6
:104C700001602068416921F080014161206C08B920
:104C8000A06C20B12068016821F00801016094F84F
:104C90005C003F2100F01F0001FA00F0A860012035
:104CA00084F83500002084F83400216D00297BD081
:104CB00003B02046BDE8F04F084737E0616CA9B368
:104CC0002046884735E0016811F4807F09D10168EA
:104CD00021F010010160012084F83500002084F8E3
:104CE0003400E16B11B322E0040000241000024004
:104CF000280002404000024058000240700002407C
:104D000088000240A0000240B800024010040240A7
:104D1000280402404004024058040240700402404B
:104D200088040240A0040240B804024001E020468A
:104D30008847606D002837D0606D10F0010F51D0AA
:104D4000042084F835002068B84228D0504526D089
:104D5000584524D0404522D0484520D0AB49884210
:104D60001DD0AB4988421AD0AA49884217D0AA4917
:104D7000884214D0A949884211D0A94988420ED04E
:104D8000A84988420BD0A849884208D0A749884240
:104D900005D0A749884202D0A649884205D10168BA
:104DA00021F00101016004E096E0016821F00101B9
:104DB000016021680298019A401C0290904203D839
:104DC000086810F0010FF5D1086810F0010F03D04A
:104DD000032084F8350002E0012084F8350000202B
:104DE00084F83400E16C002976D003B02046BDE899
:104DF000F04F0847904B984214D0904B984211D0F6
:104E00008F4B98420ED08F4B98420BD08E4B9842CE
:104E100008D08E4B984205D08D4B984202D08D4BD6
:104E2000984259D103684FF0040A94F85C6006F088
:104E30001F060AFA06FA1AEA010F5AD013F0040FF5
:104E400057D0C5F804A013F4004F12D013F4803FDC
:104E500007D0216C00293FD003B02046BDE8F04FB9
:104E60000847A16C002937D003B02046BDE8F04FB9
:104E7000084713F0200F34D12068B84227D0764974
:104E8000884224D07549884221D040451FD04845EA
:104E90001DD05E4988421AD05D49884217D05D49CD
:104EA000884214D05C49884211D060450FD05C49DB
:104EB00088420CD070450AD05B49884207D05B49D4
:104EC000884204D0904202D05A49884205D10168F4
:104ED00021F00801016004E083E0016821F0040191
:104EE0000160216C00297CD003B02046BDE8F04F62
:104EF00008474FF0020A0AFA06FA1AEA010F5FD0D1
:104F000013F0020F5CD0C5F804A013F4004F12D0C8
:104F100013F4803F07D0E16B002974D003B0204622
:104F2000BDE8F04F0847616C00296CD003B0204603
:104F3000BDE8F04F084713F0200F39D12068B84280
:104F400027D04549884224D04449884221D0404551
:104F50001FD048451DD02D4988421AD02C4988427F
:104F600017D02C49884214D02B49884211D0604573
:104F70000FD02B4988420CD070450AD02A4988426C
:104F800007D02A49884204D0904202D02949884259
:104F900004D1016821F01401016003E0016821F0EF
:104FA0000A010160012084F83500002084F83400F3
:104FB000E16B002927D003B02046BDE8F04F084739
:104FC0000822B2400A421ED013F0080F1BD001681D
:104FD00021F00E01016094F85C0000F01F01012037
:104FE00000E010E000FA01F16960606584F83500C6
:104FF000002084F83400E16C002904D003B020467E
:10500000BDE8F04F084703B0BDE8F08F88000240CC
:10501000A0000240B80002401004024028040240F0
:1050200040040240580402407004024088040240D8
:10503000A0040240B8040240085402581C5402580C
:105040003054025844540258585402586C54025870
:1050500080540258945402582800024040000240F4
:105060002DE9F05F044601F0A3FA0646002C6AD051
:10507000DC4F022220680025DFF86C83DFF86C9398
:10508000B842DFF86CA3DFF86CB328D0DA49884265
:1050900025D0404523D0484521D050451FD0584504
:1050A0001DD0D64988421AD0D549884217D0D54953
:1050B000884214D0D449884211D0D44988420ED0B5
:1050C000D34988420BD0D349884208D0D24988427C
:1050D00005D0D249884202D0D14988427ED184F895
:1050E000352084F83450B84228D0C349884225D0AE
:1050F000404523D0484521D050451FD058451DD0AC
:10510000BE4988421AD0BE49884217D0BD4988425C
:1051100014D0BD49884211D0BC4988420ED0BC4948
:1051200088420BD0BB49884208D0BB49884205D091
:10513000BA49884202D0BA49884207D1016821F0B1
:105140000101016006E00120BDE8F09F016821F047
:10515000010101602068006810F0010F11D001F01A
:1051600027FA801B052807D920206065032084F8D2
:1051700035000120BDE8F09F2068006810F0010FA5
:10518000EDD122681068A7490840E368A168D4F807
:1051900014C01943236943EA0C031943A369194353
:1051A000E3691943236A19430843616A042903D157
:1051B000236BE16A194308439B4909686FF30F01A8
:1051C000B1F1005F11D36168A1F12903052B0AD960
:1051D000163B032B07D9083B012B00E02CE002D93A
:1051E0004F39032901D840F48010106020684069CD
:1051F00020F00701606A40EA010604280ED1A06A87
:105200000643E06A50B12046FEF7ACF930B14020C9
:105210006065012084F83500BDE8F09F2068466194
:105220002046FEF77BF894F85C103F2201F01F0146
:1052300002FA01F181605BE07C49884214D07C4B2A
:10524000984211D07B4B98420ED07B4B98420BD0AA
:105250007A4B984208D07A4B984205D0794B9842C5
:1052600002D0794B98427DD188420CD07049884257
:1052700009D07049884206D06F49884203D06F49EF
:10528000884200D06E4984F8352084F83450026892
:105290006FF31012A168402979D0802979D00021BC
:1052A000E36841EAD301236941EAD301636941EA32
:1052B000D301A36941EAD301E36941EAD301236A37
:1052C00041EA1311114301606049206801446048BC
:1052D000A0FB011000098000E0652046FEF71EF8E3
:1052E00094F85C10012201F01F0102FA01F1416003
:1052F0002068B84242D0404988423FD040453DD026
:1053000048453BD0504539D0584537D03B49884275
:1053100034D03B49884231D03A4988422ED03A496C
:1053200088422BD03949884228D03949884225D033
:105330003849884222D0384988421FD037498842AC
:105340001CD03749884219D03849884216D038498C
:10535000884213D03749884210D0374988420DD04F
:10536000364900E018E0884208D03549884205D027
:105370003449884202D0344988422CD12046FEF775
:105380003FF8A06880280FD00FE000E001E0102176
:1053900086E74FF4804183E740206065032084F86E
:1053A00035000120BDE8F09F6560216E207908601E
:1053B000616EA06E48606068401E072808D82046CD
:1053C000FEF78AF8E06E0560216F606F486002E0CA
:1053D000E566256765676565012084F8350000206E
:1053E000BDE8F09F1000024040000240580002401B
:1053F000700002408800024028000240A0000240E5
:10540000B800024010040240280402404004024058
:10541000580402407004024088040240A004024084
:10542000B80402403F8010FE0010005C085402588F
:105430001C540258305402584454025858540258CC
:105440006C5402588054025894540258F8ABFDA78B
:10545000CDCCCCCC2DE9F84F044600200090002C98
:1054600016D094F83400012815D0012084F83400B7
:1054700094F835C00020BCF1010F0FD04FF400614B
:10548000616584F83400012000900098BDE8F88F31
:105490000120BDE8F88F0220BDE8F88F4FF0020C24
:1054A00084F835C06065DFF82CC220688A4D8B4EC9
:1054B00060458B4FDFF82C82DFF82C92DFF82CA2AE
:1054C000DFF82CB22DD0A8422BD0B04229D0B84260
:1054D00027D0404525D0484523D0504521D05845B8
:1054E0001FD0DFF810C260451BD0DFF80CC260454A
:1054F00017D0DFF808C2604513D0DFF804C260455A
:105500000FD0DFF800C260450BD0DFF8FCC160456A
:1055100007D0DFF8F8C1604503D0DFF8F4C160457B
:1055200006D1D0F800C02CF0010CC0F800C005E096
:10553000D0F800C02CF0010CC0F800C02046FEF7E7
:1055400051F864492068884225D0A84223D0B0424F
:1055500021D0B8421FD040451DD048451BD05045F2
:1055600019D0584517D0634A904214D0624A9042ED
:1055700011D0624A90420ED0614A90420BD0614AEB
:10558000904208D0604A904205D0604A904202D0D2
:105590005F4A90420DD1026822F01E0242F01602CC
:1055A0000260206C90B12068026842F0080202603C
:1055B0000CE0026822F00E0242F00A020260206C47
:1055C00020B12068026842F004020260206888422C
:1055D0003DD0A8423BD0B04239D0B84237D0404548
:1055E00035D0484533D0504531D058452FD0414A69
:1055F00090422CD0404A904229D0404A904226D036
:105600003F4A904223D03F4A904220D03E4A9042A7
:105610001DD03E4A90421AD03D4A904217D03D4A92
:10562000904214D03C4A904211D03C4A90420ED055
:105630003B4A90420BD03B4A904208D03A4A9042B3
:1056400005D03A4A904202D0394A90420ED1206E9B
:10565000026812F4803F03D0026842F48072026054
:10566000E06E18B1026842F48072026020688842DD
:1056700025D0A84223D0B04221D0B8421FD0404507
:105680001DD048451BD0504519D0584517D0194951
:10569000884214D01849884211D0184988420ED047
:1056A000174988420BD01749884208D016498842CA
:1056B00005D01649884202D01549884204D10168B4
:1056C00041F001010160E0E6016841F00101016083
:1056D000DBE60000100002402800024040000240CB
:1056E000580002407000024088000240A0000240C2
:1056F000B800024010040240280402404004024066
:10570000580402407004024088040240A004024091
:10571000B8040240085402581C540258305402582D
:1057200044540258585402586C5402588054025839
:105730009454025890F89830012B09D0022B07D0CE
:10574000D0F89C1041F00201C0F89C100120704775
:105750000368D3F858C01CEA010F06D1D3F85CC027
:105760004CF0010CC3F85CC008E0D3F858C031EA33
:105770000C0C26D04FF0030CC3F85CC011F4007F72
:1057800006D00368D3F8E0C04CEA020CC3F8E0C0CE
:1057900011F4806F06D00368D3F8E4C04CEA02022B
:1057A000C3F8E4200068426D21F4401323F0404325
:1057B0001A4342650648026842EA9171016000207E
:1057C0007047D3F85CC04CF0020CC3F85CC0D5E75E
:1057D00014A8004070B5044694F89800022807D039
:1057E000D4F89C0040F00800C4F89C00012070BD73
:1057F0002068D0F8C03013F07C5F0CD0D0F8C430F3
:1058000013F4001F0FD0D4F89C0040F40070C4F8CB
:105810009C00012070BDD4F89C0040F02000C4F82A
:105820009C00012070BDD0F8C400C0F304452046A0
:105830002B46FEF72DFC21680120A840C1F8D000BE
:10584000C4F89400002070BD704790F89820012A99
:1058500009D0022A07D0D0F89C1041F00201C0F80C
:105860009C1001207047CA680B6893B1072A0B6926
:1058700043EA42732ED091F808C04A6942EA8C721A
:105880004968006F00EBC100036042604FF0000008
:105890007047072A12D091F808C04FEAC2624B69DC
:1058A00043EA8C73B1F810C042EA0C4243EA0202A8
:1058B0004968C06E00EB81000260E7E70B8A4FF099
:1058C000605C8A6942EA0342CB694CEA032342EAFC
:1058D0000302EDE78A69D3E770477047F0B44FF0F1
:1058E000000C90F89840022C08D0D0F89C1041F0A1
:1058F0000801C0F89C10F0BC0120704740290DD071
:10590000412940D0046D8C4273D8D0F89C1041F0EE
:105910002001C0F89C10F0BC012070470468D4F846
:10592000A05015F4FE0F1CD0D4F8A45015F07F0F32
:1059300020D0D4F8A45015F0807F06D0D4F8A05021
:1059400015F0004F01D54FF0010CD4F8A440C4F37A
:105950000524A444456C446F05FB0CF504EB850459
:105960004DE0D0F89C1041F02001C0F89C10F0BC34
:1059700001207047D0F89C1041F48071C0F89C1051
:10598000F0BC012070470468D4F8B05015F4FE0F45
:105990001CD0D4F8B45015F07F0F20D0D4F8B450F8
:1059A00015F0807F06D0D4F8B05015F0004F01D527
:1059B0004FF0010CD4F8B440C4F30524A444C56CE2
:1059C000846F05FB0CF504EB850418E0D0F89C10FF
:1059D00041F02001C0F89C10F0BC01207047D0F8C5
:1059E0009C1041F48071C0F89C10F0BC01207047FD
:1059F000FFE7456DC46F05FB01F504EB85042568E1
:105A000005F080455560E5B3256825F060451560D3
:105A1000256805F000559560256805F0004515617D
:105A2000241D2588ADB2D5612568C5F30347D7602D
:105A3000256805F480155561256805F40015956104
:105A40002568C5F3066515622568ED0F5562251DAD
:105A50000024184EF75D002F06D92F5D1F55641CDA
:105A6000D768F75DA742F8D8402910D0412912D055
:105A70000122202913D2006802FA01F1C0F898101F
:105A800014E0FFE72568C5F38A451560C0E70068A4
:105A9000C0F8A8C00AE00068C0F8B8C006E0006816
:105AA00001F01F0102FA01F1C0F89C100020F0BCC7
:105AB0007047000098050108704700002DE9F04F7D
:105AC00083B00446BC4F38688007391D096800EA76
:105AD00081792068016D01F47041426D02EA010A8A
