:020000040800F2
:10000000D04A0024250400083194000885860008A1
:10001000DD900008DD20000809AF000800000000A6
:10002000000000000000000000000000959900089A
:10003000192D000800000000099500080D9F000818
:100040003F0400083F0400083F0400083F04000884
:100050003F0400083F0400083F0400083F04000874
:100060003F0400083F0400083F0400084123000843
:100070004D23000859230008652300087123000858
:100080007D230008892300083F040008252D00086F
:10009000312D00083F0400083F0400083F04000819
:1000A0003F0400083F0400083F0400083F04000824
:1000B0003F0400083F0400083F0400083F04000814
:1000C0003F0400083F0400083F0400083F04000804
:1000D0003F040008B5AE0008CDAE0008E5AE00084C
:1000E0003F0400083F040008000000003F0400082F
:1000F00025A2000819A200083F0400089523000863
:100100003F0400083F0400083F0400083F040008C3
:10011000B5A30008CDA300083F0400083F04000871
:10012000A1230008AD230008B9230008C523000857
:10013000D12300083F0400083F0400083F040008E2
:1001400000000000000000000000000000000000AF
:10015000DD230008E92300083F040008FDAE000885
:100160003F0400083F0400083F0400083F04000863
:100170003F0400083F0400083F0400083F04000853
:100180003F0400083F040008D9A30008F1A30008B9
:100190003F0400083F0400083F0400083F04000833
:1001A0003F0400083F0400083F0400083F04000823
:1001B0003F0400083F0400083F0400083F04000813
:1001C0003F0400083F0400083F0400083F04000803
:1001D0003F0400083F0400083F0400083F040008F3
:1001E0003F0400083F0400083F0400083F040008E3
:1001F0003F0400083F0400083F0400083F040008D3
:100200003F0400083F0400083F0400083F040008C2
:100210003F0400083F0400083F0400083F040008B2
:100220003F0400083F0400083F04000800000000ED
:100230003F0400083F040008000000003F040008DD
:100240003F0400083F0400083F0400083F04000882
:100250003F0400083F0400083F0400083F04000872
:100260003F0400083F0400083F0400083F04000862
:100270003F0400083F0400083F040008000000009D
:100280003F0400083F0400083F040008000000008D
:10029000000000003F04000800F002F800F0B2F88F
:1002A0000AA090E8000C82448344AAF10107DA45D1
:1002B00001D100F0A7F8AFF2090EBAE80F0013F071
:1002C000010F18BFFB1A43F00103184738C30000A1
:1002D00058C300000A444FF0000C10F8013B13F023
:1002E000070408BF10F8014B1D1108BF10F8015B8F
:1002F000641E05D010F8016B641E01F8016BF9D182
:1003000013F0080F1EBF10F8014BAD1C0C1B09D1D8
:100310006D1E58BF01F801CBFAD505E014F8016B4A
:1003200001F8016B6D1EF9D59142D6D370470000DC
:100330000023002400250026103A28BF78C1FBD8EE
:10034000520728BF30C148BF0B6070476E2900F0CC
:100350006582702900F0AF8366290BF01E8665293F
:100360000BF01B8667290BF0188661290BF01786A6
:1003700003681B0A28BF41F08001692900F012823E
:10038000642900F00F82752900F00C826F2900F0BB
:100390003C83782900F07B83E92900F0D782E429A7
:1003A00000F0D482F52900F0D182EF2900F03983E2
:1003B000F82900F07A830368DB0928BF41F0800147
:1003C000632901F08580732901F08A80E32901F017
:1003D0009580F32901F09A80002070471FB50BF03B
:1003E000D7FD01F0E5F80400002000210BF0BAFD74
:1003F000401C6060002000210BF09EFDE0601FBDEE
:1004000010B510BD01F0A7F81146FFF7E7FF0BF09C
:1004100056FD01F083F903B4FFF7F2FF03BC01F0CE
:1004200087F900000948804709480047FEE7FEE7D2
:10043000FEE7FEE7FEE7FEE7FEE7FEE7FEE7FEE794
:1004400004480549054A064B70470000ED9F000827
:1004500099020008D02A0024D04A0024D03A00246F
:10046000D03A002453EA020C00F069802DE9F04BE9
:100470004FF00006002B1FBFB3FA83F503FA05F413
:1004800024FA05F65E4012BF1643B2FA82F502FA6C
:1004900005F4C5F120051EBF22FA05FC44EA0C0450
:1004A000203556EA044C4FEA144418BF641C4FF040
:1004B00000084FF00009904271EB030C39D300297A
:1004C00019BFB1FA81F701FA07F6B0FA80F700FA1E
:1004D00007F6C7F120071EBF20FA07FC46EA0C0604
:1004E0002037B6FBF4FCA7EB0507103F07F01F0B06
:1004F000CBF120060CFA0BFB2CFA06F644BFB346F0
:100500000026202FA4BF5E464FF0000B5BEA060CCE
:1005100008BF4FF0010B19EB0B09ABFB027C48EB5A
:100520000608C01B06FB02CC0BFB03CC71EB0C01D5
:10053000C1E70B46024641464846BDE8F08B13B57D
:100540004FF000004FF00001AFF30080BDE81C4009
:10055000704700007CB51D4616460C00009001D087
:100560002044401E074B7B442A4669460190304692
:1005700000F06DF905461CB10020694600F07AF9DB
:1005800028467CBD15030000032A40F2308010F09D
:10059000030C00F0158011F8013BBCF1020F62441E
:1005A00098BF11F801CB00F8013B38BF11F8013BAF
:1005B000A2F1040298BF00F801CB38BF00F8013B5C
:1005C00011F0030300F02580083AC0F0088051F8CC
:1005D000043B083A51F804CBA0E80810F5E7121DD7
:1005E0005CBF51F8043B40F8043BAFF30080D207F6
:1005F00024BF11F8013B11F801CB48BF11F8012BC2
:1006000024BF00F8013B00F801CB48BF00F8012BE4
:10061000704710B5203AC0F00B80B1E81850203A6E
:10062000A0E81850B1E81850A0E81850BFF4F5AF92
:100630005FEA027C24BFB1E81850A0E8185044BF1C
:1006400018C918C0BDE810405FEA827C24BF51F889
:10065000043B40F8043B08BF7047D20728BF31F87D
:10066000023B48BF11F8012B28BF20F8023B48BFCE
:1006700000F8012B70474FF0000200B51346944676
:100680009646203922BFA0E80C50A0E80C50B1F1EA
:100690002001BFF4F7AF090728BFA0E80C5048BFFE
:1006A0000CC05DF804EB890028BF40F8042B08BF9C
:1006B000704748BF20F8022B11F0804F18BF00F898
:1006C000012B704770477047704710B500F0C6FAAD
:1006D000006810BD10B5044600F0C0FA046010BDFB
:1006E00070B5044685690068C10601D5302600E072
:1006F0002026C00707D070BDD4E9012130469047BD
:10070000206A401C20626D1EF6D570BD70B504468F
:1007100085690078C00707D170BDD4E90121202088
:100720009047206A401C20626D1EF6D570BD096896
:100730004A0501D540B27047C905FCD500B27047E3
:1007400009684A0501D5C0B27047C905FCD580B219
:10075000704770B50C460546012A05D028788006FA
:1007600000D5EA69002302E0012305E05B1C934207
:1007700002D2E05C0028F9D1A869E618C01AA86185
:10078000286A184428622846FFF7AAFF04E0D5E942
:10079000012114F8010B9047B442F8D32846FFF723
:1007A000B5FF70BD2DE9F04106460024106875299B
:1007B000314616A510D0FFF7BAFF002802DA4042F2
:1007C00013A507E031688A0701D512A502E04907A1
:1007D00004D511A5012401E0FFF7B2FF00210A2290
:1007E00006F1240709E0B0FBF2FCB0FBF2F302FBD8
:1007F0001C00303078541846491C0028F3D1234699
:100800002A463046BDE8F04100F071BA0000000011
:100810002D0000002B00000020000000116802687D
:10082000006A530501D508700AE0D30501D5088098
:1008300006E0130603D5C217C1E9000200E0086014
:100840000120704701694A1C02610878704700B5B1
:100850008FB0CDE901310021059105497944CDE9F9
:1008600003101146684600F031F90FB000BD0000DA
:10087000E5FFFFFF0A6802F8010B0A607047D1E943
:1008800000239A4202D2531C0B6010707047000084
:100890002DE9FF5F15468A460446DFF8AC80F84430
:1008A0000027D8E900103E46CDE9001010E03AF8E4
:1008B00016106A4602A800F02DFE411C07D02178D0
:1008C000890603D5E269391891420DD80744761C90
:1008D0002078800602D5E069B84205DDAE42E6DB4D
:1008E0003AF816000028E2D1A069C01BA06120469A
:1008F000FFF7F6FED8E90010CDE90010002017E060
:100900003AF818106A4602A800F004FEB0F1FF3F62
:1009100081460BD000250DF1080B05E0D4E901213B
:100920001BF8050090476D1C4D45F7D308F10100F9
:10093000B0428046E4DB206A384420622046FFF75C
:10094000E5FEBDE8FF9F00009EBA00002DE9F041E2
:100950008046D21D22F007020025D2E90002F529C7
:1009600015A614D0011E72F1000106DA0023D0EBA7
:10097000030063EB020211A608E0D8F800108B0711
:1009800001D50FA602E0490701D50EA601251146A3
:10099000002408F1240704E000F064F930323A55ED
:1009A000641C50EA0102F7D12B46324621464046EC
:1009B000BDE8F04100F09BB9000000002D000000F0
:1009C0002B0000002000000030B4002100F12404BE
:1009D00008E002F00705D208303542EA4372DB082E
:1009E0006554491C52EA0305F3D10468002310A2A0
:1009F000250707D5A40600D421B1C46901230DA29F
:100A0000641EC46130BC00F072B910B504462146C2
:100A10001068FFF795FE02462046BDE8104000230F
:100A2000D2E7D21D22F00701D1E90023CCE7000074
:100A30000000000030000000F0B40D4601880905F8
:100A400002D5214C7C4402E01F4C7C440E34002132
:100A500000F1240608E002F00F071209E75D42EA00
:100A600003721B097754491C52EA0307F3D1027839
:100A70000023120704D5702D06D009B102231134CA
:100A80002246F0BC00F033B901231034F8E770B50A
:100A900004460D4621461068FFF752FE02462946DD
:100AA0002046BDE870400023C6E7D21D22F00703B0
:100AB000D3E90023C0E70368126843F02003036012
:100AC0000823C3610023B7E700B900002DE9F05FF8
:100AD000894604464FF0000ADFF874B1FB44C0F8C1
:100AE00020A02046E1688847002874D0252806D039
:100AF000D4E901219047206A401C2062F1E70026DA
:100B00005F462046E16888472028054607DB312DEF
:100B100005D2781910F8200C08B10643F1E7B007A8
:100B200001D526F00406C4F81CA00027C4F818A0BC
:100B30002A2D09D028460BF07BF938B304EB87083F
:100B4000303DC8F8185019E059F8041B204604EB52
:100B500087029161E1688847012F054618D1E06955
:100B6000002820DA26F020061DE0D8F8180000EB57
:100B7000800005EB40003038C8F818002046E168D6
:100B8000884705460BF054F90028EED1012F0AD012
:100B90002E2D08D12046E16888477F1C0546022F8C
:100BA00046F02006C4DBA069002803DA404246F084
:100BB0000106A061F00701D026F010066C2D0BD0C5
:100BC000682D09D04C2D39D06A2D35D0742D35D0F3
:100BD0007A2D33D016E038E0E1682F46204688476A
:100BE000B842054609D16C2F26D04FF48060E168E9
:100BF000064320468847054604E06C2F1AD04FF480
:100C0000807006430DB3A5F14100192802D82035A4
:100C100046F400664A462946204626604E46FFF7BF
:100C200095FB80B101280BD0F61D26F0070000F1DE
:100C3000080956E74020E4E78020D8E70020D6E7FF
:100C400006F104094DE7284652E7206ABDE8F09F07
:100C500090B8000000487047702A00240048704790
:100C6000702A002430B5B0F10A024FEA900E71F1FB
:100C700000034EEA817EB0EB0E0061EB91014FEA7A
:100C8000101E4EEA017E10EB0E0041EB11114FEAEF
:100C9000102E4EEA016E10EB0E0041EB11214FEACF
:100CA000104E4EEA014E10EB0E0041EB1141401880
:100CB00041F100014FEAD00040EA41704FEAD10112
:100CC00010EB80054FEA810444EA907444EB010480
:100CD0006D1944EB0404521BA3414FF0000348BFBD
:100CE0000A3200D530BD401C41F1000130BD2DE974
:100CF000F0470D4699469246044600F124080168E3
:100D0000880604D5E06921F01001216000E001208F
:100D1000A84201DD471B00E00027A1697A1902EB18
:100D20000900081AA0612078C00602D42046FFF707
:100D3000D7FC002608E0D4E901211AF80600904704
:100D4000206A401C761C20624E45F4DB2078C006E9
:100D50000AD52046FFF7C4FC06E0D4E90121302083
:100D60009047206A401C2062381EA7F10107F4DC7E
:100D700007E0D4E9012118F805009047206A401CDB
:100D80002062281EA5F10105F3DC2046FFF7BEFC1A
:100D90002078000602D50220BDE8F0870120FBE79D
:100DA00070472DE9FF4F0C461E464FF0FF378BB0C2
:100DB000D2E90001DDF860800A908A46C1F30A5545
:100DC00005B93D46002108464FF00000BAF1000F7A
:100DD00000F4400005DA00EB80004FF4400101EA26
:100DE00050004FEA9059B9F1010F00DDB9460A9859
:100DF00050EA4A000ED044F61050A5F2FF354543A4
:100E00002F14B8F1000F1ED07542291E1EDDC9F146
:100E100000021CE0B8F1010F4FF0000001D03021BA
:100E200003E0F24305E02154401CB042FBDB3046B6
:100E30000022002121540B99C1F80880C1E900204B
:100E40000FB0BDE8F08FBD1B6D1CDEE74A4600DA2F
:100E5000694206A800F0F0FB06AB93E8070003AB7D
:100E600083E8070050460A9900F09CFC8DE80700D3
:100E7000A0F500501F3800900398002D0ADD42F2C3
:100E80001F014A460844002303A90390684600F066
:100E900005FF09E0A0F500504A461F38002303A9CA
:100EA0000390684600F00FFF8DE807000004000C77
:100EB00003D04FF0FF30410800E01046B8F1000FBA
:100EC00003D00022009215461EE0751E05D4FFF7E0
:100ED000C9FE303262556D1EF9D5B3460122084372
:100EE00002D000227F1C04E02078302801D10022AB
:100EF0007F1E002A099784D01DE0112D07DAFFF725
:100F0000B1FE303262556D1C50EA0102F5D1084342
:100F100002D00098C8B10EE00021681E05E0235CF5
:100F2000625C63542254401E491C8142F7DBAB468D
:100F3000A81B401E0990002004F80B000B98099A8A
:100F4000C0F80880C0E9002B7AE711264FF00008AE
:100F500057E72DE9F04F88460446D21D22F00701DD
:100F600091B0D1E90001CDE90A010AF0DFF90246AA
:100F70000B98C00F01D02D2007E02068810701D514
:100F80002B2002E0202101EAC000032A099001D0B1
:100F9000072A05DB03464146204600F00DFB0BE126
:100FA0002078800601D5E06900E00620B8F1650FE1
:100FB000814606D0B8F1660F18D0B8F1670F70D12E
:100FC00031E00020B9F1110F009001DB112301E0A5
:100FD00009F101030AAA01A90CA8FFF7E2FEDDE965
:100FE0000C70002609F10105834647E001204B46BD
:100FF00000904FF000470AAA01A90CA8FFF7D1FE04
:10100000DDE90DB00C995D46002610B909F101002B
:101010000D18B9EB050003D4C0F1FF3609F1010545
:10102000A5EB09002BE0B9F1010F01DA4FF001093E
:101030000020B9F1110F0090484601DD112300E0B6
:1010400003460AAA01A90CA8FFF7ABFEDDE90C7064
:101050004D4600268346207800070AD4AB4500DAC7
:101060005D4601A8012D04DD411911F8011C30294C
:1010700007D04F4502DA17F1040F04DA0120824647
:101080000FE06D1EEEE7002F02DCED1B3E4403E097
:10109000781CA84200DD7D1CB81B00F1010A4FF04E
:1010A00000472078000703D4AA4501DB4FF0FF3A40
:1010B0000021B7F1004F0DF143088DF8431024D003
:1010C00002202B23002F01DA7F422D230A21021E4A
:1010D000A0F1010000DC5FB197FBF1FC97FBF1F29E
:1010E00001FB1C7C17460CF1300C08F801CDEEE733
:1010F000A8F1010003702188090501D5452100E010
:101100006521A0F1010800F8011C09980FA9A1EBC5
:101110000807FF1D00B10120411901EBEA70A16928
:101120003844081A401EA0612078C00602D4204628
:10113000FFF7D6FA099828B1D4E901219047206A2F
:10114000401C20622078C00622D52046FFF7C8FA4E
:101150001EE0002E04DBB34502DD01A8805D00E047
:101160003020D4E901219047206A401C2062761C7F
:10117000AAF101005FEA000A0AD100F019FAC0687A
:101180000168405CD4E901219047206A401C20623C
:10119000281EA5F10105DCDC07E0D4E9012118F8DF
:1011A000010B9047206A401C2062381EA7F10107FE
:1011B000F3DC2046FFF7AAFA032011B041E6000055
:1011C0002DE9F04F04460D46D21D22F0070089B0EC
:1011D000D0E90097484639460AF0A8F80246F80FC9
:1011E00001D02D2307E02068810701D52B2302E0E1
:1011F000202101EAC0038DF820300BB1012000E06E
:101200000020032A824601D0072A04DB2946204613
:1012100000F0D2F93FE12078800601D40D2500E0EE
:10122000E569C7F30A560D2D49DA00214FEA175B2D
:1012300008464FF00000002F00F4400007DA00EBF2
:1012400080004FF4400100EBD07001EA600081158E
:10125000012901DD4FF0FF3100224FEA850CBCF17E
:10126000180F06D31346ACF118004FF08052C2405D
:1012700003E04FF4801323FA0CF30CF10C0CBCF1D7
:10128000200F04D3ACF1200C09FA0CF001E007FAAE
:101290000CF000294FF0004801DD18B90FE00ED125
:1012A00040450CD319EB02095F4121B9404502D1F9
:1012B0009F4329EA0209BBEB175F00D0761C208808
:1012C000000502D57B48784402E07A487844193812
:1012D00008AA302302F80A30037C0AF10101002E2B
:1012E0000AF1020A53546A4602DC4FF0300101E071
:1012F0004FF031014FF001088DF8001002D0A6F236
:10130000FF3603E059EA470100D06B4E002D02DCA6
:101310002178090704D54FF002082E218DF801101D
:10132000C44600210BE0C7F303433F01C35C491CE3
:101330006D1E02F80830052908F1010801DA002DB8
:10134000F1DC00210CE000EB1973491C1B786D1EC9
:10135000082902F808304FEA091908F1010801DAF2
:10136000002DF0DC21688B0602D516E0A8F10108FB
:10137000E04505DD02EB080313F8013C302BF5D006
:10138000B8F1000F09DD02EB080313F8013C2E2B26
:1013900003D1090701D4A8F10108002D05DD3E2184
:1013A00002F808106D1E08F10108407C002E02F8BA
:1013B000080008F1010804DA2D20764202F808003E
:1013C00002E02B2002F808000A214FF47A708642CE
:1013D00008F101080BDB96FBF0F3303302F808301C
:1013E00096FBF0F308F1010800FB136601E0642EA0
:1013F0000CDB642096FBF0F3303302F8083096FBE8
:10140000F0F308F1010800FB136601E00A2E06DB89
:1014100096FBF1F0303002F8080008F1010896FB65
:10142000F1F001FB1060303002F80800A16908F10A
:10143000010808EB050202EB0A00081AA0612078F7
:10144000C00602D42046FFF74BF9216A08AE01EB33
:101450000A00206204E0D4E9012116F8010B90474C
:10146000BAF1010AF7D22078C00602D52046FFF76C
:1014700037F96E4609E016F8010B3E280FD0D4E983
:1014800001219047206A401C2062B8F10108F2D285
:101490002046FFF73BF909B00320BDE8F08F206A32
:1014A0002844206203E0D4E90121302090476D1EDA
:1014B000EBD3F8E791B2000002FCFFFF10B54369DF
:1014C00013B1AFF3008001E0FFF743F9012010BD35
:1014D000127800F124010A7000224A700122EDE71F
:1014E00011684FF0FF32E9E710B5436913B1AFF36C
:1014F000008001E0FFF7CCF9012010BD128800F157
:10150000240182840022C2840122EDE711684FF099
:10151000FF32E9E770B516460C46054600F040F884
:10152000036893F80101012806D0FF2C0FD8185D3D
:1015300068B101202C7070BDD3F8070132462146F6
:1015400003F2071303442846BDE8704018474FF0E4
:10155000FF3070BD70477546FFF77CFBAE46050057
:101560006946534620F00700854618B020B5FEF7BF
:1015700067FFBDE820404FF000064FF000074FF036
:1015800000084FF0000B21F00701AC46ACE8C009A1
:10159000ACE8C009ACE8C009ACE8C0098D467047AA
:1015A00010B500F005F8001D10BD00BFB9A900007E
:1015B00000487047902A00242DE9F0411F46044658
:1015C00003260168072A01F4006004DB08B116A5B0
:1015D00005E016A503E008B115A500E015A521F06A
:1015E00010002060A069C01EA0610FB1401EA06164
:1015F0002046FFF775F84FB1D4E9012138469047EE
:10160000206A401C2062C01C206206E0206AFAE7C3
:10161000D4E9012115F8010B9047761EF8D2204637
:10162000FFF774F8BDE8F0814E414E006E616E0028
:10163000494E4600696E66002DE9F0478146164620
:101640008AB0354878440DC88DE80D00324878449A
:10165000801C03AC0DC884E80D0041F69B300844A3
:10166000372190FBF1F290FBF1F5A5F1800501FB2C
:1016700012041B3C02D56442012000E00020DFF888
:1016800098A080460027FA44AAF1BE0A0EE0E007BF
:101690000AD03246684607EB470101230AEB810175
:1016A00000F011FB8DE8070064107F1C002CEED1C8
:1016B000194F7F44AE3F19E0E80715D007EB04103F
:1016C0000DF1180A90E80E008AE80E00C068F0429A
:1016D00001D1981908903246012306A903A800F009
:1016E000F2FA03AB83E807006D10641C002DE3D110
:1016F0004FF0010332466946B8F1000F03A802D04B
:1017000000F0CCFA01E000F0DEFAC9E90001C9F806
:1017100008200AB0BDE8F087A4AF000010B5044669
:10172000AFF300802046BDE81040FEF774BE000015
:1017300001491820ABBEFEE7260002004FF0013C35
:1017400050F8042B51F8043B9A4215D1A2EB0C033C
:10175000934313EACC130BD150F8042B51F8043BFC
:101760009A4209D1A2EB0C03934313EACC13E7D0BE
:101770004FF00000704700BFD01A01BAB1FA81F1F2
:1017800001F0180122FA01F0CB40C1F12001DBB2D7
:10179000C0B2C01A2CFA01F3D11A914311EAC31155
:1017A000E6D170475FEA400C08BF91F0000F4FEAA6
:1017B0008C234FEAC12243EA51514FEA1C5018BF13
:1017C00000F5F0404FEA300018BF41F000415FEAF9
:1017D0006C5C00F02980BCF1FF3F08BF40F0804006
:1017E0007047130C06BF12044FF0100C4FF0000CA2
:1017F000130E04BF12020CF1080C130F04BF1201E8
:101800000CF1040C930F04BF92000CF1020CD30FE7
:1018100004BF52000CF1010C11464FF00002A0F180
:101820001F00A0EB0C00704711F0004F08BF70477D
:1018300031F000413FF4D5AF0B0C06BF09044FF067
:10184000100C4FF0000C0B0E04BF09020CF1080C39
:101850000B0F04BF09010CF1040C8B0F04BF8900AE
:101860000CF1020CCB0F04BF49000CF1010CCCF1C0
:101870002003A0EB0C0022FA03F302FA0CF241EA77
:10188000030100F10100704720F07F4C80EA030063
:1018900023F07F47ACEB070303F57C5300F00040D7
:1018A00003F1FF032DE980494FEA154B09B44FEAD4
:1018B000144325EA0B4E24EA03480FF2042606EBF4
:1018C000132749083E785FEA320203FB0667C7F533
:1018D000000707FB06F64FEA54374FEAD64606F1F3
:1018E000020607FB066CCCF1005C4FEA1C472CEAB1
:1018F000074C07FB06F40CFB06F504EB15464FEA14
:10190000961634BF00204FF000404FEAD13706FB57
:1019100007FC4FEA1C4C0CFB0BF7D21B03FB0CF72C
:1019200061EB07010CFB0EF7B0EB074072EB1742BF
:101930000CFB08F734BFA2EB0742B2EB074261EBA6
:1019400017414FEA0C444FEA910706FB07FC4FEAA8
:101950001C4C0CFB0BF7B0EBC74072EB573203FB90
:101960000CF734BFA2EBC742B2EBC74261EB573171
:101970000CFB0EF7B0EBC70072EB57720CFB08F7CD
:1019800034BFA2EBC702B2EBC70261EB5771039FF2
:101990004FEA816141EA921104EBCC044FEAD1375E
:1019A0004FEA826206FB07FC42EA90124FEA80602F
:1019B0004FEA1C4C0CFB0BF7D21B03FB0CF761EB43
:1019C00007010CFB0EF7B0EB074072EB17420CFB64
:1019D00008F734BFA2EB0742B2EB074261EB1741B5
:1019E0004FEA8C554FEA910704EB9C2406FB07FC59
:1019F0004FEA1C4C0CFB0BF7B0EBC74072EB5732B5
:101A000003FB0CF734BFA2EBC742B2EBC74261EB5A
:101A100057310CFB0EF7B0EBC70072EB57720CFBA3
:101A200008F734BFA2EBC702B2EBC70261EB5771F4
:101A300015EB4C254FEA816141EA92114FEA82622F
:101A40004FEAD13742EA901206FB07FC44F100044A
:101A50004FEA80604FEA1C4C0CFB0BF7D21B03FBD8
:101A60000CF761EB07010CFB0EF7B0EB074072EBD4
:101A700017420CFB08F734BFA2EB0742B2EB074258
:101A800061EB174115EB1C154FEA813141EA924198
:101A90004FEA823242EA90424FEA80304FEA0C76B7
:101AA00044F1000448EA03434EEA0B484FF0000EAD
:101AB000B2EB080C71EB030724BF624639464EEBCC
:101AC0000E0E4FF0000B0018524149414BEB0B0B2F
:101AD000B2EB080C71EB03077BF1000B24BF6246ED
:101AE00039464EEB0E0E4FF0000B001852414941A3
:101AF0004BEB0B0BB2EB080C71EB03077BF1000B0C
:101B000024BF624639464EEB0E0E51EA020718BF5B
:101B100046F0010616EB0E7655F1000254F1000175
:101B200003D5BDE88901BDE80088BDE88901BDE8AD
:101B30000048B619524141EB0101A3F1010370477E
:101B400080807F7E7D7C7B7A7978777676757473FA
:101B5000727171706F6E6E6D6C6C6B6A6A696868B9
:101B6000676666656464636362616160605F5F5E4F
:101B70005E5D5D5C5C5B5B5A5A59595858575756C5
:101B8000565555555454535352525251515050502A
:101B90004F4F4F4E4E4D4D4D4C4C4C4B4B4B4A4A7C
:101BA0004A494949484848474747474646464545C0
:101BB00045444444444343434342424242414141F9
:101BC000002B9C4630D477002BD01CB54FEA37074A
:101BD00003B44FF010004FF01001BAF1000F06D01F
:101BE000BCF1000FDCBF40F0080040F008014FF0EE
:101BF00000000FBCBDE810400BF1010BBBF1010F61
:101C000008BF5FEA170722BF12F1010211F10101BB
:101C10004FF0004143F1000300F0004043EA0000B0
:101C20007047F9D35708D0E746EA064613F1400F4C
:101C30004FEA16461FDD13F1200FDFBF16430A4699
:101C4000002120335B42BED0C3F1200746EA06469E
:101C500002FA07F74FEA164646EA0706C3F12007DD
:101C600022FA03F201FA07F721FA03F14FF0000319
:101C700042EA0702A7E746EA020646EA06464FEAB4
:101C8000164646EA0106BCBF46EA0646360C4FF049
:101C900000034FF000024FF0000194E72DE9804C63
:101CA0009A46934670B491E8380007C831EA400C70
:101CB00048BF34EA430C03D5FFF7E6FDFFF780FF8A
:101CC000F0BCBDE8008C2DE9804C9A46934670B478
:101CD00091E8380007C810F0804F08BF13F0804F1C
:101CE00003D100F005F8FFF76BFFF0BCBDE8008CF6
:101CF00020F07F4780EA030023F07F4C07EB0C03C2
:101D0000A3F57C5300F00040A3F1FE0392F0000F16
:101D100000F0B38095F0000F00F077802DE90149C5
:101D20004FEA11404FEA144621EA004800FB06FC46
:101D300024EA064708FB06F607FB08F800FB07F74E
:101D400018EB06484CEB164C4FEA124B18EB0748C1
:101D50004FEA15464CEB174022EA0B4E0BFB06FCF4
:101D600025EA06470EFB06F607FB0EFE0BFB07F700
:101D70001EEB064E4CEB164C4FF000061EEB074ECA
:101D80004CEB174B18EB0B0840F1000018EB0E0B57
:101D900058EB000840F100008F1A4FF000013CBFE3
:101DA000C943661B14BFB5EB040C00213CBFC943FB
:101DB000F61B4FEA17444EEA8E0E27EA04454FEA17
:101DC0001C4704FB07622CEA074C05FB07F70CFBDA
:101DD00005F604FB0CFC16EB074642EB174216EB2C
:101DE0000C4642EB1C421BEB060658EB020241413B
:101DF00046EA9E0601D5BDE80189B619524141EB7C
:101E00000101A3F10103BDE801894FEA14454FEA3E
:101E1000114724EA054621EA074C05FB07F406FBB7
:101E200007F70CFB06F105FB0CFC11EB074144EB3B
:101E300017444FEA124711EB0C4144EB1C4422EAD1
:101E4000074C05FB07F206FB07F70CFB06F605FB44
:101E50000CFC16EB074642EB174216EB0C4642EB26
:101E60001C456A1854F1000148BF7047B619524129
:101E700041EB0101A3F10103704795F0000F37D04A
:101E80004FEA11424FEA144721EA024624EA074C7E
:101E900002FB07F106FB07F70CFB06F402FB0CFC48
:101EA00014EB074441EB17414FEA154714EB0C4480
:101EB00041EB1C4125EA074C02FB07F506FB07F73F
:101EC0000CFB06F602FB0CFC16EB074645EB174530
:101ED00016EB0C4645EB1C42121951F1000148BFAC
:101EE0007047B619524141EB0101A3F1010370475C
:101EF0004FEA14454FEA114724EA054621EA074C08
:101F000005FB07F106FB07F70CFB06F24FF0000696
:101F100005FB0CFC12EB074241EB174112EB0C42A4
:101F200051EB1C4148BF7047921841EB0101A3F1EE
:101F30000103704770EE600AC0ED030A90ED000ADD
:101F400020EE800A80ED050A90ED061AD0ED011A08
:101F500000EEA11A80ED061AD0ED081AB0EEE01AD4
:101F6000B4EEE11AF1EE10FA03DD9FED0C1A80EDEC
:101F7000061A90ED091AD0ED021A30EEC11A21EEC0
:101F8000C11A80ED071AD0ED061A30EE210A30EEA4
:101F9000010A80ED0A0AC0ED090A7047000000003E
:101FA00030EE600A234ADFED240A10EE101A80EDAD
:101FB000030A914202DD30EE600A06E010EE101ACC
:101FC0001E4A914203D930EE200A80ED030AF0EE5A
:101FD000400A90ED000A20EE800A80ED050A90ED9F
:101FE000061AD0ED011A00EEA11A80ED061AD0ED06
:101FF000081AB0EEE01AB4EEE11AF1EE10FA03DDC1
:102000009FED0F1A80ED061A90ED091AD0ED021A15
:1020100030EEC11A21EEC11A80ED071AD0ED061A72
:1020200030EE210A30EE010A80ED0A0AC0ED090AFD
:1020300070470000000034430000B443000034C384
:1020400000000000C0ED081A80EC030A9FED040AAE
:1020500080ED050A80ED060A80ED070A7047000052
:102060000000000030EE600A80ED030AD0ED000AA7
:1020700020EE201A80ED051AD0ED060AD0ED011AE7
:1020800040EE210AC0ED060AD0ED081AF0EEC00AB3
:10209000F4EEE10AF1EE10FA03DDDFED0F0AC0ED18
:1020A000060AD0ED090AD0ED021A70EE600A61EE60
:1020B000E00AC0ED070AD0ED061A31EE211A71EEE2
:1020C000200AC0ED0A0A80ED090ABDEEE00A10EE12
:1020D000100A00B27047000000000000FEE7000098
:1020E00010B58AB004460146084807F0C9F8242212
:1020F000684604F10C01FEF78CFA94E80E000448DF
:1021000000F0B6FC0AB0002010BD0000180000244A
:10211000FC1800240146034810B507F0B1F8002070
:1021200010BD00002800002410B588B0044602212C
:1021300000200090CDE901010121CDE903100590B7
:102140006946206802F07FFA20680022012102F02F
:10215000EFF9206802F03FFF08B010BD50F8042FDF
:102160005160C1E900200160704700B500230A6892
:1021700089B0CDE900230822049305930693CDE9A5
:1021800002320A1D079308936946006802F020FA9C
:1021900010B1002009B000BD0120FBE770B5204E52
:1021A00039990E9AA1F20124251FC2F30723B042E8
:1021B000D2B208D1032C01D81A480BE0032D2DD838
:1021C00018480C3013E0184EB04227D1032C0AD81F
:1021D00014483C3000EB4100A0F5805080F8023CF0
:1021E00080F8032C1AE0032D0AD80E48483000EB83
:1021F0004100A0F5805080F8FA3B80F8FB2B0DE001
:10220000A1F20920022809D80648543000EB410009
:10221000A0F5805080F8F23B80F8F32B002070BDD1
:102220008C010024BC0000242C02002470B52D4E2B
:1022300039990E9AA1F205252C1FD3B2B042C2F3F0
:1022400007221CD1032D0BD8274800EB4100A0F535
:10225000805080F8FA2B80F8FB3B234818301FE0B1
:10226000022C3CD820480C3000EB4100A0F58050F7
:1022700080F8F22B80F8F33B1B48243027E01B4EFC
:10228000B0422CD1032D14D817483C3000EB41004C
:10229000A0F5805080F8FA2B80F8FB3B12485430B0
:1022A00000EB4100A0F5805080F8FA2B80F8FB3B52
:1022B00015E0022C13D80C48483000EB4100A0F583
:1022C000805080F8F22B80F8F33B0748603000EB39
:1022D0004100A0F5805080F8F22B80F8F33B0020FD
:1022E00070BD00008C010024C80000242C020024D2
:1022F000028842810A8D52BA02814B8D5BBA4380BB
:102300008B8D5BBA838091F82E1081710280002042
:1023100070470000074B02689A4202D1064AD1601A
:102320001060064B02689A4203D1034A1032D16012
:102330001060704700A000401800002400A4004076
:10234000014801F0CBB90000EC0C0024014801F079
:10235000C5B900000C0B0024014801F0BFB9000012
:10236000640D0024014801F0B9B90000DC0D00241F
:10237000014801F0B3B90000540E0024014801F0F7
:10238000ADB90000CC0E0024014801F0A7B900004F
:10239000440F0024014801F0A1B90000BC0F002443
:1023A000014801F09BB900002C090024014801F00C
:1023B00095B90000A4090024014801F08FB900007C
:1023C000840B0024014801F089B900001C0A002494
:1023D000014801F083B90000940A0024014801F08B
:1023E0007DB90000FC0B0024014801F077B9000022
:1023F000740C0024264A016891422CD0254A91424F
:1024000029D0254A914226D0244A914223D0244AF9
:10241000914220D0234A91421DD0234A91421AD0A2
:10242000224A914217D0224A914214D0214A914225
:1024300011D0214A91420ED0204A91420BD0204A1D
:10244000914208D01F4A914205D01F4A914202D0C2
:102450001E4A914217D11E4BCAB2103AA3FB023258
:102460001209DFF870C002F007031CF80330C365DF
:10247000032A04D96FF30901091D816506E06FF392
:102480000901816502E021F0FF018165806D7047DF
:102490001000024028000240400002405800024064
:1024A0007000024088000240A0000240B8000240D4
:1024B0001004024028040240400402405804024034
:1024C0007004024088040240A0040240B8040240A4
:1024D000ABAAAAAA10C0000801680123DFF894C0C3
:1024E000CAB261451BD0DFF890C0614517D0DFF854
:1024F0008CC0614513D0DFF888C061450FD0DFF88C
:1025000084C061450BD0DFF880C0614507D0DFF89B
:102510007CC0614503D0DFF878C0614511D1A2F1DC
:1025200008011C4AA2FB012109091B4A02EB810296
:1025300002661A4A426601F01F0103FA01F1816640
:102540007047DFF85CC0103AACFB02C21209DFF83A
:1025500054C06144A82900D80832134901EB820114
:1025600001661249416602F01F0103FA01F181661A
:1025700070470000085402581C5402583054025846
:1025800044540258585402586C540258805402580B
:1025900094540258CDCCCCCC0058025880580258E4
:1025A000ABAAAAAAF0FBFDBF0008024080080240C7
:1025B00001794A1E072A28D8144B0168994214D081
:1025C000134B994211D0134B99420ED0124B9942A2
:1025D0000BD0124B994208D0114B994205D0114BA8
:1025E000994202D0104B994206D1104901EB820169
:1025F000C1660F49016705E00E4901EB8201C16622
:102600000D49016701219140416770470854025804
:102610001C5402583054025844540258585402581A
:102620006C5402588054025894540258005902586D
:10263000405902580009024040090240014600206A
:102640008B698A6A002B0FD0B3F5005F1DD08AB367
:10265000012A30D0022A2ED0032A04D1C96A11F0EF
:10266000807F00D0012070471AB1012A07D0022ACA
:10267000F9D1C96A11F0807FF5D001207047C96A8D
:10268000B1F1C07FFAD1012070475AB1012A0BD0B5
:10269000022A07D0032AF7D1C96AB1F1C07FF3D16A
:1026A0000120704701207047C96A11F0807FFAD07D
:1026B00001207047FFE70120704700002DE9F04F2F
:1026C000846D794ED0F800C0784FDFF8E481B445CE
:1026D000DFF8E091DFF8E0A1DFF8E0B1784D4FD00E
:1026E000BC454DD0C4454BD0CC4549D0D44547D04E
:1026F000DC4545D0DFF8CCE1F44541D0AC453FD0D6
:10270000DFF8C4E1F4453BD0DFF8C0E1F44537D051
:10271000DFF8BCE1F44533D0DFF8B8E1F4452FD061
:10272000DFF8B4E1F4452BD0DFF8B0E1F44527D071
:10273000DFF8ACE1F44523D0DFF8A8E1F4451FD081
:10274000DFF8A4E1F4451BD0DFF8A0E1F44517D091
:10275000DFF89CE1F44513D0DFF898E1F4450FD0A1
:10276000DFF894E1F4450BD0DFF890E1F44507D0B1
:10277000DFF88CE1F44503D0DFF888E1F44510D1AF
:10278000D0F864E0D0F868C0CEF804C0D0F86CC0CF
:10279000BCF1000F05D0D0F870E0D0F874C0CEF8CE
:1027A00004C0D0F800C0B44526D0BC4524D0C445F0
:1027B00022D0CC4520D0D4451ED0DC451CD0414E83
:1027C000B44519D0AC4517D03F4DAC4514D03F4D62
:1027D000AC4511D03E4DAC450ED03E4DAC450BD076
:1027E0003D4DAC4508D03D4DAC4505D03C4DAC45CC
:1027F00002D03C4DAC4523D190F85CC03F250CF095
:102800001F0C05FA0CFCC4F808C0D0F800C0DCF8B6
:10281000004024F48024CCF80040D0F800C0CCF86C
:1028200004308368402B05D0036899600068C2605B
:10283000BDE8F08F03689A600068C160BDE8F08F62
:10284000294DAC4514D0294DAC4511D0284DAC458F
:102850000ED0284DAC450BD0274DAC4508D0274DA8
:10286000AC4505D0264DAC4502D0264DAC45E5D152
:1028700090F85CC001250CF01F0C05FA0CFCC4F8A4
:1028800004C0D0F800C0CCF804308368402B05D0D9
:10289000036899600068C260BDE8F08F03689A60C1
:1028A0000068C160BDE8F08F1000024028000240BF
:1028B0004000024058000240700002408800024080
:1028C000B8000240A0000240100402402804024068
:1028D0004004024058040240700402408804024050
:1028E000A0040240B8040240085402581C54025884
:1028F0003054025844540258585402586C540258E8
:102900008054025894540258028001F5807280F875
:102910009430C16181620264FC22416301F500715F
:10292000C16440F2FE318165FF2180F8201080F8FB
:10293000211080F8221080F8231080F8241080F8ED
:10294000251080F8261080F8272080F82C1080F8B9
:102950002D1080F82E1080F82F1080F8301080F89D
:10296000311080F83210FD2180F8331070470000DC
:1029700070B5044610202DED048BF0EE419AB0EEB8
:10298000608AF0EE428AB0EE619AB2EE091AFAEE6F
:10299000090A09F078FA264DB3EE0E1AFBEE0E0A7C
:1029A000B0EE480A28800C2009F06DFA9FED228ACB
:1029B0009FED201AB0EE690AF0EE480A68800C20FC
:1029C00009F061FAB1EE041AF0EE480AB0EE490AD5
:1029D000A8800C2009F057FAB2EE041AFAEE040AA5
:1029E000B0EE680AE8800C2009F04DFA28812988A9
:1029F0000A0A84F8382084F8391069880A0984F8AA
:102A00003A200A01A98842EA112284F83B2084F87E
:102A10003C10E9880A0984F83D20090141EA1021A7
:102A200084F83E1084F83F00BDEC048B70BD0000BC
:102A3000480100240000FA43000000001FB5069979
:102A400091F8940050B101280BD002280CD0032833
:102A500003D158316846FFF788FB1FBD3431684603
:102A6000F9E740316846F6E74C316846F3E7000085
:102A70000FB470B5044690F8940018B1012801D045
:102A800002283FD12188059888423BD19DF83C001F
:102A90001E4DF2EE090A0009E071BDF83D00BAEEE4
:102AA000090A40BA6881BDF83F1049BA0909A981ED
:102AB0009DF840209DF8411002F00F0241EA0221EA
:102AC000E981102109F024FA84ED060AA8890C2175
:102AD000DFED0F0A9FED0F0A09F01AFA84ED040AE0
:102AE000E8890C21F3EE020ABBEE020A09F010FAA3
:102AF00084ED030A94ED060ADFED070A20EE200AB2
:102B000084ED020A70BC5DF814FB0000480100244B
:102B100000003442000034C2CC2E65421FB5684626
:102B200006992831FFF721FB1FBD1FB5684606999E
:102B30001C31FFF71AFB1FBD4FF48061418081807B
:102B40000322C18001818272C2720180322101821E
:102B5000704700000146034800B500F005F800206A
:102B600000BD0000B02300244A4A4B4BF0B50026BC
:102B700016829A8901254FF4A567521C9A818573A4
:102B800032460B88C3F30A04A4F5B673BB4200D8DF
:102B900001224B784FEAD30C8B784CEA431CCCF3E0
:102BA0000A0CACF5B67CBC4500D8521C91F803C0A9
:102BB0009B0943EA8C0C0B794CEA832CCCF30A0C6E
:102BC000ACF5B67CBC4500D8521C4FEA530C4B798F
:102BD0004CEAC31CCCF30A0CACF5B67CBC4500D85F
:102BE000521CB5EB931F07D00225B5EB931F03D002
:102BF0000325B5EB931F00D1521CC3F30115012D22
:102C000005D0022D03D06FEA13139B0700D1521C8D
:102C1000062A3CD14480A4F2FD344A788B78D2084D
:102C200042EA4312C2F30A0282808B78CD789B0974
:102C300043EA85030D7943EA8523C3F30A03C3807E
:102C40000D794F796D0845EAC715C5F30A05058169
:102C50004F79BF0987724F79072CC7F30117C772E5
:102C6000098AC1F30A0101804FF4806100D24180DA
:102C7000A2F2FD32072A00D28180A3F2FD33072B96
:102C800000D2C180A5F2FD35072D00D201818673E7
:102C9000F0BD0000B0230024982300240A4808B5A2
:102CA000017800290ED10121017008494A6800927B
:102CB00043699A4202D20269521C02614968416129
:102CC0000021017008BD000038000024001000E061
:102CD0000D490A6842F080720A600C4900224A607D
:102CE0000B6843F001030B6009494FF47A734843C2
:102CF0000849B0FBF3F3C1E90103054BB0FBF3F066
:102D0000C1E90302FFF7CABFFCED00E0001000E0DC
:102D100040420F00380000247047C0E9001270479D
:102D200072B6FEE7014801F0C7BD00008C01002427
:102D3000014801F0C1BD00002C020024416B026873
:102D4000D2F884306FF38F0343EA8103C2F88430F2
:102D50000268D2F88430B0F838C023F47F0343EA25
:102D60000C43C2F88430826B11440268D2F8883078
:102D70006FF38F0343EA8103C2F888300268D2F808
:102D80008830B0F83CC023F4FE0343EA0C43C2F899
:102D90008830C26B01EB42010268D2F8A0306FF3B9
:102DA0008F0343EA8103C2F8A0300268D2F8A03052
:102DB000B0F840C023F4FE0343EA0C43C2F8A0304D
:102DC000436C026C02FB03110268D2F8B0306FF35F
:102DD0008F0343EA8103C2F8B0300268D2F8B03002
:102DE000B0F848C023F4FE0343EA0C43C2F8B03005
:102DF000C36C826C02FB03110268D2F8AC306FF333
:102E00008F0343EA8103C2F8AC30436D026D02FBCD
:102E100003110268D2F8F0306FF38F0343EA8103A5
:102E2000C2F8F0300268D2F8F030B0F858C023F49D
:102E30007C1343EA0C43C2F8F030826D01EB42028E
:102E40000168D1F8C0306FF38F0343EA8202C1F802
:102E5000C0200168D1F8C020B0F85C3022F47C12A8
:102E600042EA0342C1F8C0200168D1F8C02090F8BE
:102E7000603022F07C5242EA0362C1F8C020416B0C
:102E8000294A02EB8101C166826B01EB8202026773
:102E9000C36B02EBC3024267D0F844C0036C03FB70
:102EA0000CF302EB83028267D0F84CC0836C03FB07
:102EB0000CF302EB8302C267D0F854C0036D03FB2E
:102EC0000CF302EB8302C0F88020836D02EBC30396
:102ED000C0F88430D0F85CC0826E0CFB02FC03EBBF
:102EE0008C03C0F88830D0F860C00CFB02F203EB12
:102EF0008202C0F890200D4B9A420AD9D0F89C105B
:102F000041F02001C0F89C10032180F898100120A6
:102F100070478A4206D900220A60091DD0F8903015
:102F20008B42F9D80020704700AC0040FCD3004031
:102F300070B4D1F808C00C694D6844EA0C0C0C68F8
:102F4000002D40D044F080444CEA040C8D69CC69DB
:102F500091F820602C434D6945EA06652C438D8924
:102F600044EA0544D0F88450806E00FB03F005EB82
:102F70008000C0F800C0001D0460031D0020134C39
:102F8000D1F80CC014F80CC0BCF1000F19D902EB39
:102F9000000C155C9CF8036045EA06659CF802602D
:102FA0009CF801C0360446EA0C2C45EA0C0CC3F828
:102FB00000C01B1D001DD1F80CC014F80CC08445C6
:102FC000E5D870BC70474CEA844CBFE7B4BF00083A
:102FD00081898180C189C180018A0180418A4180C3
:102FE000818A0181C18A4181002141828181C1811F
:102FF00001828182C18206F0FFB900001649884231
:1030000001D1164870471649884202D11348D4307E
:1030100070471449884201D11348704713498842C8
:1030200002D11148D43070471149884201D111486A
:1030300070471149884202D10E48D43070470F4979
:10304000884201D10E4870470E49884202D10C488F
:10305000D430704700207047DC0600243410002470
:103060007007002404080024DC1100248C040024D0
:10307000200500248413002498080024B4050024AB
:103080002C1500244806002410B558B1084C491EE0
:103090000BD310F8013B5340DBB234F8133083EA12
:1030A0001222F4E74FF6FF7010BD104610BD00006D
:1030B00040C1000810B5054C03E010F8013B534037
:1030C000E25C491EF9D2104610BD000040C0000865
:1030D0002DE9F84F044602F0A9F800905CB194F88D
:1030E000350002280AD080206065002084F8340072
:1030F0000120BDE8F88F0120BDE8F88FB6492068AF
:10310000B64EB74F8842DFF8DC82DFF8DC92DFF89A
:10311000DCA2DFF8DCB226D0B04224D0B84222D004
:10312000404520D048451ED050451CD058451AD0A7
:10313000B04A904217D0B04A904214D0AF4A904261
:1031400011D0AF4A90420ED0AE4A90420BD0AE4A58
:10315000904208D0AD4A904205D0AD4A904202D08C
:10316000AC4A90420AD1026822F01E020260206836
:10317000426922F080024261256804E0026822F080
:103180000E0202602568206888423ED0B0423CD0E2
:10319000B8423AD0404538D0484536D0504534D072
:1031A000584532D0934A90422FD0934A90422CD027
:1031B000924A904229D0924A904226D0914A904217
:1031C00023D0914A904220D0904A90421DD0904AFC
:1031D00090421AD08F4A904217D08F4A904214D012
:1031E0008E4A904211D08E4A90420ED08D4A904223
:1031F0000BD08D4A904208D08C4A904205D08C4A20
:10320000904202D08B4A904204D1206E026822F490
:103210008072026070492068884226D0B04224D073
:10322000B84222D0404520D048451ED050451CD041
:1032300058451AD06F49884217D06F49884214D038
:103240006E49884211D06E4988420ED06D4988423D
:103250000BD06D49884208D06C49884205D06C4932
:10326000884202D06B49884204D1016821F00101F3
:10327000016003E0016821F001010160286810F09D
:10328000010F14D001F0D2FF0099401A05280AD985
:1032900020206065032084F83500002084F8340085
:1032A0000120BDE8F88F286810F0010FEAD14A4AE2
:1032B00001212068904226D0B04224D0B84222D0CA
:1032C000404520D048451ED050451CD058451AD006
:1032D000484B984217D0484B984214D0474B9842DD
:1032E00011D0474B98420ED0464B98420BD0464BDC
:1032F000984208D0454B984205D0454B984202D0A1
:10330000444B98420AD1A06D4FF03F0C94F85C30CA
:1033100003F01F030CFA03F3836007E0A06D94F839
:103320005C3003F01F0301FA03F34360206890420E
:103330003ED0B0423CD0B8423AD0404538D0484563
:1033400036D0504534D0584532D02A4A90422FD0FA
:10335000294A90422CD0294A904229D0284A9042AA
:1033600026D0284A904223D0274A904220D0274A8C
:1033700090421DD0264A90421AD0264A904217D039
:10338000254A904214D0254A904211D0244A9042B6
:103390000ED0244A90420BD0234A904208D0234AB0
:1033A000904205D0224A904202D0224A90420BD14C
:1033B000626EA06E5060E06E30B1026822F48072DE
:1033C0000260226F606F506084F83510002084F82E
:1033D0003400BDE8F88F00001000024028000240D1
:1033E0004000024058000240700002408800024045
:1033F000A0000240B800024010040240280402402D
:103400004004024058040240700402408804024014
:10341000A0040240B8040240085402581C54025848
:103420003054025844540258585402586C540258AC
:1034300080540258945402582DE9F05F002808D0B7
:1034400090F83510022907D0802141650120BDE8A0
:10345000F09F0120BDE8F09FDFF81CE20168874B78
:10346000DFF81CC27145874C874D884E884FDFF8C6
:103470002482DFF82492DFF824A2DFF824B2894AFC
:1034800025D0994223D0614521D0A1421FD0A94225
:103490001DD0B1421BD0B94219D0DFF80CE2714502
:1034A00015D0DFF808E2714511D0DFF804E271456C
:1034B0000DD041450BD0494509D0DFF8F8E1714501
:1034C00005D0514503D0594501D0914232D14FF03A
:1034D000040E80F835E06848814221D099421FD01F
:1034E00061451DD0A1421BD0A94219D0B14217D0CD
:1034F000B94215D06C48814212D06C4881420FD03D
:103500006B4881420CD041450AD0494508D06948F2
:10351000814205D0514503D0594501D0914204D193
:10352000086820F001000860A3E0086820F00100AE
:1035300008609EE0D1F800E02EF00E0EC1F800E029
:10354000DFF834E10168714525D0994223D0614507
:1035500021D0A1421FD0A9421DD0B1421BD0B942F7
:1035600019D0DFF844E1714515D0DFF840E171452D
:1035700011D0DFF83CE171450DD041450BD04945F4
:1035800009D0DFF830E1714505D0514503D05945E8
:1035900001D0914206D1D1F800E02EF0010EC1F821
:1035A00000E005E0D1F800E02EF0010EC1F800E0E7
:1035B000DFF8C4E00168714539D0994237D06145E0
:1035C00035D0A14233D0A94231D0B1422FD0B94237
:1035D0002DD0354B99422AD0344B994227D0344BC9
:1035E000994224D0414522D0494520D0314B9942BF
:1035F0001DD051451BD0594519D0914217D02E4AA4
:10360000914214D02D4A914211D02D4A91420ED0B0
:103610002C4A91420BD02C4A914208D02B4A91421D
:1036200005D02B4A914202D02A4A914218D1016E0C
:103630000A6822F480720A60816D90F85C2002F0C2
:103640001F0301229A404A60426E816E5160C16E32
:1036500031B10A6822F480720A60026F416F5160D2
:10366000012180F83510002180F83410016D01B17E
:1036700088470020BDE8F09F10000240280002406B
:1036800040000240580002407000024088000240A2
:10369000A000024040040240580402408804024056
:1036A000A0040240B8040240B800024010040240E6
:1036B0002804024070040240085402581C54025866
:1036C0003054025844540258585402586C5402580A
:1036D0008054025894540258406D70472DE9F04FC1
:1036E00083B00446002002904FF41651FD48006854
:1036F000B0FBF1F00190A56D2E682968FA4F2068A3
:10370000DFF8E8A3DFF8E8B3B842DFF8E883DFF8D2
:10371000E8932DD0524690422AD05A46904227D064
:10372000404525D0484523D0F44A904220D0F44A61
:1037300090421DD0F34A90421AD0F34A904217D0DB
:10374000DFF8C8C3604513D0F14A904210D0DFF8CB
:10375000C4E370450CD0F04A904209D0EF4A904241
:1037600006D0EF4A904203D0EE4B984240F04082A0
:1037700094F85C10082201F01F0102FA01F13142B5
:1037800041D0B84228D0504526D0584524D0404595
:1037900022D0484520D0D94988421DD0D8498842F6
:1037A0001AD0D849884217D0D749884214D0D7496F
:1037B000884211D0D64988420ED0D64988420BD0D3
:1037C000D549884208D0D549884205D0D449884295
:1037D00002D0D449884203D1016801F0040102E01B
:1037E000016801F0080171B1016821F00401016074
:1037F00094F85C0000F01F0002FA00F0A860606D11
:1038000040F00100606594F85C0000F01F010120A9
:1038100000FA01F1314234D02068B84228D0504536
:1038200026D0584524D0404522D0484520D0B34A20
:1038300090421DD0B24A90421AD0B24A904217D05C
:10384000B14A904214D0B14A904211D0B04A90424D
:103850000ED0B04A90420BD0AF4A904208D0AF4A47
:10386000904205D0AE4A904202D0AE4A90427DD1FD
:10387000406910F0800F04D0A960606D40F0020034
:10388000606594F85C0000F01F01042000FA01F16B
:10389000314234D02068B84228D0504526D058450F
:1038A00024D0404522D0484520D0944A90421DD093
:1038B000934A90421AD0934A904217D0924A90422B
:1038C00014D0924A904211D0914A90420ED0914A1F
:1038D00090420BD0904A904208D0904A904205D036
:1038E0008F4A904202D08F4A904245D1006810F032
:1038F000020F04D0A960606D40F00400606594F888
:103900005C0000F01F01102000FA01F1314259D093
:103910002068B84228D0504526D0584524D040458C
:1039200022D0484520D0754A90421DD0744A90421A
:103930001AD0744A904217D0734A904214D0734AF6
:10394000904211D0724A90420ED0724A90420BD0EF
:10395000714A904208D0714A904205D0704A904214
:1039600002D0704A904209D1006800E002E000F005
:10397000080006E0006884E70068C0E7006800F01F
:103980000400F8B1A9602068016811F4802F0DD0FF
:10399000006810F4002F04D0A16C99B1204688472C
:1039A00010E0216C71B1204688470BE0016811F4EA
:1039B000807F03D1016821F008010160216C09B109
:1039C0002046884794F85C0000F01F01202000FA90
:1039D00001F131426FD02068B84228D0504526D03E
:1039E000584524D0404522D0484520D0434A9042F3
:1039F0001DD0434A90421AD0424A904217D0424AC0
:103A0000904214D0414A904211D0414A90420ED087
:103A1000404A90420BD0404A904208D03F4A9042E0
:103A200005D03F4A904202D03E4A904203D10068FE
:103A300000F0100002E0006800F00200D8B3A960B6
:103A400094F8350004280DD02068016811F4802F07
:103A500037D0006810F4002F2ED0E16B59B3204608
:103A6000884764E02068016821F016010160206841
:103A7000416921F080014161206C08B9A06C20B13E
:103A80002068016821F00801016094F85C003F2182
:103A900000F01F0001FA00F0A860012084F8350052
:103AA000002084F83400216D00297BD003B020462B
:103AB000BDE8F04F084737E0616CA9B3204688475E
:103AC00035E0016811F4807F09D1016821F010010F
:103AD0000160012084F83500002084F83400E16B97
:103AE00011B322E00400002410000240280002402C
:103AF000400002405800024070000240880002402E
:103B0000A0000240B8000240100402402804024015
:103B100040040240580402407004024088040240FD
:103B2000A0040240B804024001E020468847606DCE
:103B3000002837D0606D10F0010F51D0042084F8B8
:103B400035002068B84228D0504526D0584524D0AA
:103B5000404522D0484520D0AB4988421DD0AB49D2
:103B600088421AD0AA49884217D0AA49884214D05C
:103B7000A949884211D0A94988420ED0A849884253
:103B80000BD0A849884208D0A749884205D0A74948
:103B9000884202D0A649884205D1016821F001017E
:103BA000016004E096E0016821F0010101602168F4
:103BB0000298019A401C0290904203D8086810F0C5
:103BC000010FF5D1086810F0010F03D0032084F82D
:103BD000350002E0012084F83500002084F834002C
:103BE000E16C002976D003B02046BDE8F04F0847CD
:103BF000904B984214D0904B984211D08F4B9842E2
:103C00000ED08F4B98420BD08E4B984208D08E4BE3
:103C1000984205D08D4B984202D08D4B984259D195
:103C200003684FF0040A94F85C6006F01F060AFA75
:103C300006FA1AEA010F5AD013F0040F57D0C5F84C
:103C400004A013F4004F12D013F4803F07D0216C6E
:103C500000293FD003B02046BDE8F04F0847A16CD3
:103C6000002937D003B02046BDE8F04F084713F0D5
:103C7000200F34D12068B84227D07649884224D01A
:103C80007549884221D040451FD048451DD05E4926
:103C900088421AD05D49884217D05D49884214D0C5
:103CA0005C49884211D060450FD05C4988420CD0F5
:103CB00070450AD05B49884207D05B49884204D0EE
:103CC000904202D05A49884205D1016821F008018A
:103CD000016004E083E0016821F004010160216CCF
:103CE00000297CD003B02046BDE8F04F08474FF0D4
:103CF000020A0AFA06FA1AEA010F5FD013F0020F5D
:103D00005CD0C5F804A013F4004F12D013F4803F28
:103D100007D0E16B002974D003B02046BDE8F04F16
:103D20000847616C00296CD003B02046BDE8F04F15
:103D3000084713F0200F39D12068B84227D04549F1
:103D4000884224D04449884221D040451FD048456C
:103D50001DD02D4988421AD02C49884217D02C49B1
:103D6000884214D02B49884211D060450FD02B498E
:103D700088420CD070450AD02A49884207D02A4987
:103D8000884204D0904202D02949884204D1016877
:103D900021F01401016003E0016821F00A010160D3
:103DA000012084F83500002084F83400E16B0029FC
:103DB00027D003B02046BDE8F04F08470822B240A4
:103DC0000A421ED013F0080F1BD0016821F00E012B
:103DD000016094F85C0000F01F01012000E010E099
:103DE00000FA01F16960606584F83500002084F80C
:103DF0003400E16C002904D003B02046BDE8F04F48
:103E0000084703B0BDE8F08F88000240A0000240E0
:103E1000B80002401004024028040240400402405E
:103E2000580402407004024088040240A00402408A
:103E3000B8040240085402581C5402583054025826
:103E400044540258585402586C5402588054025832
:103E50009454025828000240400002402DE9F05FCF
:103E6000044601F0E3F90646002C6AD0DC4F02223A
:103E700020680025DFF86C83DFF86C93B842DFF828
:103E80006CA3DFF86CB328D0DA49884225D04045CE
:103E900023D0484521D050451FD058451DD0D64984
:103EA00088421AD0D549884217D0D549884214D0C3
:103EB000D449884211D0D44988420ED0D34988428F
:103EC0000BD0D349884208D0D249884205D0D24984
:103ED000884202D0D14988427ED184F8352084F8C6
:103EE0003450B84228D0C349884225D0404523D019
:103EF000484521D050451FD058451DD0BE49884265
:103F00001AD0BE49884217D0BD49884214D0BD4955
:103F1000884211D0BC4988420ED0BC4988420BD09F
:103F2000BB49884208D0BB49884205D0BA4988427B
:103F300002D0BA49884207D1016821F0010101602D
:103F400006E00120BDE8F09F016821F00101016059
:103F50002068006810F0010F11D001F067F9801B94
:103F6000052807D920206065032084F8350001204A
:103F7000BDE8F09F2068006810F0010FEDD12268C5
:103F80001068A7490840E368A168D4F814C0194331
:103F9000236943EA0C031943A3691943E3691943ED
:103FA000236A19430843616A042903D1236BE16A38
:103FB000194308439B4909686FF30F01B1F1005F92
:103FC00011D36168A1F12903052B0AD9163B032BF4
:103FD00007D9083B012B00E02CE002D94F39032917
:103FE00001D840F4801010602068406920F007017B
:103FF000606A40EA010604280ED1A06A0643E06A1E
:1040000050B12046FEF71AFB30B140206065012018
:1040100084F83500BDE8F09F206846612046FEF731
:10402000E9F994F85C103F2201F01F0102FA01F156
:1040300081605BE07C49884214D07C4B984211D06F
:104040007B4B98420ED07B4B98420BD07A4B9842D8
:1040500008D07A4B984205D0794B984202D0794BE0
:1040600098427DD188420CD07049884209D070496D
:10407000884206D06F49884203D06F49884200D0F9
:104080006E4984F8352084F8345002686FF31012BA
:10409000A168402979D0802979D00021E36841EADC
:1040A000D301236941EAD301636941EAD301A369DA
:1040B00041EAD301E36941EAD301236A41EA1311DA
:1040C000114301606049206801446048A0FB011071
:1040D00000098000E0652046FEF78CF994F85C103A
:1040E000012201F01F0102FA01F141602068B8428B
:1040F00042D0404988423FD040453DD048453BD022
:10410000504539D0584537D03B49884234D03B4997
:10411000884231D03A4988422ED03A4988422BD041
:104120003949884228D03949884225D038498842BF
:1041300022D0384988421FD0374988421CD037499D
:10414000884219D03849884216D03849884213D05D
:104150003749884210D0374988420DD0364900E0AF
:1041600018E0884208D03549884205D03449884251
:1041700002D0344988422CD12046FEF7ADF9A06820
:1041800080280FD00FE000E001E0102186E74FF417
:10419000804183E740206065032084F835000120DA
:1041A000BDE8F09F6560216E20790860616EA06EA9
:1041B00048606068401E072808D82046FEF7F8F9D6
:1041C000E06E0560216F606F486002E0E56625677C
:1041D00065676565012084F835000020BDE8F09F23
:1041E00010000240400002405800024070000240AF
:1041F0008800024028000240A0000240B8000240AF
:1042000010040240280402404004024058040240C6
:104210007004024088040240A0040240B804024036
:104220003F8010FE0010005C085402581C540258D5
:104230003054025844540258585402586C5402588E
:104240008054025894540258F8ABFDA7CDCCCCCC86
:104250002DE9F84F044600200090002C16D094F869
:104260003400012815D0012084F8340094F835C0BA
:104270000020BCF1010F0FD04FF40061616584F89C
:104280003400012000900098BDE8F88F0120BDE8BF
:10429000F88F0220BDE8F88F4FF0020C84F835C08B
:1042A0006065DFF82CC220688A4D8B4E60458B4FCD
:1042B000DFF82C82DFF82C92DFF82CA2DFF82CB28A
:1042C0002DD0A8422BD0B04229D0B84227D04045AB
:1042D00025D0484523D0504521D058451FD0DFF880
:1042E00010C260451BD0DFF80CC2604517D0DFF864
:1042F00008C2604513D0DFF804C260450FD0DFF874
:1043000000C260450BD0DFF8FCC1604507D0DFF884
:10431000F8C1604503D0DFF8F4C1604506D1D0F89C
:1043200000C02CF0010CC0F800C005E0D0F800C0BF
:104330002CF0010CC0F800C02046FEF7BFF964491C
:104340002068884225D0A84223D0B04221D0B8426C
:104350001FD040451DD048451BD0504519D0584569
:1043600017D0634A904214D0624A904211D0624AF8
:1043700090420ED0614A90420BD0614A904208D0E0
:10438000604A904205D0604A904202D05F4A904213
:104390000DD1026822F01E0242F016020260206C6B
:1043A00090B12068026842F0080202600CE00268E6
:1043B00022F00E0242F00A020260206C20B1206856
:1043C000026842F004020260206888423DD0A842A0
:1043D0003BD0B04239D0B84237D0404535D04845BF
:1043E00033D0504531D058452FD0414A90422CD03F
:1043F000404A904229D0404A904226D03F4A9042BB
:1044000023D03F4A904220D03E4A90421DD03E4A9F
:1044100090421AD03D4A904217D03D4A904214D063
:104420003C4A904211D03C4A90420ED03B4A9042C6
:104430000BD03B4A904208D03A4A904205D03A4AC3
:10444000904202D0394A90420ED1206E026812F496
:10445000803F03D0026842F480720260E06E18B1BF
:10446000026842F4807202602068884225D0A84227
:1044700023D0B04221D0B8421FD040451DD048457E
:104480001BD0504519D0584517D01949884214D02F
:104490001849884211D0184988420ED017498842DD
:1044A0000BD01749884208D01649884205D01649D2
:1044B000884202D01549884204D1016841F00101C7
:1044C0000160E0E6016841F001010160DBE6000007
:1044D0001000024028000240400002405800024004
:1044E0007000024088000240A0000240B800024074
:1044F00010040240280402404004024058040240D4
:104500007004024088040240A0040240B804024043
:10451000085402581C54025830540258445402584B
:10452000585402586C5402588054025894540258FB
:1045300090F89830012B09D0022B07D0D0F89C10AE
:1045400041F00201C0F89C10012070470368D3F8C5
:1045500058C01CEA010F06D1D3F85CC04CF0010C26
:10456000C3F85CC008E0D3F858C031EA0C0C26D080
:104570004FF0030CC3F85CC011F4007F06D0036851
:10458000D3F8E0C04CEA020CC3F8E0C011F4806F2D
:1045900006D00368D3F8E4C04CEA0202C3F8E42072
:1045A0000068426D21F4401323F040431A434265F2
:1045B0000648026842EA9171016000207047D3F812
:1045C0005CC04CF0020CC3F85CC0D5E714A80040F6
:1045D00070B5044694F89800022807D0D4F89C00DF
:1045E00040F00800C4F89C00012070BD2068D0F89D
:1045F000C03013F07C5F0CD0D0F8C43013F4001F2F
:104600000FD0D4F89C0040F40070C4F89C00012046
:1046100070BDD4F89C0040F02000C4F89C0001203C
:1046200070BDD0F8C400C0F3044520462B46FEF709
:104630007FFC21680120A840C1F8D000C4F8940094
:10464000002070BD704790F89820012A09D0022AF6
:1046500007D0D0F89C1041F00201C0F89C10012056
:104660007047CA680B6893B1072A0B6943EA427323
:104670002ED091F808C04A6942EA8C724968006FEE
:1046800000EBC100036042604FF000007047072A52
:1046900012D091F808C04FEAC2624B6943EA8C73AA
:1046A000B1F810C042EA0C4243EA02024968C06E07
:1046B00000EB81000260E7E70B8A4FF0605C8A69DB
:1046C00042EA0342CB694CEA032342EA0302EDE7E4
:1046D0008A69D3E770477047F0B44FF0000C90F848
:1046E0009840022C08D0D0F89C1041F00801C0F886
:1046F0009C10F0BC0120704740290DD0412940D0CA
:10470000046D8C4273D8D0F89C1041F02001C0F8A1
:104710009C10F0BC012070470468D4F8A05015F438
:10472000FE0F1CD0D4F8A45015F07F0F20D0D4F881
:10473000A45015F0807F06D0D4F8A05015F0004F9B
:1047400001D54FF0010CD4F8A440C4F30524A444CF
:10475000456C446F05FB0CF504EB85044DE0D0F887
:104760009C1041F02001C0F89C10F0BC0120704763
:10477000D0F89C1041F48071C0F89C10F0BC01206E
:1047800070470468D4F8B05015F4FE0F1CD0D4F86C
:10479000B45015F07F0F20D0D4F8B45015F0807FBE
:1047A00006D0D4F8B05015F0004F01D54FF0010CF1
:1047B000D4F8B440C4F30524A444C56C846F05FB4D
:1047C0000CF504EB850418E0D0F89C1041F02001B2
:1047D000C0F89C10F0BC01207047D0F89C1041F448
:1047E0008071C0F89C10F0BC01207047FFE7456D58
:1047F000C46F05FB01F504EB8504256805F08045D1
:104800005560E5B3256825F060451560256805F01D
:1048100000559560256805F000451561241D258823
:10482000ADB2D5612568C5F30347D760256805F4A7
:1048300080155561256805F4001595612568C5F357
:10484000066515622568ED0F5562251D0024184E7A
:10485000F75D002F06D92F5D1F55641CD768F75DE3
:10486000A742F8D8402910D0412912D0012220298E
:1048700013D2006802FA01F1C0F8981014E0FFE7C3
:104880002568C5F38A451560C0E70068C0F8A8C070
:104890000AE00068C0F8B8C006E0006801F01F0137
:1048A00002FA01F1C0F89C100020F0BC7047000033
:1048B000B4BF0008704700002DE9F04F83B00446F4
:1048C000BC4F38688007391D096800EA8179206883
:1048D000016D01F47041426D02EA010A016D01F0BF
:1048E0000F01426D02EA010B016D01F0F001426D12
:1048F00011400291016D01F07151426D02EA01080F
:10490000016D01F06071426D11400191456D066DC0
:1049100015F4807F09D016F4807F06D0B9150165A3
:10492000002038602046FFF7C5FF15F4806F10D0D7
:1049300016F4806F0DD02068D0F8DC10D0F8E42099
:1049400011404FF48062026500203860204600F07C
:1049500061FBB9F1000F0CD0216829F4401020F060
:10496000404008654FEA9970386049462046FFF795
:1049700069FEBAF1000F0CD021682AF4401020F033
:10498000404008654FEA9A7038605146204600F072
:1049900043FBBBF1000F0CD021682BF4401020F03A
:1049A000404008654FEA9B7038605946204600F049
:1049B000E3FA029868B12168029820F4401020F0D0
:1049C000404008650298800F38600299204600F048
:1049D00001FB15F4006F0BD016F4006F08D02168AE
:1049E0004FF40060086500203860204600F015FB99
:1049F00015F4007F10D016F4007F0DD02068D0F899
:104A0000D810D0F8E02011404FF400720265002069
:104A10003860204600F0FFFA15F4002F0BD016F492
:104A2000002F08D021684FF400200865002038606E
:104A3000204600F09FFA15F4803F0BD016F4803F1B
:104A400008D021684FF48030086500203860204687
:104A500000F0DFFA15F4802F0BD016F4802F08D069
:104A600021684FF48020086500203860204600F05F
:104A7000CFFA15F4003F0ED016F4003F0BD021689A
:104A80004FF40030086500203860D4F89C0040F0F6
:104A90008000C4F89C00019868B12168019820F456
:104AA000401020F0404008650198800F386001995F
:104AB0002046FFF710FEB8F1000F0ED0216828F451
:104AC000401020F0404008654FEA98703860D4F8F4
:104AD0009C0040EA0800C4F89C002068A0F18041D6
:104AE000B1F520415CD16068816811F0030F57D0A7
:104AF000016A01F00F01426A1140026A02F03002BD
:104B0000436A03EA0207026A02F4C072436A03EAD4
:104B10000208026A02F4FC42436A03EA0205026ADE
:104B200002F4F022436A03EA0206D0F82490D0F897
:104B300020A019B10162204600F067FA2FB1606829
:104B400007623946204600F062FA19F0400F0DD096
:104B50001AF0400F0AD06068C16B090CC26B02F0FA
:104B60003F0240230362204600F050FAB8F1000FE4
:104B700006D06068C0F820804146204600F044FA24
:104B800035B160680562D4F89C002843C4F89C00E5
:104B900036B160680662D4F89C003043C4F89C00CB
:104BA000D4F89C00002802D02046FFF793FD03B004
:104BB000BDE8F08F10A800402DE9F04194B0044604
:104BC0004C22A14901A8FBF724FD5CB19F4F20684E
:104BD000B84202D100F58070606094F89800002619
:104BE00020B108E014B00120BDE8F08184F899609C
:104BF000204600F02DF92068816921F010018161C3
:104C000000F014FB0546206880694FF0030810F09F
:104C1000080F15D000F00AFB401B0A280BD9D4F866
:104C20009C0040F00100C4F89C0084F8988014B007
:104C30000120BDE8F0812068806910F0080FE9D1FB
:104C40002068816941F00101816100F0EFFA0546B9
:104C50002068806910F0010F15D100F0E7FA401BC1
:104C60000A280BD9D4F89C0040F00100C4F89C003D
:104C700084F8988014B00120BDE8F0812068806934
:104C800010F0010FE9D02068816941F002018161D3
:104C9000207C012839D02068816941F04001816180
:104CA000607C012837D02068816921F480418161CE
:104CB000A07C012835D02068816941F48051816150
:104CC00020688169A26821F44071114381612068E4
:104CD000816921F0A40181612068016921F010013E
:104CE0000161E068012822D030B302282BD020686F
:104CF000816941F0800181612068016941F0100102
:104D00000161E068032818D022E02068816921F061
:104D100040018161C4E72068816941F4804181617B
:104D2000C6E72068816921F480518161C8E7206865
:104D3000816941F0040181610AE02068816941F0E4
:104D40002001816104E02068816941F020018161D6
:104D5000207EE169401E491E400640EA0120216A8A
:104D6000491E0843A18A491E40EA01402168C861E2
:104D7000A068B0F5407F0FD1E16AA06A491E401ECD
:104D800040EA0120216B491E40EA0110A18C491E16
:104D900040EA01402168C860206E30B12068D0F838
:104DA000C010626E1143C0F8C010216EE06DC842A1
:104DB00001A90AD02068D0F8C820A36E22F007020B
:104DC00051F823301A43C0F8C820206C50B1206835
:104DD000D0F8BC20636C22F0070251F823301A434C
:104DE000C0F8BC20A06C58B12068D0F8BC20E36C9F
:104DF00022F0700251F8233042EA0312C0F8BC20BE
:104E0000206D58B12068D0F8BC20636D22F4E062B8
:104E100051F8231042EA0121C0F8BC102068B842C2
:104E200004D16068816821F003018160C4F8946056
:104E3000C4F89C60012084F898002046FDF77EFFAE
:104E400014B0BDE8F0810000C4BF000800A000401D
:104E50002DE9F043B7B00446142130A8FBF70BFC52
:104E6000C0216846FBF707FC3E4D00263B494FF04A
:104E7000805220680C3D3A4F4FF00208394C88426E
:104E80004FF0090931D100201C925113CDE90010D7
:104E9000684600F0F3FD08B1FDF742FF3868401C9A
:104EA0003860012807D1206840F4807020602068B5
:104EB00000F480703590286840F001002860286870
:104EC00030A900F0010035904FF4C0503090CDE98A
:104ED00031862548CDE9336900F0A0F8012213207E
:104EE000114600F071FB132033E02049884232D193
:104EF00000201C924FF40041CDE90010684600F0FC
:104F0000BDFD08B1FDF70CFF3868401C3860012872
:104F100007D1206840F480702060206800F4807021
:104F20003590286840F002002860286830A900F019
:104F30000200359060203090CDE931860C48CDE9F3
:104F4000336900F06BF801220221142000F03CFBD1
:104F5000142000F02BFB37B0BDE8F08300A0004028
:104F600000000024EC4402580000025800A4004055
:104F7000000402587047000030B513490446006829
:104F80008DB00AAD88420BD140212B466A4620469F
:104F9000FFF7A2FB012803D00C48C1686846884788
:104FA0000B49206888420CD140212B466A46204696
:104FB000FFF792FB012804D004481030C16868460E
:104FC00088470DB030BD000000A00040180000244C
:104FD00000A40040704790F89810012907D0D0F83D
:104FE0009C1041F00401C0F89C1001207047022180
:104FF00080F8981001688A6922F001028A61002114
:10500000C0F89C1000207047704770477047704789
:105010007047704770477047704770472DE9F84FE9
:105020000022DFF8E4C10B68002B7DD0DFF8DCB193
:105030004FF0B04A4FF0010E4FF003084FF00F0948
:105040000B680EFA02F52B40002B6ED00C7904F0A1
:105050000304012C01D0022C11D18668540008FAF7
:1050600004F7BE43CF6807FA04F43443846044680D
:10507000AC430D79C5F3001595402C4344604C6852
:1050800038EA040409D0C568540008FA04F6B543A8
:105090008E6806FA04F42C43C4600C7904F003040F
:1050A000022C0DD1D40800EB84052E6A5407E40EBF
:1050B00009FA04F7BE430F6907FA04F434432C627B
:1050C0000568540008FA04F6B5430E7906F00306A5
:1050D00006FA04F42C4304604C6814F4403F78D082
:1050E000DBF8004044F00204CBF80040DBF800405D
:1050F00004F00204009422F0030404F1B046D6F850
:10510000084495072D0F09FA05F724EA0707A0F1CF
:10511000B044B4F5003463D0A0F1B044B4F5013428
:1051200060D0A0F1B04401E058E052E0B4F50234A0
:105130005AD0A0F1B044B4F5033457D0A0F1B04434
:10514000B4F5043454D0A0F1B044B4F5053451D0D2
:10515000A0F1B044B4F506344ED0A0F1B044B4F59B
:1051600007344BD0A0F1B044B4F5083448D0A0F1D6
:10517000B044B4F5093445D00A24AC403C43C6F8E9
:105180000844DAF800409C434D6815F4801F00D0B5
:105190001C43CAF80040DAF804409C434D6815F4FB
:1051A000001F00D01C43CAF80440DCF804409C43B4
:1051B0004D6815F4003F00D01C43CCF80440DCF8E7
:1051C00000409C434D6815F4803F00D01C43CCF850
:1051D0000040521C0B68D3407FF432AFBDE8F88F1B
:1051E0000024CAE70124C8E70224C6E70324C4E771
:1051F0000424C2E70524C0E70624BEE70724BCE771
:105200000824BAE70924B8E780000058F44402589B
:10521000002A01D081617047090481617047000054
:1052200001480068000C70470010005C014880686D
:10523000704700000C00002490F84120202A01D083
:105240000220704790F84020012A20D0012280F8E7
:105250004020242280F841200268136823F00103D3
:1052600013600268136823F48053136002681368A4
:105270001943116001680A6842F001020A602021A6
:1052800080F84110002180F8401000207047022073
:10529000704790F84120202A01D00220704790F8F2
:1052A0004020012A1ED0012280F84020242280F8CC
:1052B00041200268136823F0010313600268136839
:1052C00023F4706343EA0121116001680A6842F027
:1052D00001020A60202180F84110002180F840106E
:1052E000002070470220704770B50446002C04D09F
:1052F00094F84100002510B106E0012070BD84F84B
:105300004050204600F056F8242084F841002068E0
:10531000016821F001010160606820F0706120687F
:1053200001612068816821F400418160E068012802
:1053300033D02168A06840F404408860E068022807
:1053400031D02068416821F40061416020684168E3
:1053500041F4004141F0007141602068C16821F4CE
:105360000041C160616920690843A16940EA0120E8
:105370002168C860216AE0690843216808602068E4
:10538000016841F0010101606564202084F841005A
:10539000256384F84250002070BD2168A06840F465
:1053A00000408860CAE72068416841F400614160BC
:1053B000CCE7000010B5B6B00446142130A8FBF7C6
:1053C0005AF9C0216846FBF756F919492068884206
:1053D0002BD10020219008210446CDE90010684619
:1053E00000F04CFB08B1FDF79BFC1248016841F04E
:1053F00002010160006830A900F0020035904FF40E
:10540000406030901220CDE931040420CDE93340D2
:105410000948FFF703FE07480830016841F480019E
:105420000160006800F48000359036B010BD0000C7
:1054300000580040E04402580004025802488168C5
:1054400002781144816070470C00002410B50320DD
:1054500000F0F0F801F010FA0F4A1168C1F30323CD
:105460000E49CB5C03F01F03D840126802F00F0214
:10547000895C0B4A01F01F0120FA01F11160094912
:105480000860002000F010F808B1012010BD00F005
:105490007DF8002010BD000018440258A2BF00088B
:1054A000080000240400002470B504460F4D2A783B
:1054B000002A0CD04FF47A700D49B0FBF2F0096865
:1054C000B1FBF0F001F066FF18B1012070BD0120C2
:1054D00070BD102C07D200222146501E00F074F837
:1054E0006C60002070BD012070BD00000C00002425
:1054F00004000024124A4178116012490A6822F01F
:1055000001020A600B1F42681A60027BC37A12070D
:1055100042EA0362837A42EAC342437B42EA83421D
:10552000837B42EA4342C37B42EA0342437A42EA34
:105530000322037A007842EA43021043086070476E
:1055400098ED00E0A0ED00E0BFF35F8F0448016834
:1055500021F4803101600349002008607047000099
:1055600024ED00E094ED00E0064940F00100086001
:105570000548016841F480310160BFF34F8FBFF3EC
:105580006F8F704794ED00E024ED00E0064882B094
:10559000016841F002010160006800F00200009023
:1055A000052002B000F046B8F444025800280ADB97
:1055B000012200F01F0102FA01F14009800000F110
:1055C000E020C0F8001170474DF8044D184B1B68DF
:1055D000C3F30223C3F1070CBCF1040F01D94FF050
:1055E000040C1C1D072C01D2002300E0DB1E01244B
:1055F00004FA0CFCACF1010C0CEA0101994004FA2C
:1056000003F35B1E1A401143002807DB00F1E02082
:10561000090180F800145DF8044B704700F00F009A
:1056200000F1E020090180F8141D5DF8044B70477B
:105630000CED00E000F00700064A11684FF6FF038A
:10564000194041EA002040F0FD7040F08060106099
:10565000704700000CED00E070B515490A6812F0C3
:10566000040F0DD00A6822F0070210430860FFF70C
:10567000DDFD04460F4D286810F4005F09D014E0EA
:10568000096801F00701814201D0012070BD0020AE
:1056900070BDFFF7CBFD001BB0F57A7F01D901206B
:1056A00070BD286810F4005FF3D0002070BD0000CA
:1056B0000C4802580448025810B501F091F8054909
:1056C0000968054AC1F30211515C01F01F01C8408D
:1056D00010BD000020440258A2BF000869490A68B2
:1056E00002F003020968C1F30531674B1B68C3F37D
:1056F0000013DFF898C1DCF800C0CCF3CC0C1CFB25
:1057000003F300EE103AB8EE400A002972D09FED84
:10571000601A604B002AF7EE000A46D0DFED5E1AF1
:10572000012A68D0022A67D002EE101A1968F8EE32
:10573000422A81EEA22AC1F3080101EE901AF8EE86
:10574000611A40EE011A31EEA00A22EE000A196831
:10575000C1F3462101EE101AB8EE411A31EE201ABB
:10576000C0EE011ABCEEE11A80ED001A1968C1F30F
:10577000064101EE101AB8EE411A31EE201AC0EEC1
:10578000011ABCEEE11A80ED011A1968C1F3066135
:1057900001EE101AB8EE411A71EE200A80EE201ABE
:1057A000BCEEC10A80ED020A70473C4AD2F800C044
:1057B0001CF0200F21D01268DFF8E4C0C2F3C10250
:1057C0002CFA02F201EE902AF8EE612A01EE901A0C
:1057D0001968F8EE611A82EEA12AC1F3080101EE00
:1057E000901AF8EE611A40EE011A31EEA00A22EE8C
:1057F000000AACE741E016E029E001EE901ADFED87
:10580000292A1968F8EE611A82EEA12AC1F308016B
:1058100001EE901AF8EE611A40EE011A31EEA00A7C
:1058200022EE000A93E702EE101A1968F8EE422AF7
:1058300081EEA22AC1F3080101EE901AF8EE611A76
:1058400040EE011A31EEA00A22EE000A7FE701EED7
:10585000901ADFED152A1968F8EE611A82EEA12A76
:10586000C1F3080101EE901AF8EE611A40EE011A38
:1058700031EEA00A22EE000A69E7002101604160D2
:1058800081607047284402582C4402583C44025816
:1058900000000039384402580024744A0044025879
:1058A0000090D0030024744C0024F44A69490A682B
:1058B00002F003020968C1F30551674B1B68C3F38B
:1058C0000023DFF898C1DCF800C0CCF3CC0C1CFB43
:1058D00003F300EE103AB8EE400A002972D09FEDB3
:1058E000601A604B002AF7EE000A46D0DFED5E1A20
:1058F000012A68D0022A67D002EE101A1968F8EE61
:10590000422A81EEA22AC1F3080101EE901AF8EEB4
:10591000611A40EE011A31EEA00A22EE000A19685F
:10592000C1F3462101EE101AB8EE411A31EE201AE9
:10593000C0EE011ABCEEE11A80ED001A1968C1F33D
:10594000064101EE101AB8EE411A31EE201AC0EEEF
:10595000011ABCEEE11A80ED011A1968C1F3066163
:1059600001EE101AB8EE411A71EE200A80EE201AEC
:10597000BCEEC10A80ED020A70473C4AD2F800C072
:105980001CF0200F21D01268DFF8E4C0C2F3C1027E
:105990002CFA02F201EE902AF8EE612A01EE901A3A
:1059A0001968F8EE611A82EEA12AC1F3080101EE2E
:1059B000901AF8EE611A40EE011A31EEA00A22EEBA
:1059C000000AACE741E016E029E001EE901ADFEDB5
:1059D000292A1968F8EE611A82EEA12AC1F308019A
:1059E00001EE901AF8EE611A40EE011A31EEA00AAB
:1059F00022EE000A93E702EE101A1968F8EE422A26
:105A000081EEA22AC1F3080101EE901AF8EE611AA4
:105A100040EE011A31EEA00A22EE000A7FE701EE05
:105A2000901ADFED152A1968F8EE611A82EEA12AA4
:105A3000C1F3080101EE901AF8EE611A40EE011A66
:105A400031EEA00A22EE000A69E700210160416000
:105A500081607047284402582C440258444402583C
:105A600000000039404402580024744A004402589F
:105A70000090D0030024744C0024F44A2DE9F84F20
:105A80000446002500262068C04310F0006FFE4F3A
:105A9000DFF8F8830DD1A06E88B1B0F5801F13D068
:105AA000B0F5001F17D0B0F5401F00D00125CDB1D3
:105AB0002E462088C04310F4807F1CD039E038681F
:105AC00040F400303860F2E7022104F1080003F0EE
:105AD0001DFD0546EBE7022104F1280003F0B6FDA9
