:020000040800F2
:100000005845002479030008817B00083D6B0008F7
:100010009D780008090800086D90000800000000A5
:10002000000000000000000000000000D97F000870
:100030007510000800000000717C00087181000844
:100040009303000893030008930300089303000838
:100050009303000893030008930300089303000828
:10006000930300089303000893030008150A00088F
:10007000210A00082D0A0008390A0008450A00086C
:10008000510A00085D0A000893030008B111000836
:10009000BD110008930300089303000893030008B0
:1000A00093030008930300089303000893030008D8
:1000B00093030008930300089303000893030008C8
:1000C00093030008930300089303000893030008B8
:1000D00093030008259000083D900008499000080F
:1000E0009303000893030008000000009303000836
:1000F000ED830008E183000893030008690A000803
:100100009303000893030008930300089303000877
:100110007D85000889850008930300089303000883
:10012000750A0008810A00088D0A0008990A00086B
:10013000A50A00089303000893030008930300082E
:1001400000000000000000000000000000000000AF
:10015000B10A0008BD0A0008930300086190000876
:100160009303000893030008930300089303000817
:100170009303000893030008930300089303000807
:10018000930300089303000895850008AD850008D7
:1001900093030008930300089303000893030008E7
:1001A00093030008930300089303000893030008D7
:1001B00093030008930300089303000893030008C7
:1001C00093030008930300089303000893030008B7
:1001D00093030008930300089303000893030008A7
:1001E0009303000893030008930300089303000897
:1001F0009303000893030008930300089303000887
:100200009303000893030008930300089303000876
:100210009303000893030008930300089303000866
:1002200093030008930300089303000800000000F4
:1002300093030008930300080000000093030008E4
:100240009303000893030008930300089303000836
:100250009303000893030008930300089303000826
:100260009303000893030008930300089303000816
:1002700093030008930300089303000800000000A4
:100280009303000893030008930300080000000094
:10029000000000009303000800F002F800F05CF892
:1002A0000AA090E8000C82448344AAF10107DA45D1
:1002B00001D100F051F8AFF2090EBAE80F0013F0C7
:1002C000010F18BFFB1A43F001031847C495000043
:1002D000E49500000A444FF0000C10F8013B13F0C5
:1002E000070408BF10F8014B1D1108BF10F8015B8F
:1002F000641E05D010F8016B641E01F8016BF9D182
:1003000013F0080F1EBF10F8014BAD1C0C1B09D1D8
:100310006D1E58BF01F801CBFAD505E014F8016B4A
:1003200001F8016B6D1EF9D59142D6D370470000DC
:100330000023002400250026103A28BF78C1FBD8EE
:10034000520728BF30C148BF0B6070471FB509F086
:10035000CCF81FBD10B510BD00F04BF91146FFF7EA
:10036000F5FF09F099F800F069F903B4FFF7F2FF1F
:1003700003BC00F06DF900000948804709480047B8
:10038000FEE7FEE7FEE7FEE7FEE7FEE7FEE7FEE745
:10039000FEE7FEE704480549054A064B70470000A2
:1003A000518200089902000858250024584500246D
:1003B000583500245835002453EA020C00F06980B7
:1003C0002DE9F04B4FF00006002B1FBFB3FA83F569
:1003D00003FA05F424FA05F65E4012BF1643B2FA9A
:1003E00082F502FA05F4C5F120051EBF22FA05FCCC
:1003F00044EA0C04203556EA044C4FEA144418BF72
:10040000641C4FF000084FF00009904271EB030CA0
:1004100039D3002919BFB1FA81F701FA07F6B0FA0A
:1004200080F700FA07F6C7F120071EBF20FA07FC85
:1004300046EA0C062037B6FBF4FCA7EB0507103F95
:1004400007F01F0BCBF120060CFA0BFB2CFA06F67B
:1004500044BFB3460026202FA4BF5E464FF0000BDA
:100460005BEA060C08BF4FF0010B19EB0B09ABFB65
:10047000027C48EB0608C01B06FB02CC0BFB03CC3E
:1004800071EB0C01C1E70B46024641464846BDE808
:10049000F08B13B54FF000004FF00001AFF3008078
:1004A000BDE81C407047032A40F2308010F0030C76
:1004B00000F0158011F8013BBCF1020F624498BFB7
:1004C00011F801CB00F8013B38BF11F8013BA2F154
:1004D000040298BF00F801CB38BF00F8013B11F0CF
:1004E000030300F02580083AC0F0088051F8043B6F
:1004F000083A51F804CBA0E80810F5E7121D5CBFDC
:1005000051F8043B40F8043BAFF30080D20724BF0E
:1005100011F8013B11F801CB48BF11F8012B24BFA2
:1005200000F8013B00F801CB48BF00F8012B7047F1
:1005300010B5203AC0F00B80B1E81850203AA0E87E
:100540001850B1E81850A0E81850BFF4F5AF5FEAB2
:10055000027C24BFB1E81850A0E8185044BF18C965
:1005600018C0BDE810405FEA827C24BF51F8043B0C
:1005700040F8043B08BF7047D20728BF31F8023B60
:1005800048BF11F8012B28BF20F8023B48BF00F8F4
:10059000012B70474FF0000200B513469446964673
:1005A000203922BFA0E80C50A0E80C50B1F1200186
:1005B000BFF4F7AF090728BFA0E80C5048BF0CC034
:1005C0005DF804EB890028BF40F8042B08BF704792
:1005D00048BF20F8022B11F0804F18BF00F8012B04
:1005E000704770477047704700487047F8240024F0
:1005F00070477546FFF7F8FFAE460500694653465B
:1006000020F00700854618B020B5FFF7C3FEBDE80F
:1006100020404FF000064FF000074FF000084FF069
:10062000000B21F00701AC46ACE8C009ACE8C009FA
:10063000ACE8C009ACE8C0098D46704710B5044667
:10064000AFF300802046BDE81040FFF78EBE0000EB
:1006500001491820ABBEFEE726000200F8B5164699
:100660000446002240F201201D460F460123114698
:10067000009004F59E7007F07FF9002240F20220FE
:1006800001231146009004F50A7007F075F94FF444
:1006900001700090012320460222002107F06CF92E
:1006A00095EC030A04F1EC00D5ED081A00F060F8AF
:1006B00097EC030A04F54570D7ED081A00F058F8D6
:1006C00096EC030A04F55070D6ED081A00F050F8C5
:1006D0009FED0B0A4FF4FA50A4F83001282084F85B
:1006E000330184ED490A0020A4F880034EF620204F
:1006F000A4F87C034EF62A20A4F87E03F8BD00007F
:100700001FF42C3E70EE600AC0ED030A90ED000A63
:1007100020EE800A80ED050A90ED061AD0ED011A50
:1007200000EEA11A80ED061AD0ED081AB0EEE01A1C
:10073000B4EEE11AF1EE10FA03DD9FED0C1A80ED34
:10074000061A90ED091AD0ED021A30EEC11A21EE08
:10075000C11A80ED071AD0ED061A30EE210A30EEEC
:10076000010A80ED0A0AC0ED090A70470000000086
:10077000C0ED081A80EC030A9FED040A80ED050A1B
:1007800080ED060A80ED070A7047000000000000B7
:1007900030EE600A80ED030AD0ED000A20EE201A48
:1007A00080ED051AD0ED060AD0ED011A40EE210ABF
:1007B000C0ED060AD0ED081AF0EEC00AF4EEE10A28
:1007C000F1EE10FA03DDDFED0F0AC0ED060AD0ED01
:1007D000090AD0ED021A70EE600A61EEE00AC0ED7F
:1007E000070AD0ED061A31EE211A71EE200AC0ED8B
:1007F0000A0A80ED090ABDEEE00A10EE100A00B206
:100800007047000000000000FEE7000000B58DB05A
:10081000014630226846FFF78BFE03480FC807F0F9
:10082000EDF80DB0002000BD1800002400B58DB01B
:10083000014630226846FFF77BFE03480FC807F0E9
:10084000DDF80DB0002000BD2800002410B588B0F0
:100850000446022100200090CDE901010121CDE9EB
:10086000031005906946206802F099F9206800227B
:10087000012102F009F9206802F059FE08B010BD0C
:1008800050F8042F5160C1E900200160704700B5A5
:1008900000230A6889B0CDE9002308220493059358
:1008A0000693CDE902320A1D079308936946006852
:1008B00002F03AF910B1002009B000BD0120FBE7B9
:1008C00070B5204E38990D9AA1F20124251FC2F36C
:1008D0000723B042D2B208D1032C01D81A480BE04A
:1008E000032D2DD818480C3013E0184EB04227D1F4
:1008F000032C0AD81448243000EB4100A0F58050A6
:1009000080F8023C80F8032C1AE0032D0AD80E4828
:10091000303000EB4100A0F5805080F8FA3B80F8C1
:10092000FB2B0DE0A1F20920022809D806483C3033
:1009300000EB4100A0F5805080F8F23B80F8F32BEB
:10094000002070BD680100248800002408020024F3
:1009500070B5194E38990D9AA1F20524251FC2F3DE
:100960000723B042D2B208D1032C01D813480BE0C0
:10097000022D1ED811480C3013E0114EB04218D190
:10098000032C0AD80D48243000EB4100A0F580501C
:1009900080F8FA3B80F8FB2B0BE0022D09D80748C2
:1009A000303000EB4100A0F5805080F8F23B80F839
:1009B000F32B002070BD0000680100249400002487
:1009C00008020024DDE907230188418191B2120C5D
:1009D00049BA018152BA42809AB252BA82801A0C44
:1009E0008271018000207047074B02689A4202D151
:1009F000064AD1601060064B02689A4203D1034A4E
:100A00001032D1601060704700A000401800002430
:100A100000A40040014801F00DB90000C80C0024FA
:100A2000014801F007B90000E80A0024014801F07C
:100A300001B90000400D0024014801F0FBB800009E
:100A4000B80D0024014801F0F5B80000300E002474
:100A5000014801F0EFB80000A80E0024014801F0A1
:100A6000E9B80000200F0024014801F0E3B80000BD
:100A7000980F0024014801F0DDB8000008090024A7
:100A8000014801F0D7B8000080090024014801F0B6
:100A9000D1B80000600B0024014801F0CBB8000081
:100AA000F8090024014801F0C5B80000700A0024CC
:100AB000014801F0BFB80000D80B0024014801F044
:100AC000B9B80000500C0024264A016891422CD08D
:100AD000254A914229D0254A914226D0244A914262
:100AE00023D0244A914220D0234A91421DD0234A48
:100AF00091421AD0224A914217D0224A914214D0F0
:100B0000214A914211D0214A91420ED0204A91426D
:100B10000BD0204A914208D01F4A914205D01F4A6B
:100B2000914202D01E4A914217D11E4BCAB2103ACE
:100B3000A3FB02321209DFF870C002F007031CF8B1
:100B40000330C365032A04D96FF30901091D8165C8
:100B500006E06FF30901816502E021F0FF01816584
:100B6000806D7047100002402800024040000240A3
:100B7000580002407000024088000240A00002407D
:100B8000B800024010040240280402404004024021
:100B9000580402407004024088040240A00402404D
:100BA000B8040240ABAAAAAA609500080168012314
:100BB000DFF894C0CAB261451BD0DFF890C0614530
:100BC00017D0DFF88CC0614513D0DFF888C06145CD
:100BD0000FD0DFF884C061450BD0DFF880C06145DD
:100BE00007D0DFF87CC0614503D0DFF878C06145ED
:100BF00011D1A2F108011C4AA2FB012109091B4ADB
:100C000002EB810202661A4A426601F01F0103FAF2
:100C100001F181667047DFF85CC0103AACFB02C29C
:100C20001209DFF854C06144A82900D808321349DA
:100C300001EB820101661249416602F01F0103FACD
:100C400001F1816670470000085402581C54025894
:100C50003054025844540258585402586C540258A4
:100C60008054025894540258CDCCCCCC0058025831
:100C700080580258ABAAAAAAF0FBFDBF00080240A8
:100C80008008024001794A1E072A28D8144B0168BF
:100C9000994214D0134B994211D0134B99420ED064
:100CA000124B99420BD0124B994208D0114B9942EA
:100CB00005D0114B994202D0104B994206D11049F0
:100CC00001EB8201C1660F49016705E00E4901EBA6
:100CD0008201C1660D49016701219140416770475A
:100CE000085402581C5402583054025844540258B4
:100CF000585402586C540258805402589454025864
:100D00000059025840590258000902404009024067
:100D1000014600208B698A6A002B0FD0B3F5005F73
:100D20001DD08AB3012A30D0022A2ED0032A04D142
:100D3000C96A11F0807F00D0012070471AB1012AE2
:100D400007D0022AF9D1C96A11F0807FF5D00120BD
:100D50007047C96AB1F1C07FFAD1012070475AB11A
:100D6000012A0BD0022A07D0032AF7D1C96AB1F1B0
:100D7000C07FF3D10120704701207047C96A11F08C
:100D8000807FFAD001207047FFE701207047000004
:100D90002DE9F04F846D794ED0F800C0784FDFF820
:100DA000E481B445DFF8E091DFF8E0A1DFF8E0B1DD
:100DB000784D4FD0BC454DD0C4454BD0CC4549D0E3
:100DC000D44547D0DC4545D0DFF8CCE1F44541D0EF
:100DD000AC453FD0DFF8C4E1F4453BD0DFF8C0E1DB
:100DE000F44537D0DFF8BCE1F44533D0DFF8B8E1A3
:100DF000F4452FD0DFF8B4E1F4452BD0DFF8B0E1B3
:100E0000F44527D0DFF8ACE1F44523D0DFF8A8E1C2
:100E1000F4451FD0DFF8A4E1F4451BD0DFF8A0E1D2
:100E2000F44517D0DFF89CE1F44513D0DFF898E1E2
:100E3000F4450FD0DFF894E1F4450BD0DFF890E1F2
:100E4000F44507D0DFF88CE1F44503D0DFF888E102
:100E5000F44510D1D0F864E0D0F868C0CEF804C0F2
:100E6000D0F86CC0BCF1000F05D0D0F870E0D0F81D
:100E700074C0CEF804C0D0F800C0B44526D0BC453C
:100E800024D0C44522D0CC4520D0D4451ED0DC454A
:100E90001CD0414EB44519D0AC4517D03F4DAC45A0
:100EA00014D03F4DAC4511D03E4DAC450ED03E4D1B
:100EB000AC450BD03D4DAC4508D03D4DAC4505D0C3
:100EC0003C4DAC4502D03C4DAC4523D190F85CC0C4
:100ED0003F250CF01F0C05FA0CFCC4F808C0D0F834
:100EE00000C0DCF8004024F48024CCF80040D0F8A6
:100EF00000C0CCF804308368402B05D003689960AB
:100F00000068C260BDE8F08F03689A600068C16045
:100F1000BDE8F08F294DAC4514D0294DAC4511D01A
:100F2000284DAC450ED0284DAC450BD0274DAC45D7
:100F300008D0274DAC4505D0264DAC4502D0264DF6
:100F4000AC45E5D190F85CC001250CF01F0C05FA0A
:100F50000CFCC4F804C0D0F800C0CCF8043083689E
:100F6000402B05D0036899600068C260BDE8F08F2F
:100F700003689A600068C160BDE8F08F100002400D
:100F80002800024040000240580002407000024029
:100F900088000240B8000240A00002401004024055
:100FA00028040240400402405804024070040240F9
:100FB00088040240A0040240B804024008540258C9
:100FC0001C54025830540258445402585854025881
:100FD0006C54025880540258945402584FF4806163
:100FE000418081800322C18001818272C2720180AE
:100FF00032210182704700000A4808B501780029B3
:101000000ED10121017008494A68009243699A4251
:1010100002D20269521C02614968416100210170DB
:1010200008BD000038000024001000E00D490A68E7
:1010300042F080720A600C4900224A600B6843F05B
:1010400001030B6009494FF47A7348430849B0FB28
:10105000F3F3C1E90103054BB0FBF3F0C1E903026F
:10106000FFF7CABFFCED00E0001000E040420F00B7
:10107000380000247047C0E9001270474FF48061C7
:101080000180418000228180C1800321027241726F
:101090008172C27270470000F0B50A780F2A73D1CE
:1010A0003B4A4FF0000EA2F804E03A4A93895B1CD9
:1010B0009381B1F80120C2F30A0707808A78A7F26A
:1010C000DF37CB78D20842EA4312C2F30A064680E1
:1010D000CA780B79920942EA83024B7942EA832269
:1010E000C2F30A0585804A798B79520842EAC31215
:1010F000C2F30A04C480CA790B7A91F80AC0D209F3
:1011000042EA4302D3B24A7AC97A920842EA8C127E
:101110004FEA5C1C4CEAC1013B2F4FF4806CD2B209
:10112000C9B201D2A0F800C0A6F2DF363B2E01D230
:10113000A0F802C0A5F2DF353B2D01D2A0F804C013
:10114000A4F2DF343B2C01D2A0F806C0032502260E
:10115000012422B19E2A04D0612A04D004E0457201
:1011600002E0467200E0447221B19E2904D0612958
:1011700004D004E0857202E0867200E084729E2B47
:1011800003D0612B00D10472F0BD80F808E0F0BDFF
:1011900030010024C81E00240A460146024800B55A
:1011A000FFF77AFF002000BDB81E002472B6FEE7EC
:1011B000014801F02DBE000068010024014801F043
:1011C00027BE000008020024416B0268D2F8843078
:1011D0006FF38F0343EA8103C2F884300268D2F8C8
:1011E0008430B0F838C023F47F0343EA0C43C2F8DC
:1011F0008430826B11440268D2F888306FF38F0319
:1012000043EA8103C2F888300268D2F88830B0F827
:101210003CC023F4FE0343EA0C43C2F88830C26B9F
:1012200001EB42010268D2F8A0306FF38F0343EA6A
:101230008103C2F8A0300268D2F8A030B0F840C0F4
:1012400023F4FE0343EA0C43C2F8A030436C026C63
:1012500002FB03110268D2F8B0306FF38F0343EA48
:101260008103C2F8B0300268D2F8B030B0F848C09C
:1012700023F4FE0343EA0C43C2F8B030C36C826C23
:1012800002FB03110268D2F8AC306FF38F0343EA1C
:101290008103C2F8AC30436D026D02FB031102689A
:1012A000D2F8F0306FF38F0343EA8103C2F8F030D5
:1012B0000268D2F8F030B0F858C023F47C1343EA47
:1012C0000C43C2F8F030826D01EB42020168D1F8A4
:1012D000C0306FF38F0343EA8202C1F8C020016877
:1012E000D1F8C020B0F85C3022F47C1242EA03420C
:1012F000C1F8C0200168D1F8C02090F8603022F019
:101300007C5242EA0362C1F8C020416B294A02EBD9
:101310008101C166826B01EB82020267C36B02EB43
:10132000C3024267D0F844C0036C03FB0CF302EB2A
:1013300083028267D0F84CC0836C03FB0CF302EB92
:101340008302C267D0F854C0036D03FB0CF302EBB9
:101350008302C0F88020836D02EBC303C0F88430A1
:10136000D0F85CC0826E0CFB02FC03EB8C03C0F86F
:101370008830D0F860C00CFB02F203EB8202C0F8A8
:1013800090200D4B9A420AD9D0F89C1041F02001D0
:10139000C0F89C10032180F89810012070478A4201
:1013A00006D900220A60091DD0F890308B42F9D886
:1013B0000020704700AC0040FCD3004070B4D1F86E
:1013C00008C00C694D6844EA0C0C0C68002D40D034
:1013D00044F080444CEA040C8D69CC6991F820609B
:1013E0002C434D6945EA06652C438D8944EA054442
:1013F000D0F88450806E00FB03F005EB8000C0F84D
:1014000000C0001D0460031D0020134CD1F80CC067
:1014100014F80CC0BCF1000F19D902EB000C155CDC
:101420009CF8036045EA06659CF802609CF801C0E0
:10143000360446EA0C2C45EA0C0CC3F800C01B1D10
:10144000001DD1F80CC014F80CC08445E5D870BC60
:1014500070474CEA844CBFE7049500081549884260
:1014600001D1154870471549884202D11248D4303D
:1014700070471349884201D1124870471249884287
:1014800002D11048D43070471049884201D1104829
:1014900070471049884202D10D48D43070470E4938
:1014A000884201D10D4870470D498842FBD10B4855
:1014B000D4307047B8060024101000244C070024D4
:1014C000E0070024B811002468040024FC04002470
:1014D00060130024740800249005002408150024DB
:1014E0002406002410B5044637480079C00708D107
:1014F0003648C17BB4F98003012963D0401EA4F8AB
:101500008003B4F9800300214FF47A7207F0BCFF26
:10151000A4F88003B4F87C139FED2D1B9FED2E2BB8
:1015200011FB00F100EE101AB8EEC00B20EE010B1B
:10153000B7EEC00B84EDDB0AB4F87E1311FB00F0AC
:1015400000EE900AB8EEE01B21EE021BF7EEC10B95
:10155000C4EDDC0AB4F9460100EE900A04F54570CA
:10156000F8EEE00AFFF714F900EE100AB8EEC00A30
:1015700084EDDD0AB4F9320200EE100A04F5507071
:10158000F8EEC00A94EDDC0AFFF702F900EE100A4B
:1015900004F59E70B8EEC00A84EDDE0A94EDDD0A13
:1015A000BDEEC00A10EE101A06F0B4F994EDDE0A92
:1015B00004F50A70BDE81040BDEEC00A10EE101A26
:1015C00006F0A8B9401C9AE7B0170024B81E002402
:1015D000FCA9F1D24D62503FFCA9F1D24D6250BF3F
:1015E00010B558B1084C491E0BD310F8013B5340BD
:1015F000DBB234F8133083EA1222F4E74FF6FF70BF
:1016000010BD104610BD00009096000810B5054CA6
:1016100003E010F8013B5340E25C491EF9D210464A
:1016200010BD0000909500082DE9F84F044602F027
:10163000A9F800905CB194F8350002280AD0802007
:101640006065002084F834000120BDE8F88F012097
:10165000BDE8F88FB6492068B64EB74F8842DFF82C
:10166000DC82DFF8DC92DFF8DCA2DFF8DCB226D027
:10167000B04224D0B84222D0404520D048451ED0A8
:1016800050451CD058451AD0B04A904217D0B04AA5
:10169000904214D0AF4A904211D0AF4A90420ED03F
:1016A000AE4A90420BD0AE4A904208D0AD4A90422A
:1016B00005D0AD4A904202D0AC4A90420AD10268AD
:1016C00022F01E0202602068426922F0800242611C
:1016D000256804E0026822F00E0202602568206896
:1016E00088423ED0B0423CD0B8423AD0404538D093
:1016F000484536D0504534D0584532D0934A904270
:101700002FD0934A90422CD0924A904229D0924AAC
:10171000904226D0914A904223D0914A904220D0C4
:10172000904A90421DD0904A90421AD08F4A9042DF
:1017300017D08F4A904214D08E4A904211D08E4AD0
:1017400090420ED08D4A90420BD08D4A904208D0E4
:101750008C4A904205D08C4A904202D08B4A9042EB
:1017600004D1206E026822F4807202607049206801
:10177000884226D0B04224D0B84222D0404520D062
:1017800048451ED050451CD058451AD06F49884254
:1017900017D06F49884214D06E49884211D06E49E3
:1017A00088420ED06D4988420BD06D49884208D0DE
:1017B0006C49884205D06C49884202D06B49884206
:1017C00004D1016821F00101016003E0016821F00A
:1017D00001010160286810F0010F14D001F0D2FF60
:1017E0000099401A05280AD920206065032084F852
:1017F0003500002084F834000120BDE8F88F286807
:1018000010F0010FEAD14A4A01212068904226D007
:10181000B04224D0B84222D0404520D048451ED006
:1018200050451CD058451AD0484B984217D0484BC9
:10183000984214D0474B984211D0474B98420ED053
:10184000464B98420BD0464B984208D0454B9842A5
:1018500005D0454B984202D0444B98420AD1A06D26
:101860004FF03F0C94F85C3003F01F030CFA03F3C5
:10187000836007E0A06D94F85C3003F01F0301FA69
:1018800003F34360206890423ED0B0423CD0B8425F
:101890003AD0404538D0484536D0504534D05845E8
:1018A00032D02A4A90422FD0294A90422CD0294A3D
:1018B000904229D0284A904226D0284A904223D0EC
:1018C000274A904220D0274A90421DD0264A904273
:1018D0001AD0264A904217D0254A904214D0254A61
:1018E000904211D0244A90420ED0244A90420BD00C
:1018F000234A904208D0234A904205D0224A90427F
:1019000002D0224A90420BD1626EA06E5060E06E0F
:1019100030B1026822F480720260226F606F506002
:1019200084F83510002084F83400BDE8F88F0000FA
:1019300010000240280002404000024058000240CF
:101940007000024088000240A0000240B80002403F
:10195000100402402804024040040240580402409F
:101960007004024088040240A0040240B80402400F
:10197000085402581C540258305402584454025817
:10198000585402586C5402588054025894540258C7
:101990002DE9F05F002808D090F83510022907D013
:1019A000802141650120BDE8F09F0120BDE8F09F46
:1019B000DFF81CE20168874BDFF81CC27145874CD9
:1019C000874D884E884FDFF82482DFF82492DFF8B5
:1019D00024A2DFF824B2894A25D0994223D0614558
:1019E00021D0A1421FD0A9421DD0B1421BD0B94283
:1019F00019D0DFF80CE2714515D0DFF808E2714527
:101A000011D0DFF804E271450DD041450BD04945B6
:101A100009D0DFF8F8E1714505D0514503D05945AB
:101A200001D0914232D14FF0040E80F835E0684881
:101A3000814221D099421FD061451DD0A1421BD0C7
:101A4000A94219D0B14217D0B94215D06C48814291
:101A500012D06C4881420FD06B4881420CD0414576
:101A60000AD0494508D06948814205D0514503D084
:101A7000594501D0914204D1086820F00100086066
:101A8000A3E0086820F0010008609EE0D1F800E0C3
:101A90002EF00E0EC1F800E0DFF834E10168714568
:101AA00025D0994223D0614521D0A1421FD0A9421F
:101AB0001DD0B1421BD0B94219D0DFF844E17145C5
:101AC00015D0DFF840E1714511D0DFF83CE17145F8
:101AD0000DD041450BD0494509D0DFF830E17145C3
:101AE00005D0514503D0594501D0914206D1D1F8D6
:101AF00000E02EF0010EC1F800E005E0D1F800E0B2
:101B00002EF0010EC1F800E0DFF8C4E00168714575
:101B100039D0994237D0614535D0A14233D0A9425E
:101B200031D0B1422FD0B9422DD0354B99422AD075
:101B3000344B994227D0344B994224D0414522D08E
:101B4000494520D0314B99421DD051451BD05945B4
:101B500019D0914217D02E4A914214D02D4A914269
:101B600011D02D4A91420ED02C4A91420BD02C4AD2
:101B7000914208D02B4A914205D02B4A914202D083
:101B80002A4A914218D1016E0A6822F480720A60D2
:101B9000816D90F85C2002F01F0301229A404A6098
:101BA000426E816E5160C16E31B10A6822F480725A
:101BB0000A60026F416F5160012180F835100021E9
:101BC00080F83410016D01B188470020BDE8F09F16
:101BD000100002402800024040000240580002402D
:101BE0007000024088000240A00002404004024011
:101BF0005804024088040240A0040240B804024095
:101C0000B800024010040240280402407004024060
:101C1000085402581C540258305402584454025874
:101C2000585402586C540258805402589454025824
:101C3000406D70472DE9F04F83B0044600200290BC
:101C40004FF41651FD480068B0FBF1F00190A56D0E
:101C50002E682968FA4F2068DFF8E8A3DFF8E8B3B8
:101C6000B842DFF8E883DFF8E8932DD0524690427F
:101C70002AD05A46904227D0404525D0484523D007
:101C8000F44A904220D0F44A90421DD0F34A904248
:101C90001AD0F34A904217D0DFF8C8C3604513D07A
:101CA000F14A904210D0DFF8C4E370450CD0F04AFE
:101CB000904209D0EF4A904206D0EF4A904203D0BA
:101CC000EE4B984240F0408294F85C10082201F0FC
:101CD0001F0102FA01F1314241D0B84228D05045EB
:101CE00026D0584524D0404522D0484520D0D94957
:101CF00088421DD0D84988421AD0D849884217D086
:101D0000D749884214D0D749884211D0D649884251
:101D10000ED0D64988420BD0D549884208D0D54943
:101D2000884205D0D449884202D0D449884203D1A0
:101D3000016801F0040102E0016801F0080171B1DD
:101D4000016821F00401016094F85C0000F01F00BC
:101D500002FA00F0A860606D40F00100606594F840
:101D60005C0000F01F01012000FA01F1314234D083
:101D70002068B84228D0504526D0584524D0404548
:101D800022D0484520D0B34A90421DD0B24A90425A
:101D90001AD0B24A904217D0B14A904214D0B14AF8
:101DA000904211D0B04A90420ED0B04A90420BD02F
:101DB000AF4A904208D0AF4A904205D0AE4A904216
:101DC00002D0AE4A90427DD1406910F0800F04D01D
:101DD000A960606D40F00200606594F85C0000F05E
:101DE0001F01042000FA01F1314234D02068B842CA
:101DF00028D0504526D0584524D0404522D04845CB
:101E000020D0944A90421DD0934A90421AD0934ACF
:101E1000904217D0924A904214D0924A904211D0E8
:101E2000914A90420ED0914A90420BD0904A9042F3
:101E300008D0904A904205D08F4A904202D08F4AF3
:101E4000904245D1006810F0020F04D0A960606D87
:101E500040F00400606594F85C0000F01F01102061
:101E600000FA01F1314259D02068B84228D05045DB
:101E700026D0584524D0404522D0484520D0754A28
:101E800090421DD0744A90421AD0744A904217D0A2
:101E9000734A904214D0734A904211D0724A9042D1
:101EA0000ED0724A90420BD0714A904208D0714ACB
:101EB000904205D0704A904202D0704A904209D1B7
:101EC000006800E002E000F0080006E0006884E737
:101ED0000068C0E7006800F00400F8B1A96020685D
:101EE000016811F4802F0DD0006810F4002F04D089
:101EF000A16C99B12046884710E0216C71B1204651
:101F000088470BE0016811F4807F03D1016821F05C
:101F100008010160216C09B12046884794F85C00F3
:101F200000F01F01202000FA01F131426FD020683B
:101F3000B84228D0504526D0584524D0404522D01C
:101F4000484520D0434A90421DD0434A90421AD07F
:101F5000424A904217D0424A904214D0414A90429D
:101F600011D0414A90420ED0404A90420BD0404A94
:101F7000904208D03F4A904205D03F4A904202D05A
:101F80003E4A904203D1006800F0100002E0006871
:101F900000F00200D8B3A96094F8350004280DD0F1
:101FA0002068016811F4802F37D0006810F4002FEA
:101FB0002ED0E16B59B32046884764E02068016861
:101FC00021F0160101602068416921F08001416122
:101FD000206C08B9A06C20B12068016821F00801CC
:101FE000016094F85C003F2100F01F0001FA00F04E
:101FF000A860012084F83500002084F83400216DA9
:1020000000297BD003B02046BDE8F04F084737E0F9
:10201000616CA9B32046884735E0016811F4807FE0
:1020200009D1016821F010010160012084F8350018
:10203000002084F83400E16B11B322E00400002496
:1020400010000240280002404000024058000240B8
:102050007000024088000240A0000240B800024028
:102060001004024028040240400402405804024088
:102070007004024088040240A0040240B8040240F8
:1020800001E020468847606D002837D0606D10F071
:10209000010F51D0042084F835002068B84228D0C0
:1020A000504526D0584524D0404522D0484520D020
:1020B000AB4988421DD0AB4988421AD0AA49884210
:1020C00017D0AA49884214D0A949884211D0A949F9
:1020D00088420ED0A84988420BD0A849884208D02F
:1020E000A749884205D0A749884202D0A64988421C
:1020F00005D1016821F00101016004E096E001686A
:1021000021F00101016021680298019A401C0290AF
:10211000904203D8086810F0010FF5D1086810F05C
:10212000010F03D0032084F8350002E0012084F879
:102130003500002084F83400E16C002976D003B02B
:102140002046BDE8F04F0847904B984214D0904B82
:10215000984211D08F4B98420ED08F4B98420BD0A3
:102160008E4B984208D08E4B984205D08D4B9842AA
:1021700002D08D4B984259D103684FF0040A94F86D
:102180005C6006F01F060AFA06FA1AEA010F5AD036
:1021900013F0040F57D0C5F804A013F4004F12D069
:1021A00013F4803F07D0216C00293FD003B02046B4
:1021B000BDE8F04F0847A16C002937D003B0204696
:1021C000BDE8F04F084713F0200F34D12068B84223
:1021D00027D07649884224D07549884221D040458D
:1021E0001FD048451DD05E4988421AD05D498842BB
:1021F00017D05D49884214D05C49884211D06045AF
:102200000FD05C4988420CD070450AD05B498842A7
:1022100007D05B49884204D0904202D05A49884294
:1022200005D1016821F00801016004E083E0016844
:1022300021F004010160216C00297CD003B020460C
:10224000BDE8F04F08474FF0020A0AFA06FA1AEA08
:10225000010F5FD013F0020F5CD0C5F804A013F497
:10226000004F12D013F4803F07D0E16B002974D0E7
:1022700003B02046BDE8F04F0847616C00296CD0E0
:1022800003B02046BDE8F04F084713F0200F39D1C6
:102290002068B84227D04549884224D04449884222
:1022A00021D040451FD048451DD02D4988421AD025
:1022B0002C49884217D02C49884214D02B49884297
:1022C00011D060450FD02B4988420CD070450AD000
:1022D0002A49884207D02A49884204D0904202D035
:1022E0002949884204D1016821F01401016003E00A
:1022F000016821F00A010160012084F83500002006
:1023000084F83400E16B002927D003B02046BDE8F3
:10231000F04F08470822B2400A421ED013F0080FBF
:102320001BD0016821F00E01016094F85C0000F000
:102330001F01012000E010E000FA01F16960606512
:1023400084F83500002084F83400E16C002904D0C2
:1023500003B02046BDE8F04F084703B0BDE8F08F5A
:1023600088000240A0000240B80002401004024071
:102370002804024040040240580402407004024015
:1023800088040240A0040240B804024008540258E5
:102390001C5402583054025844540258585402589D
:1023A0006C54025880540258945402582800024039
:1023B000400002402DE9F05F044601F0E3F90646D3
:1023C000002C6AD0DC4F022220680025DFF86C83E5
:1023D000DFF86C93B842DFF86CA3DFF86CB328D059
:1023E000DA49884225D0404523D0484521D0504580
:1023F0001FD058451DD0D64988421AD0D5498842A9
:1024000017D0D549884214D0D449884211D0D44934
:1024100088420ED0D34988420BD0D349884208D095
:10242000D249884205D0D249884202D0D149884257
:102430007ED184F8352084F83450B84228D0C3497E
:10244000884225D0404523D0484521D050451FD053
:1024500058451DD0BE4988421AD0BE49884217D07F
:10246000BD49884214D0BD49884211D0BC49884238
:102470000ED0BC4988420BD0BB49884208D0BB492A
:10248000884205D0BA49884202D0BA49884207D169
:10249000016821F00101016006E00120BDE8F09F24
:1024A000016821F0010101602068006810F0010F4F
:1024B00011D001F067F9801B052807D9202060653D
:1024C000032084F835000120BDE8F09F20680068F3
:1024D00010F0010FEDD122681068A7490840E368A9
:1024E000A168D4F814C01943236943EA0C031943C3
:1024F000A3691943E3691943236A19430843616ACD
:10250000042903D1236BE16A194308439B490968F5
:102510006FF30F01B1F1005F11D36168A1F12903DD
:10252000052B0AD9163B032B07D9083B012B00E0EA
:102530002CE002D94F39032901D840F480101060F3
:102540002068406920F00701606A40EA010604281B
:102550000ED1A06A0643E06A50B12046FEF7D8FBD0
:1025600030B140206065012084F83500BDE8F09F5F
:10257000206846612046FEF7A7FA94F85C103F22D7
:1025800001F01F0102FA01F181605BE07C498842A1
:1025900014D07C4B984211D07B4B98420ED07B4B91
:1025A00098420BD07A4B984208D07A4B984205D08B
:1025B000794B984202D0794B98427DD188420CD019
:1025C0007049884209D07049884206D06F498842D4
:1025D00003D06F49884200D06E4984F8352084F8D2
:1025E000345002686FF31012A168402979D0802915
:1025F00079D00021E36841EAD301236941EAD3019C
:10260000636941EAD301A36941EAD301E36941EA7D
:10261000D301236A41EA1311114301606049206824
:1026200001446048A0FB011000098000E0652046DD
:10263000FEF74AFA94F85C10012201F01F0102FA39
:1026400001F141602068B84242D0404988423FD001
:1026500040453DD048453BD0504539D0584537D00E
:102660003B49884234D03B49884231D03A4988427C
:102670002ED03A4988422BD03949884228D039494E
:10268000884225D03849884222D0384988421FD014
:10269000374988421CD03749884219D03849884286
:1026A00016D03849884213D03749884210D037496C
:1026B00088420DD0364900E018E0884208D03549FC
:1026C000884205D03449884202D0344988422CD10E
:1026D0002046FEF76BFAA06880280FD00FE000E0DC
:1026E00001E0102186E74FF4804183E740206065D8
:1026F000032084F835000120BDE8F09F6560216E5D
:1027000020790860616EA06E48606068401E0728EE
:1027100008D82046FEF7B6FAE06E0560216F606FBC
:10272000486002E0E566256765676565012084F815
:1027300035000020BDE8F09F10000240400002403C
:102740005800024070000240880002402800024009
:10275000A0000240B80002401004024028040240D9
:1027600040040240580402407004024088040240C1
:10277000A0040240B80402403F8010FE0010005C3C
:10278000085402581C5402583054025844540258F9
:10279000585402586C5402588054025894540258A9
:1027A000F8ABFDA7CDCCCCCC2DE9F84F04460020EA
:1027B0000090002C16D094F83400012815D0012088
:1027C00084F8340094F835C00020BCF1010F0FD01C
:1027D0004FF40061616584F8340001200090009896
:1027E000BDE8F88F0120BDE8F88F0220BDE8F88F22
:1027F0004FF0020C84F835C06065DFF82CC2206809
:102800008A4D8B4E60458B4FDFF82C82DFF82C927F
:10281000DFF82CA2DFF82CB22DD0A8422BD0B0428A
:1028200029D0B84227D0404525D0484523D050452F
:1028300021D058451FD0DFF810C260451BD0DFF80B
:102840000CC2604517D0DFF808C2604513D0DFF82E
:1028500004C260450FD0DFF800C260450BD0DFF83E
:10286000FCC1604507D0DFF8F8C1604503D0DFF850
:10287000F4C1604506D1D0F800C02CF0010CC0F8BE
:1028800000C005E0D0F800C02CF0010CC0F800C07A
:102890002046FEF77DFA64492068884225D0A84288
:1028A00023D0B04221D0B8421FD040451DD048456A
:1028B0001BD0504519D0584517D0634A904214D0C8
:1028C000624A904211D0624A90420ED0614A9042D0
:1028D0000BD0614A904208D0604A904205D0604ACD
:1028E000904202D05F4A90420DD1026822F01E024F
:1028F00042F016020260206C90B12068026842F03B
:10290000080202600CE0026822F00E0242F00A02A5
:102910000260206C20B12068026842F0040202606C
:10292000206888423DD0A8423BD0B04239D0B8425E
:1029300037D0404535D0484533D0504531D0584543
:102940002FD0414A90422CD0404A904229D0404A50
:10295000904226D03F4A904223D03F4A904220D016
:102960003E4A90421DD03E4A90421AD03D4A904283
:1029700017D03D4A904214D03C4A904211D03C4A74
:1029800090420ED03B4A90420BD03B4A904208D036
:102990003A4A904205D03A4A904202D0394A90428F
:1029A0000ED1206E026812F4803F03D0026842F418
:1029B00080720260E06E18B1026842F480720260B8
:1029C0002068884225D0A84223D0B04221D0B84206
:1029D0001FD040451DD048451BD0504519D0584503
:1029E00017D01949884214D01849884211D0184983
:1029F00088420ED0174988420BD01749884208D028
:102A00001649884205D01649884202D015498842A5
:102A100004D1016841F001010160E0E6016841F084
:102A200001010160DBE600001000024028000240C6
:102A300040000240580002407000024088000240FE
:102A4000A0000240B80002401004024028040240E6
:102A500040040240580402407004024088040240CE
:102A6000A0040240B8040240085402581C54025802
:102A70003054025844540258585402586C54025866
:102A8000805402589454025890F89830012B09D081
:102A9000022B07D0D0F89C1041F00201C0F89C1026
:102AA000012070470368D3F858C01CEA010F06D113
:102AB000D3F85CC04CF0010CC3F85CC008E0D3F85C
:102AC00058C031EA0C0C26D04FF0030CC3F85CC0A0
:102AD00011F4007F06D00368D3F8E0C04CEA020C82
:102AE000C3F8E0C011F4806F06D00368D3F8E4C0E7
:102AF0004CEA0202C3F8E4200068426D21F440135E
:102B000023F040431A4342650648026842EA917145
:102B1000016000207047D3F85CC04CF0020CC3F891
:102B20005CC0D5E714A8004070B5044694F898003E
:102B3000022807D0D4F89C0040F00800C4F89C009C
:102B4000012070BD2068D0F8C03013F07C5F0CD03D
:102B5000D0F8C43013F4001F0FD0D4F89C0040F418
:102B60000070C4F89C00012070BDD4F89C0040F0B7
:102B70002000C4F89C00012070BDD0F8C400C0F350
:102B8000044520462B46FEF719FC21680120A84089
:102B9000C1F8D000C4F89400002070BD704790F8D0
:102BA0009820012A09D0022A07D0D0F89C1041F0C1
:102BB0000201C0F89C1001207047CA680B6893B1ED
:102BC000072A0B6943EA42732ED091F808C04A697C
:102BD00042EA8C724968006F00EBC10003604260FA
:102BE0004FF000007047072A12D091F808C04FEA52
:102BF000C2624B6943EA8C73B1F810C042EA0C42DE
:102C000043EA02024968C06E00EB81000260E7E718
:102C10000B8A4FF0605C8A6942EA0342CB694CEA56
:102C2000032342EA0302EDE78A69D3E7704770475E
:102C3000F0B44FF0000C90F89840022C08D0D0F877
:102C40009C1041F00801C0F89C10F0BC01207047B6
:102C500040290DD0412940D0046D8C4273D8D0F862
:102C60009C1041F02001C0F89C10F0BC012070477E
:102C70000468D4F8A05015F4FE0F1CD0D4F8A4506A
:102C800015F07F0F20D0D4F8A45015F0807F06D027
:102C9000D4F8A05015F0004F01D54FF0010CD4F836
:102CA000A440C4F30524A444456C446F05FB0CF513
:102CB00004EB85044DE0D0F89C1041F02001C0F8F1
:102CC0009C10F0BC01207047D0F89C1041F480713A
:102CD000C0F89C10F0BC012070470468D4F8B050D4
:102CE00015F4FE0F1CD0D4F8B45015F07F0F20D08F
:102CF000D4F8B45015F0807F06D0D4F8B05015F059
:102D0000004F01D54FF0010CD4F8B440C4F30524B2
:102D1000A444C56C846F05FB0CF504EB850418E036
:102D2000D0F89C1041F02001C0F89C10F0BC0120AC
:102D30007047D0F89C1041F48071C0F89C10F0BC32
:102D400001207047FFE7456DC46F05FB01F504EBFB
:102D50008504256805F080455560E5B3256825F0B4
:102D600060451560256805F000559560256805F0FB
:102D700000451561241D2588ADB2D5612568C5F3D0
:102D80000347D760256805F480155561256805F46B
:102D9000001595612568C5F3066515622568ED0F78
:102DA0005562251D0024184EF75D002F06D92F5DB2
:102DB0001F55641CD768F75DA742F8D8402910D08A
:102DC000412912D00122202913D2006802FA01F110
:102DD000C0F8981014E0FFE72568C5F38A45156030
:102DE000C0E70068C0F8A8C00AE00068C0F8B8C032
:102DF00006E0006801F01F0102FA01F1C0F89C1022
:102E00000020F0BC704700000495000870470000E7
:102E10002DE9F04F83B00446BC4F38688007391D58
:102E2000096800EA81792068016D01F47041426D02
:102E300002EA010A016D01F00F01426D02EA010B85
:102E4000016D01F0F001426D11400291016D01F040
:102E50007151426D02EA0108016D01F06071426D2D
:102E600011400191456D066D15F4807F09D016F46F
:102E7000807F06D0B9150165002038602046FFF735
:102E8000C5FF15F4806F10D016F4806F0DD0206848
:102E9000D0F8DC10D0F8E42011404FF480620265D5
:102EA00000203860204600F061FBB9F1000F0CD023
:102EB000216829F4401020F0404008654FEA9970DD
:102EC000386049462046FFF769FEBAF1000F0CD082
:102ED00021682AF4401020F0404008654FEA9A70BB
:102EE00038605146204600F043FBBBF1000F0CD088
:102EF00021682BF4401020F0404008654FEA9B7099
:102F000038605946204600F0E3FA029868B121681B
:102F1000029820F4401020F0404008650298800F8D
:102F200038600299204600F001FB15F4006F0BD0C9
:102F300016F4006F08D021684FF400600865002087
:102F40003860204600F015FB15F4007F10D016F411
:102F5000007F0DD02068D0F8D810D0F8E0201140C4
:102F60004FF40072026500203860204600F0FFFA3E
:102F700015F4002F0BD016F4002F08D021684FF461
:102F80000020086500203860204600F09FFA15F404
:102F9000803F0BD016F4803F08D021684FF480307A
:102FA000086500203860204600F0DFFA15F4802F15
:102FB0000BD016F4802F08D021684FF480200865CC
:102FC00000203860204600F0CFFA15F4003F0ED004
:102FD00016F4003F0BD021684FF400300865002044
:102FE0003860D4F89C0040F08000C4F89C00019840
:102FF00068B12168019820F4401020F04040086535
:103000000198800F386001992046FFF710FEB8F153
:10301000000F0ED0216828F4401020F040400865D1
:103020004FEA98703860D4F89C0040EA0800C4F871
:103030009C002068A0F18041B1F520415CD160681E
:10304000816811F0030F57D0016A01F00F01426A45
:103050001140026A02F03002436A03EA0207026A80
:1030600002F4C072436A03EA0208026A02F4FC42F4
:10307000436A03EA0205026A02F4F022436A03EAA1
:103080000206D0F82490D0F820A019B101622046A1
:1030900000F067FA2FB1606807623946204600F0F9
:1030A00062FA19F0400F0DD01AF0400F0AD0606894
:1030B000C16B090CC26B02F03F0240230362204641
:1030C00000F050FAB8F1000F06D06068C0F8208018
:1030D0004146204600F044FA35B160680562D4F8F4
:1030E0009C002843C4F89C0036B160680662D4F89E
:1030F0009C003043C4F89C00D4F89C00002802D007
:103100002046FFF793FD03B0BDE8F08F10A8004004
:103110002DE9F04194B004464C22A14901A8FDF7E5
:1031200007FA5CB19F4F2068B84202D100F5807069
:10313000606094F89800002620B108E014B00120E7
:10314000BDE8F08184F89960204600F02DF92068F0
:10315000816921F01001816100F014FB05462068AF
:1031600080694FF0030810F0080F15D000F00AFB3B
:10317000401B0A280BD9D4F89C0040F00100C4F889
:103180009C0084F8988014B00120BDE8F08120688C
:10319000806910F0080FE9D12068816941F00101D0
:1031A000816100F0EFFA05462068806910F0010F98
:1031B00015D100F0E7FA401B0A280BD9D4F89C007F
:1031C00040F00100C4F89C0084F8988014B00120FD
:1031D000BDE8F0812068806910F0010FE9D0206817
:1031E000816941F002018161207C012839D0206889
:1031F000816941F040018161607C012837D02068FD
:10320000816921F480418161A07C012835D020684A
:10321000816941F48051816120688169A26821F44B
:103220004071114381612068816921F0A4018161AD
:103230002068016921F010010161E068012822D0B5
:1032400030B302282BD02068816941F08001816170
:103250002068016941F010010161E068032818D07D
:1032600022E02068816921F040018161C4E7206883
:10327000816941F480418161C6E72068816921F458
:1032800080518161C8E72068816941F00401816152
:103290000AE02068816941F02001816104E0206832
:1032A000816941F020018161207EE169401E491E53
:1032B000400640EA0120216A491E0843A18A491EAE
:1032C00040EA01402168C861A068B0F5407F0FD195
:1032D000E16AA06A491E401E40EA0120216B491E96
:1032E00040EA0110A18C491E40EA01402168C860F3
:1032F000206E30B12068D0F8C010626E1143C0F863
:10330000C010216EE06DC84201A90AD02068D0F833
:10331000C820A36E22F0070251F823301A43C0F8E8
:10332000C820206C50B12068D0F8BC20636C22F01B
:10333000070251F823301A43C0F8BC20A06C58B1E2
:103340002068D0F8BC20E36C22F0700251F82330E2
:1033500042EA0312C0F8BC20206D58B12068D0F8B2
:10336000BC20636D22F4E06251F8231042EA01218F
:10337000C0F8BC102068B84204D16068816821F0B0
:1033800003018160C4F89460C4F89C60012084F853
:1033900098002046FDF718FF14B0BDE8F08100004A
:1033A0001495000800A000402DE9F043B7B0044692
:1033B000142130A8FDF7EEF8C0216846FDF7EAF8C1
:1033C0003E4D00263B494FF0805220680C3D3A4F5D
:1033D0004FF00208394C88424FF0090931D10020E2
:1033E0001C925113CDE90010684600F0F3FD08B1BE
:1033F000FDF7DCFE3868401C3860012807D12068E2
:1034000040F480702060206800F480703590286857
:1034100040F001002860286830A900F001003590D4
:103420004FF4C0503090CDE931862548CDE933695D
:1034300000F0A0F801220221132000F071FB1320FC
:1034400033E02049884232D100201C924FF40041E1
:10345000CDE90010684600F0BDFD08B1FDF7A6FEFD
:103460003868401C3860012807D1206840F480701B
:103470002060206800F480703590286840F00200D9
:103480002860286830A900F0020035906020309054
:10349000CDE931860C48CDE9336900F06BF80122A3
:1034A0001420114600F03CFB142000F02BFB37B039
:1034B000BDE8F08300A0004000000024EC44025866
:1034C0000000025800A400400004025870470000A9
:1034D00030B51349044600688DB00AAD88420BD15F
:1034E00040212B466A462046FFF7A2FB012803D065
:1034F0000C48C168684688470B49206888420CD14F
:1035000040212B466A462046FFF792FB012804D053
:1035100004481030C168684688470DB030BD0000CF
:1035200000A000401800002400A40040704790F85C
:103530009810012907D0D0F89C1041F00401C0F880
:103540009C1001207047022180F8981001688A6958
:1035500022F001028A610021C0F89C10002070470F
:1035600070477047704770477047704770477047A3
:10357000704770472DE9F84F0022DFF8E4C10B686F
:10358000002B7DD0DFF8DCB14FF0B04A4FF0010ED8
:103590004FF003084FF00F090B680EFA02F52B40AD
:1035A000002B6ED00C7904F00304012C01D0022C06
:1035B00011D18668540008FA04F7BE43CF6807FAB1
:1035C00004F4344384604468AC430D79C5F30015BA
:1035D00095402C4344604C6838EA040409D0C5681F
:1035E000540008FA04F6B5438E6806FA04F42C4336
:1035F000C4600C7904F00304022C0DD1D40800EB54
:1036000084052E6A5407E40E09FA04F7BE430F69D5
:1036100007FA04F434432C620568540008FA04F6EF
:10362000B5430E7906F0030606FA04F42C43046051
:103630004C6814F4403F78D0DBF8004044F00204BA
:10364000CBF80040DBF8004004F00204009422F0C4
:10365000030404F1B046D6F8084495072D0F09FA83
:1036600005F724EA0707A0F1B044B4F5003463D0AD
:10367000A0F1B044B4F5013460D0A0F1B04401E051
:1036800058E052E0B4F502345AD0A0F1B044B4F599
:10369000033457D0A0F1B044B4F5043454D0A0F1B1
:1036A000B044B4F5053451D0A0F1B044B4F50634BB
:1036B0004ED0A0F1B044B4F507344BD0A0F1B044E3
:1036C000B4F5083448D0A0F1B044B4F5093445D07D
:1036D0000A24AC403C43C6F80844DAF800409C4356
:1036E0004D6815F4801F00D01C43CAF80040DAF87A
:1036F00004409C434D6815F4001F00D01C43CAF8D9
:103700000440DCF804409C434D6815F4003F00D0B1
:103710001C43CCF80440DCF800409C434D6815F491
:10372000803F00D01C43CCF80040521C0B68D340B3
:103730007FF432AFBDE8F88F0024CAE70124C8E760
:103740000224C6E70324C4E70424C2E70524C0E733
:103750000624BEE70724BCE70824BAE70924B8E733
:1037600080000058F4440258002A01D0816170475B
:10377000090481617047000001480068000C70472F
:103780000010005C01488068704700000C000024B5
:1037900090F84120202A01D00220704790F8402064
:1037A000012A20D0012280F84020242280F84120E4
:1037B0000268136823F0010313600268136823F49E
:1037C00080531360026813681943116001680A6826
:1037D00042F001020A60202180F84110002180F8A7
:1037E0004010002070470220704790F84120202AA6
:1037F00001D00220704790F84020012A1ED00122FB
:1038000080F84020242280F841200268136823F0C9
:10381000010313600268136823F4706343EA012113
:10382000116001680A6842F001020A60202180F8F4
:103830004110002180F8401000207047022070479E
:1038400070B50446002C04D094F84100002510B156
:1038500006E0012070BD84F84050204600F056F884
:10386000242084F841002068016821F001010160F2
:10387000606820F07061206801612068816821F42F
:1038800000418160E068012833D02168A06840F4DD
:1038900004408860E068022831D02068416821F443
:1038A000006141602068416841F4004141F00071CD
:1038B00041602068C16821F40041C16061692069EC
:1038C0000843A16940EA01202168C860216AE069D3
:1038D0000843216808602068016841F00101016027
:1038E0006564202084F84100256384F8425000205C
:1038F00070BD2168A06840F400408860CAE7206875
:10390000416841F400614160CCE7000010B5B6B0F9
:103910000446142130A8FCF73DFEC0216846FCF7A0
:1039200039FE1949206888422BD1002021900821B6
:103930000446CDE90010684600F04CFB08B1FDF7E5
:1039400035FC1248016841F002010160006830A9AD
:1039500000F0020035904FF4406030901220CDE925
:1039600031040420CDE933400948FFF703FE07483E
:103970000830016841F480010160006800F48000B3
:10398000359036B010BD000000580040E0440258A9
:10399000000402580248816802781144816070472F
:1039A0000C00002410B5032000F0F0F801F010FA2C
:1039B0000F4A1168C1F303230E49CB5C03F01F03C8
:1039C000D840126802F00F02895C0B4A01F01F0117
:1039D00020FA01F1116009490860002000F010F898
:1039E00008B1012010BD00F07DF8002010BD0000DE
:1039F00018440258F494000808000024040000242D
:103A000070B504460F4D2A78002A0CD04FF47A7016
:103A10000D49B0FBF2F00968B1FBF0F001F066FF70
:103A200018B1012070BD012070BD102C07D20022FA
:103A30002146501E00F074F86C60002070BD01201B
:103A400070BD00000C00002404000024124A4178DC
:103A5000116012490A6822F001020A600B1F4268D5
:103A60001A60027BC37A120742EA0362837A42EA4F
:103A7000C342437B42EA8342837B42EA4342C37BA5
:103A800042EA0342437A42EA0322037A007842EA96
:103A9000430210430860704798ED00E0A0ED00E09D
:103AA000BFF35F8F0448016821F48031016003494E
:103AB000002008607047000024ED00E094ED00E075
:103AC000064940F0010008600548016841F4803172
:103AD0000160BFF34F8FBFF36F8F704794ED00E02D
:103AE00024ED00E0064882B0016841F00201016067
:103AF000006800F002000090052002B000F046B817
:103B0000F444025800280ADB012200F01F0102FAE7
:103B100001F14009800000F1E020C0F80011704779
:103B20004DF8044D184B1B68C3F30223C3F1070C77
:103B3000BCF1040F01D94FF0040C1C1D072C01D25D
:103B4000002300E0DB1E012404FA0CFCACF1010CA4
:103B50000CEA0101994004FA03F35B1E1A40114379
:103B6000002807DB00F1E020090180F800145DF86F
:103B7000044B704700F00F0000F1E020090180F8CD
:103B8000141D5DF8044B70470CED00E000F00700D9
:103B9000064A11684FF6FF03194041EA002040F041
:103BA000FD7040F080601060704700000CED00E098
:103BB00070B515490A6812F0040F0DD00A6822F09A
:103BC000070210430860FFF7DDFD04460F4D28682B
:103BD00010F4005F09D014E0096801F00701814288
:103BE00001D0012070BD002070BDFFF7CBFD001B90
:103BF000B0F57A7F01D9012070BD286810F4005F0C
:103C0000F3D0002070BD00000C4802580448025850
:103C100010B501F091F805490968054AC1F3021190
:103C2000515C01F01F01C84010BD00002044025843
:103C3000F494000869490A6802F003020968C1F3B4
:103C40000531674B1B68C3F30013DFF898C1DCF83C
:103C500000C0CCF3CC0C1CFB03F300EE103AB8EE22
:103C6000400A002972D09FED601A604B002AF7EEDF
:103C7000000A46D0DFED5E1A012A68D0022A67D01A
:103C800002EE101A1968F8EE422A81EEA22AC1F358
:103C9000080101EE901AF8EE611A40EE011A31EEB9
:103CA000A00A22EE000A1968C1F3462101EE101A9B
:103CB000B8EE411A31EE201AC0EE011ABCEEE11A3C
:103CC00080ED001A1968C1F3064101EE101AB8EE32
:103CD000411A31EE201AC0EE011ABCEEE11A80ED55
:103CE000011A1968C1F3066101EE101AB8EE411A03
:103CF00071EE200A80EE201ABCEEC10A80ED020AA5
:103D000070473C4AD2F800C01CF0200F21D0126846
:103D1000DFF8E4C0C2F3C1022CFA02F201EE902AED
:103D2000F8EE612A01EE901A1968F8EE611A82EE37
:103D3000A12AC1F3080101EE901AF8EE611A40EED3
:103D4000011A31EEA00A22EE000AACE741E016E0CB
:103D500029E001EE901ADFED292A1968F8EE611AC0
:103D600082EEA12AC1F3080101EE901AF8EE611A61
:103D700040EE011A31EEA00A22EE000A93E702EEAD
:103D8000101A1968F8EE422A81EEA22AC1F308013E
:103D900001EE901AF8EE611A40EE011A31EEA00A17
:103DA00022EE000A7FE701EE901ADFED152A19686E
:103DB000F8EE611A82EEA12AC1F3080101EE901A11
:103DC000F8EE611A40EE011A31EEA00A22EE000A66
:103DD00069E7002101604160816070472844025812
:103DE0002C4402583C440258000000393844025820
:103DF0000024744A004402580090D0030024744CFC
:103E00000024F44A69490A6802F003020968C1F310
:103E10000551674B1B68C3F30023DFF898C1DCF83A
:103E200000C0CCF3CC0C1CFB03F300EE103AB8EE50
:103E3000400A002972D09FED601A604B002AF7EE0D
:103E4000000A46D0DFED5E1A012A68D0022A67D048
:103E500002EE101A1968F8EE422A81EEA22AC1F386
:103E6000080101EE901AF8EE611A40EE011A31EEE7
:103E7000A00A22EE000A1968C1F3462101EE101AC9
:103E8000B8EE411A31EE201AC0EE011ABCEEE11A6A
:103E900080ED001A1968C1F3064101EE101AB8EE60
:103EA000411A31EE201AC0EE011ABCEEE11A80ED83
:103EB000011A1968C1F3066101EE101AB8EE411A31
:103EC00071EE200A80EE201ABCEEC10A80ED020AD3
:103ED00070473C4AD2F800C01CF0200F21D0126875
:103EE000DFF8E4C0C2F3C1022CFA02F201EE902A1C
:103EF000F8EE612A01EE901A1968F8EE611A82EE66
:103F0000A12AC1F3080101EE901AF8EE611A40EE01
:103F1000011A31EEA00A22EE000AACE741E016E0F9
:103F200029E001EE901ADFED292A1968F8EE611AEE
:103F300082EEA12AC1F3080101EE901AF8EE611A8F
:103F400040EE011A31EEA00A22EE000A93E702EEDB
:103F5000101A1968F8EE422A81EEA22AC1F308016C
:103F600001EE901AF8EE611A40EE011A31EEA00A45
:103F700022EE000A7FE701EE901ADFED152A19689C
:103F8000F8EE611A82EEA12AC1F3080101EE901A3F
:103F9000F8EE611A40EE011A31EEA00A22EE000A94
:103FA00069E7002101604160816070472844025840
:103FB0002C4402584444025800000039404402583E
:103FC0000024744A004402580090D0030024744C2A
:103FD0000024F44A2DE9F84F044600250026206805
:103FE000C04310F0006FFE4FDFF8F8830DD1A06ED4
:103FF00088B1B0F5801F13D0B0F5001F17D0B0F511
:10400000401F00D00125CDB12E462088C04310F4BA
:10401000807F1CD039E0386840F400303860F2E727
:10402000022104F1080003F025FE0546EBE702211A
:1040300004F1280003F0BEFE0546E4E7D8F80000CE
:10404000A16E20F440100843C8F80000DDE7A06D21
:10405000052817D2DFE800F003080F1717003868AB
:1040600040F4003038600EE0002104F1080003F055
:1040700001FE054607E0002104F1280003F09AFE46
:10408000054600E0012535B12E462088C04310F4D6
:10409000007F09D018E0D8F80000A16D20F00700DB
:1040A0000843C8F80000F0E7E06D802820D003DC6A
:1040B00090B1402805D114E0C02803D0B0F5807F2E
:1040C00000D00125DDB12E462088DFF81C93C043C7
:1040D00010F4806F1CD02FE0386840F40030386056
:1040E000F0E7002104F1080003F0C4FD0546E9E70C
:1040F000002104F1280003F05DFE0546E2E7D8F850
:104100000000E16D20F4E0700843C8F80000DBE730
:10411000D4F8A800B0F5800F20D004DC90B1B0F541
:10412000001F06D113E0B0F5C00F03D0B0F5000FAB
:1041300000D00125CDB12E462088C04310F4006F79
:104140001DD030E0386840F400303860F2E70021DC
:1041500004F1080003F08EFD0546EBE7002104F1B1
:10416000280003F027FE0546E4E7D9F80000D4F85C
:10417000A81020F460000843C9F80000DCE7D4F878
:10418000AC00B0F1007F20D004DC90B1B0F1807FB2
:1041900006D113E0B0F1407F03D0B0F1806F00D0C2
:1041A0000125CDB12E462068C04310F0007F1DD000
:1041B00027E0386840F400303860F2E7002104F16D
:1041C000080003F057FD0546EBE7002104F1280045
:1041D00003F0F0FD0546E4E7D9F80000D4F8AC1090
:1041E00020F0E0600843C9F80000DCE7E06C30B183
:1041F00010280CD020280FD0302800D0012595B1F0
:104200002E462088C04310F4805F14D026E0386822
:1042100040F400303860F2E7022104F1080003F0B6
:1042200029FD0546EBE771480168E26C21F0300199
:1042300011430160E5E7206EB0F5005F20D004DC9B
:1042400090B1B0F5805F06D113E0B0F5405F03D0C8
:10425000B0F5804F00D00125CDB12E462088C04357
:1042600010F4005F1CD031E0386840F40030386052
:10427000F2E7002104F1080003F0FCFC0546EBE73F
:10428000002104F1280003F095FD0546E4E7D8F885
:104290000000216E20F4E0400843C8F80000DDE78C
:1042A000606EB0F5403F0FD007DC68B1B0F5803FDD
:1042B00012D0B0F5003F06D115E0B0F5802F03D045
:1042C000B0F5A02F00D00125A5B12E462088C0430F
:1042D00010F4804F17D02DE0012104F1080003F005
:1042E000C9FC0546F0E7012104F1280003F062FD56
:1042F0000546E9E7D8F80000616E20F4E0200843A5
:10430000C8F80000E2E7D4F8B000B0F1405F0FD089
:1043100007DC68B1B0F1805F12D0B0F1005F06D168
:1043200015E0B0F1804F03D0B0F1A04F00D00125CF
:10433000A5B12E462088C04310F4004F18D022E0CB
:10434000012104F1080003F095FC0546F0E7012186
:1043500004F1280003F02EFD0546E9E7D9F8000036
:10436000D4F8B01020F0E0400843C9F80000E1E7BD
:10437000206F30B1B0F1805F0BD0B0F1005F0DD095
:10438000012595B12E462068C04310F0807F15D0DE
:104390001FE0386840F400303860F2E7012104F192
:1043A000080003F067FC0546EBE7D8F80000216F32
:1043B00020F040500843C8F80000E4E7A06C30B19A
:1043C000012819D002281CD0032800D00125FDB1F6
:1043D0002E462068DFF818B0C04310F4800F09E0C3
:1043E0002C44025850440258584402584C44025835
:1043F0001044025814D030E0386840F4003038607F
:10440000E5E7022104F1080003F034FC0546DEE78D
:10441000F8480168A26C21F0030111430160D8E75C
:10442000F548006840F48071F3480160FFF7AAF98D
:104430008246F148006810F4807F0CD1FFF7A2F9A2
:10444000A0EB0A00642801D9032504E0EA480068CB
:1044500010F4807FF2D045B12E462078DFF89CA37F
:10446000C04310F0010F60D070E0DFF894A3DAF8D9
:104470000000B4F8B41000F4407001F440718842B8
:1044800011D0DAF8000020F44070DAF8001041F49E
:104490008031CAF80010DAF8001021F48031CAF82F
:1044A0000010CAF80000D4F8B400B0F5807F16D12F
:1044B000FFF768F90090DAF8000010F0020F0ED153
:1044C000FFF760F90099411A41F28830814201D921
:1044D000032504E0DAF8000010F0020FF0D00DB16F
:1044E0002E46BAE7D4F8B4004FF4407181430FD0A0
:1044F000DBF8000020F47C50CBF80000DAF8000074
:10450000B4F8B410C1F30B010843CAF80000A4E7E3
:10451000DBF8001020F4407020F0704021F47C5152
:1045200041EA1010CBF80000E8E7E06F18280BD044
:1045300005DC48B108280FD0102804D113E020284A
:1045400002D0282800D00125A5B12E462078C043EE
:1045500010F0020F17D02FE0012104F1080003F042
:1045600089FB0546F0E7012104F1280003F022FC55
:104570000546E9E7DAF80000E16F20F0380008436B
:10458000CAF80000E2E7A06F062812D2DFE800F0C8
:1045900012030A121212012104F1080003F06AFB4F
:1045A000054607E0012104F1280003F003FC05465D
:1045B00000E0012535B12E462078C04310F0040FED
:1045C00009D022E0DAF80000A16F20F007000843CC
:1045D000CAF80000F0E7D4F89400062812D2DFE809
:1045E00000F012030A121212012104F1080003F074
:1045F00041FB054607E0012104F1280003F0DAFB46
:10460000054600E0012535B12E462078C04310F064
:10461000200F0AD020E0D9F80000D4F8941020F040
:1046200007000843C9F80000EFE7D4F89000B0F1A4
:10463000405F0FD007DC68B1B0F1805F12D0B0F1FD
:10464000005F06D115E0B0F1804F03D0B0F1A04F6C
:1046500000D00125A5B12E462078C04310F0400FB0
:1046600018D02EE0002104F1080003F003FB0546FA
:10467000F0E7022104F1280003F09CFB0546E9E77E
:10468000DAF80000D4F8901020F0E0400843CAF8AF
:104690000000E1E7D4F89C00B0F5406F0FD007DCD4
:1046A00068B1B0F5806F12D0B0F5006F06D115E09B
:1046B000B0F5805F03D0B0F5A05F00D00125A5B1B3
:1046C0002E462078C04310F0800F18D02EE0002135
:1046D00004F1080003F0CEFA0546F0E7022104F1E8
:1046E000280003F067FB0546E9E7D9F80000D4F895
:1046F0009C1020F4E0500843C9F80000E1E7D4F82A
:10470000A000B0F5C04F0FD007DC68B1B0F5005F76
:1047100012D0B0F5804F06D115E0B0F5004F03D0B0
:10472000B0F5204F00D00125A5B12E462078C0431A
:1047300010F0080F18D02CE0002104F1080003F05D
:1047400099FA0546F0E7022104F1280003F032FB54
:104750000546E9E7D9F80000D4F8A01020F460403D
:104760000843C9F80000E1E7D4F88400B0F5805FA1
:1047700006D1022104F1280003F01CFB00B1012640
:10478000DAF80000D4F8841020F440500843CAF846
:1047900000002078C04310F0100F14D1D4F8980016
:1047A000B0F5807F06D1022104F1280003F002FB5E
:1047B00000B10126D9F80000D4F8981020F4407018
:1047C0000843C9F800002068C04310F4002F0BD143
:1047D000D4F8A400B0B1B0F5803F1AD0B0F5003FD6
:1047E00000D00125E5B12E462068C04310F4802F8B
:1047F00020D02DE04C44025800480258544402583E
:1048000070440258002104F1080003F033FA054611
:10481000E8E7022104F1280003F0CCFA0546E1E7BD
:10482000D9F80000D4F8A41020F440300843C9F8A7
:104830000000D9E7D4F88800B0F5801F0ED0B0F59D
:10484000001F10D0B0F5401F00D0012595B12E46B5
:104850002068C04310F4803F16D01DE0386840F453
:1048600000303860F2E7012104F1280003F0A2FAD9
:104870000546EBE7DAF80000D4F8881020F4401081
:104880000843CAF80000E3E7206D58B1B0F5803F57
:104890000DD0012595B12E462068C04310F0005F71
:1048A00014D01AE0386840F400303860F2E7022192
:1048B00004F1080003F0DEF90546EBE76E480168F5
:1048C000226D21F4803111430160E5E7022104F1FA
:1048D000280003F06FFA00B101262068C04310F4ED
:1048E000003F0ED1D4F8800048B1B0F5807F0ED0E3
:1048F000B0F5007F03D0B0F5407F00D001255DB159
:104900002E462068C04310F4801F0FD016E0386890
:1049100040F400303860F2E7DAF80000D4F8801094
:1049200020F440700843CAF80000EAE7D8F8000015
:10493000616F20F000400843C8F800002068C043C1
:1049400010F0805F08D1DBF80000D4F8B81020F434
:1049500080400843CBF800002068C04310F4001FDB
:1049600007D1D8F80000E16E20F080700843C8F845
:1049700000002068C04310F0804F0CD1DBF800002D
:1049800020F40040CBF80000DBF80000D4F8BC10A5
:104990000843CBF800002068C04310F0004F06D158
:1049A00035480168626D21F0405111430160206873
:1049B000C04310F4000F08D1DAF80000D4F88C10CE
:1049C00020F440000843CAF8000020790025C043C5
:1049D00000F00100284306D1002104F1080003F093
:1049E00049F900B106462079C04300F0020028438F
:1049F00006D1012104F1080003F03CF900B106469C
:104A00002079C04300F00400284306D1022104F1BC
:104A1000080003F02FF900B106462079C04300F0EA
:104A20000800284306D1002104F1280003F0C2F950
:104A300000B106462079C04300F01000284306D19B
:104A4000012104F1280003F0B5F900B106462079F0
:104A5000C04300F02000284306D1022104F12800C1
:104A600003F0A8F900B1064616B10120BDE8F88FA1
:104A70000020BDE8F88F00004C4402582DE9F05F9B
:104A800004460D46002C17D0DFF88492D9F80000B8
:104A900000F00F00A84212D2D9F8000020F00F0059
:104AA0002843C9F80000D9F8000000F00F00A84220
:104AB00005D00120BDE8F09F0120BDE8F09F2078DF
:104AC000944E10F0040F0AD02069316801F0700193
:104AD000884204D9316821F07001084330602078A1
:104AE0008D4F10F0080F0AD06069396801F070012D
:104AF000884204D9396821F0700108433860207871
:104B000010F0100F0AD0A069396801F4E061884202
:104B100004D9396821F4E061084338602078DFF86F
:104B2000FCB110F0200F0DD0E069DBF8001001F0AF
:104B30007001884206D9DBF8001021F070010843AB
:104B4000CBF80000207810F0020F0AD0E06831683E
:104B500001F00F01884204D9316821F00F010843A8
:104B60003060207810F0010F51D03068A16820F437
:104B700070600843306060686949022808D00328E3
:104B80000DD0012812D0096811F0040F34D011E0C3
:104B9000096811F4003F0DD10120BDE8F09F0968BC
:104BA00011F0007F06D10120BDE8F09F096811F4E3
:104BB000807F1ED0DFF86CA1DAF8001021F0070129
:104BC0000843CAF80000FEF7DDFD8046DAF8000071
:104BD000616800F03800B0EBC10F18D0FEF7D2FDCD
:104BE000A0EB080141F28830814208D90320BDE8DA
:104BF000F09F0120BDE8F09F0120BDE8F09FDAF8AA
:104C00000000616800F03800B0EBC10FE6D12078F9
:104C100010F0020F0AD0E068316801F00F018842FD
:104C200004D2316821F00F0108433060D9F8000048
:104C300000F00F00A8420FD9D9F8000020F00F00B3
:104C40002843C9F80000D9F8000000F00F00A8427E
:104C500002D00120BDE8F09F207810F0040F0AD0A8
:104C60002069316801F07001884204D2316821F076
:104C7000700108433060207810F0080F0AD0606996
:104C8000396801F07001884204D2396821F070015E
:104C900008433860207810F0100F0AD0A0693968F6
:104CA00001F4E061884204D2396821F4E0610843EC
:104CB0003860207810F0200F0DD0E069DBF800108C
:104CC00001F07001884206D2DBF8001021F070017B
:104CD0000843CBF8000000F07BF83168C1F30322F1
:104CE00011498A5C02F01F02D040326802F00F02C4
:104CF000895C0E4A01F01F0120FA01F111600C4994
:104D000008600C480068BDE8F05FFEF779BE00005F
:104D100000200052184402581C44025820440258F3
:104D20000044025810440258F4940008080000247B
:104D300004000024100000244DF804ED00F048F8B1
:104D40000B4A11680B4BC1F30321595C01F01F01A1
:104D500020FA01F11068084A00F00F00185C00F01A
:104D60001F0021FA00F01060044A11605DF804FB96
:104D700018440258F4940008080000240400002499
:104D80004DF804EDFFF7D8FF05490968054AC1F35E
:104D90000211515C01F01F01C8405DF804FB0000E6
:104DA0001C440258F49400084DF804EDFFF7C4FFCA
:104DB00005490968054AC1F30221515C01F01F0150
:104DC000C8405DF804FB00001C440258F49400083D
:104DD0004DF8044D69480068DFF8A4C1694B10F034
:104DE00038014ED008294FEA2C1047D0102959D04D
:104DF000182943D16448016801F003010068C0F339
:104E00000510624A126802F00102614C2468C4F382
:104E1000CC0414FB02F200EE102AB8EE400A00287F
:104E20007BD0DFED5C0A5C4AB7EE001AA9B39FEDB8
:104E30005B2A012974D0022971D001EE900A106812
:104E4000F8EE611AC2EE212AC0F3080001EE900AC2
:104E5000F8EE611A40EE201A31EE810A22EE800A45
:104E60001068C0F34620401C00EE900AF8EE600A7D
:104E700080EE201ABCEEC10A10EE100A5DF8044B59
:104E80007047186810F0200F08D018685DF8044BC0
:104E9000C0F3C1002CFA00F0704707E05DF8044B46
:104EA000604670473E485DF8044B7047196811F042
:104EB000200F1CD01968C1F3C1012CFA01F101EED9
:104EC000901AF8EE612A01EE900A1068F8EE611A65
:104ED00082EEA12AC0F3080001EE900AF8EE611AF2
:104EE00040EE201A31EE810A22EE000AB8E701EE08
:104EF000900ADFED2C2A1068F8EE611A82EEA12AE2
:104F0000C0F3080001EE900AF8EE611A40EE201A94
:104F100031EE810A22EE000AA2E72BE000E013E066
:104F200001EE900A1068F8EE611AC2EE212AC0F371
:104F3000080001EE900AF8EE611A40EE201A31EEF8
:104F4000810A22EE800A8BE701EE900ADFED162A35
:104F50001068F8EE611A82EEA12AC0F3080001EE93
:104F6000900AF8EE611A40EE201A31EE810A22EE24
:104F7000000A75E75DF8044B0020704710440258A2
:104F80000090D00300440258284402582C44025890
:104F90003444025800000039304402580024744A56
:104FA00000127A000024744C0024F44A2DE9F05FCA
:104FB0000446002C11D02078DFF8F883FE4F10F063
:104FC000010FFE4D6BD0D8F8000000F038003968B2
:104FD000102823D0182803D006E00120BDE8F09F58
:104FE00001F00300022819D06068B0F5803F1ED0A0
:104FF00010B3B0F5A02F28D0286820F480302860A6
:10500000286820F480202860606878B3FEF7BAFB37
:105010000646286810F4003F20D040E0286810F4CD
:10502000003F3CD0606830BB0120BDE8F09F28689D
:1050300040F480302860E7E7286820F4803028605A
:10504000286820F480202860DEE7286840F480206B
:105050002860286840F480302860D5E7FEF792FB8E
:10506000801B642803D90320BDE8F09F04E0286872
:1050700010F4003FF2D012E0FEF784FB06462868E9
:1050800010F4003F0BD0FEF77DFB801B642802D993
:105090000320BDE8F09F286810F4003FF3D120788A
:1050A00041F2030AC64E10F0020F4BD0D8F80000B0
:1050B00000F038003968A0B1182802D111F0030FB0
:1050C0000FD0E068002878D0296821F01901084342
:1050D0002860FEF757FB8146286810F0040F41D086
:1050E0004DE0286810F0040F01D0E06868B128682E
:1050F000E16820F0190008432860FEF743FB814671
:10510000286810F0040F03D00FE00120BDE8F09FE5
:10511000FEF738FBA0EB0900022802D90320BDE806
:10512000F09F286810F0040FF2D0FEF725FB5045E1
:1051300010D82069402806D0316821F47C3141EA3A
:105140000030306051E0306820F47C3040F40030B2
:1051500030604AE03068217C20F0FE4040EA016087
:10516000306042E0FEF70EFBA0EB0900022802D9F6
:105170000320BDE8F09F286810F0040FF2D0FEF77E
:10518000FBFA504511D82069402806D0316821F437
:105190007C3141EA0030306027E0306820F47C3018
:1051A00040F40030306020E007E03068217C20F0DF
:1051B000FE4040EA0160306017E0286820F00100FE
:1051C0002860FEF7DFFA8146286810F0040F0CD043
:1051D000FEF7D8FAA0EB0900022802D90320BDE8A7
:1051E000F09F286810F0040FF2D1207810F0100F13
:1051F00045D0D8F8000000F038003968DFF8C4B1B5
:10520000082813D0182803D101F0030001280DD07D
:10521000E069A8B3286840F080002860FEF7B2FA81
:105220008146286810F4807F2BD037E0286810F47E
:10523000807F05D0E069802802D00120BDE8F09F82
:10524000FEF79AFA504510D8206A202806D0316817
:1052500021F0F84141EA8060306056E0306820F08B
:10526000F84040F0804030604FE0DBF8000094F8F8
:10527000201020F07C5040EA0160CBF8000044E0B0
:105280002CE0FEF77FFAA0EB0900022802D90320E8
:10529000BDE8F09F286810F4807FF2D0FEF76CFA2A
:1052A000504510D8206A202806D0316821F0F841F6
:1052B00041EA8060306028E0306820F0F84040F03B
:1052C0008040306021E0DBF8000094F8201020F0EE
:1052D0007C5040EA0160CBF8000016E0286820F01E
:1052E00080002860FEF74EFA0646286810F4807F9A
:1052F0000BD0FEF747FA801B022802D90320BDE835
:10530000F09F286810F4807FF3D1207810F0080F08
:105310003AD0DFF8B4906069D8B1D9F8000040F015
:105320000100C9F80000FEF72DFA0646D9F8000082
:1053300010F0020F28D1FEF725FA801B022802D9AF
:105340000320BDE8F09FD9F8000010F0020FF2D062
:105350001AE0D9F8000020F00100C9F80000FEF7BB
:1053600011FA0646D9F8000010F0020F0CD0FEF733
:1053700009FA801B022802D90320BDE8F09FD9F862
:10538000000010F0020FF2D1207810F0200F3DD075
:10539000A06920B3286840F480502860FEF7F2F935
:1053A0000646286810F4005F30D1FEF7EBF9801B49
:1053B00002280BE0104402582844025800440258C6
:1053C000044402580C4402587444025802D9032081
:1053D000BDE8F09F286810F4005FE6D016E028686A
:1053E00020F480502860FEF7CDF90646286810F4B6
:1053F000005F0BD0FEF7C6F9801B022802D90320FC
:10540000BDE8F09F286810F4005FF3D1207810F019
:10541000040F6CD0B14E306840F480703060FEF7FD
:10542000B1F98146306810F4807F0CD1FEF7AAF9FB
:10543000A0EB0900642802D90320BDE8F09F306882
:1054400010F4807FF2D0A068A54E012816D0D0B10C
:10545000052821D0306820F001003060306820F04D
:1054600004003060A06841F2883A60B3FEF78AF920
:105470008146306810F0020F17D038E0306840F0F5
:1054800001003060EEE7306820F0010030603068E5
:1054900020F004003060E5E7306840F00400306040
:1054A000306840F001003060DCE7FEF76BF9A0EBFC
:1054B0000900504502D90320BDE8F09F306810F084
:1054C000020FF2D013E0FEF75DF98146306810F06C
:1054D000020F0CD0FEF756F9A0EB0900504502D997
:1054E0000320BDE8F09F306810F0020FF2D1616A2E
:1054F000A1B3D8F80000DFF8EC9100F038001828CC
:1055000009F10408A9F104067DD0022912D0286807
:1055100020F080702860FEF735F90446286810F006
:10552000007F1BD0FEF72EF9001B02286CD9032048
:10553000BDE8F09F286820F080702860FEF722F90F
:105540008246286810F0007F0DD0FEF71BF9A0EB13
:105550000A00022803D90320BDE8F09FBBE02868B9
:1055600010F0007FF1D13868E16A20F0F30020F4F8
:10557000407040EA0110A16A08433860208E4FF461
:105580007E42616B401E491EC0F3080002EA4121C1
:105590000843218FD201491E02EA0141084394F8D1
:1055A0003C10491E120202EA01610843C9F80000DA
:1055B000306820F001003060D8F80000A16C6FF373
:1055C000CF0040EAC100C8F800003068216C20F02C
:1055D0000C00084330603068616C20F00200084322
:1055E0003060306840F480303060306840F4003023
:1055F0003060306840F480203060306840F0010056
:105600003060286801E01DE016E040F080702860FE
:10561000FEF7B8F80446286810F0007F5BD1FEF76B
:10562000B1F8001B022802D90320BDE8F09F2868CA
:1056300010F0007FF3D04EE0286810F0007F7FF478
:1056400071AF48E03A68D9F80000012921D0A36A77
:1056500002F0030199421CD1E16AC2F305129142A2
:1056600017D1226BC0F30801521E914211D1616B18
:10567000C0F34622491E91420BD1A16BC0F30642F2
:10568000491E914205D1E16BC0F30660491E81427B
:1056900002D00120BDE8F09FD8F80000C0F3CC0094
:1056A000A16C814217D0306820F001003060FEF715
:1056B00069F80546FEF766F8A842FBD0D8F8000066
:1056C000A16C6FF3CF0040EAC100C8F80000306859
:1056D00040F0010030600020BDE8F09F0048025813
:1056E00070440258304402582DE9F0410446002C21
:1056F00012D00025A562DFF864812068584E594F0A
:1057000040450CD0B0420AD0B84208D0E0680F281B
:1057100005D90120BDE8F0810120BDE8F0812046D7
:1057200002F050FC01462068404505D0B04203D04D
:10573000B84201D0082907D8404503D0B04201D073
:10574000B84204D1102902D90120BDE8F08194F8B3
:10575000810020B984F88050204600F085F80220AE
:1057600084F881002068016821F00101016020684F
:10577000816801F4F812A169B1F1806F0ED16168FE
:10578000B1F5800F01D1A36B23B139B9A16BB1F190
:10579000805F03D1016841F480510160606810F4BA
:1057A000800F0AD0E068072807D320680168236DBE
:1057B00021F480711943016004E02068016821F43C
:1057C00080710160A16AE0690843E16B11430843FD
:1057D000E168084321688860616A606BA2690843D8
:1057E000A16B114308432169084361690843216A99
:1057F000084361680843E16C0843A1680843A16C51
:105800000843A16D08432168C860606868B92068D2
:10581000816821F4C05141F4006181602068816891
:1058200021F4C06141F4806181602068016D21F044
:1058300001010165606810F4800F06D02068C1681E
:10584000626D21F000411143C160C4F88450012011
:1058500084F881000020BDE8F081000000300140A4
:1058600000380040003C004010B5B6B0044614219A
:1058700030A8FAF78FFEC0216846FAF78BFE184968
:10588000206888422AD18114002018900446CDE96E
:1058900000106846FEF79EFB08B1FBF787FC114835
:1058A000016841F480510160006800F48050359037
:1058B0000C481038016841F001010160006830A90E
:1058C00000F001003590E02030900220CDE9310455
:1058D0000520CDE933400448FDF74CFE36B010BD3D
:1058E00000300140F044025800000258401EB0F160
:1058F000807F01D3012070474FF0E0214861F02004
:10590000034A10700020886107200861002070475A
:1059100023ED00E07047704770470000F0B490F846
:105920003C20012A46D0012480F83C40022280F825
:105930003D2003685A68D3F808C0204D204EAB4282
:1059400001D0B34203D122F470024F683A4322F0EF
:1059500070020F683A435A600268AA421DD0B2F141
:10596000804F1AD0A2F18043B3F5806315D0A2F125
:105970008043B3F5006310D0A2F18043B3F54063D8
:105980000BD0B24209D0A2F18043B3F5C05304D08A
:10599000A2F18043B3F5A03304D12CF080038968D1
:1059A0001943916080F83D40002180F83C100020B0
:1059B000F0BC7047F0BC02207047000000000140BE
:1059C0000004014010B50446002C03D094F83D00BB
:1059D00010B107E0012010BD002084F83C002046F3
:1059E00000F022F8022084F83D002068211D02F01A
:1059F00003FD012084F8480084F83E0084F83F004D
:105A000084F8400084F8410084F8420084F84300A0
:105A100084F8440084F8450084F8460084F8470080
:105A200084F83D00002010BD08B50068194A1A49E5
:105A3000904208D1086840F008000860086800F04B
:105A40000800009008BD154A90420ED1086840F049
:105A50008000086008680022114600F08000009075
:105A60002C20FEF75DF82C2010E00D4A9042E9D181
:105A7000086840F48070086008680122032100F47F
:105A8000807000902D20FEF74BF82D20BDE80840D7
:105A9000FEF738B8000C0040E8440258001C0040F3
:105AA0000020004090F83D10012901D001207047EE
:105AB000022180F83D100168CA6842F00102CA6004
:105AC0000068A0F18041B1F5803126D0B0F1804F5F
:105AD00023D0A0F18041B1F580611ED0A0F18041BA
