:020000040800F2
:100000005850002479030008B58900088D73000852
:100010009586000825080008C9A400080000000013
:10002000000000000000000000000000058F000834
:100030002D13000800000000258B000871950008B2
:100040009303000893030008930300089303000838
:100050009303000893030008930300089303000828
:10006000930300089303000893030008810A000823
:100070008D0A0008990A0008A50A0008B10A0008BC
:10008000BD0A0008C90A00089303000855130008B8
:10009000611300089303000893030008930300080A
:1000A00093030008930300089303000893030008D8
:1000B00093030008930300089303000893030008C8
:1000C00093030008930300089303000893030008B8
:1000D0009303000881A4000899A40008A5A40008BF
:1000E0009303000893030008000000009303000836
:1000F000499800083D98000893030008D50A0008B5
:100100009303000893030008930300089303000877
:10011000D9990008E59900089303000893030008A3
:10012000E10A0008ED0A0008F90A0008050B0008BA
:10013000110B0008930300089303000893030008C1
:1001400000000000000000000000000000000000AF
:100150001D0B0008290B000893030008BDA400082C
:100160009303000893030008930300089303000817
:100170009303000893030008930300089303000807
:100180009303000893030008F1990008099A0008F6
:1001900093030008930300089303000893030008E7
:1001A00093030008930300089303000893030008D7
:1001B00093030008930300089303000893030008C7
:1001C00093030008930300089303000893030008B7
:1001D00093030008930300089303000893030008A7
:1001E0009303000893030008930300089303000897
:1001F0009303000893030008930300089303000887
:100200009303000893030008930300089303000876
:100210009303000893030008930300089303000866
:1002200093030008930300089303000800000000F4
:1002300093030008930300080000000093030008E4
:100240009303000893030008930300089303000836
:100250009303000893030008930300089303000826
:100260009303000893030008930300089303000816
:1002700093030008930300089303000800000000A4
:100280009303000893030008930300080000000094
:10029000000000009303000800F002F800F05CF892
:1002A0000AA090E8000C82448344AAF10107DA45D1
:1002B00001D100F051F8AFF2090EBAE80F0013F0C7
:1002C000010F18BFFB1A43F00103184714B00000D8
:1002D00034B000000A444FF0000C10F8013B13F05A
:1002E000070408BF10F8014B1D1108BF10F8015B8F
:1002F000641E05D010F8016B641E01F8016BF9D182
:1003000013F0080F1EBF10F8014BAD1C0C1B09D1D8
:100310006D1E58BF01F801CBFAD505E014F8016B4A
:1003200001F8016B6D1EF9D59142D6D370470000DC
:100330000023002400250026103A28BF78C1FBD8EE
:10034000520728BF30C148BF0B6070471FB50AF085
:10035000A4FD1FBD10B510BD00F05BF91146FFF7FD
:10036000F5FF0AF071FD00F079F903B4FFF7F2FF31
:1003700003BC00F07DF900000948804709480047A8
:10038000FEE7FEE7FEE7FEE7FEE7FEE7FEE7FEE745
:10039000FEE7FEE704480549054A064B70470000A2
:1003A0005196000899020008583000245850002443
:1003B000584000245840002453EA020C00F06980A1
:1003C0002DE9F04B4FF00006002B1FBFB3FA83F569
:1003D00003FA05F424FA05F65E4012BF1643B2FA9A
:1003E00082F502FA05F4C5F120051EBF22FA05FCCC
:1003F00044EA0C04203556EA044C4FEA144418BF72
:10040000641C4FF000084FF00009904271EB030CA0
:1004100039D3002919BFB1FA81F701FA07F6B0FA0A
:1004200080F700FA07F6C7F120071EBF20FA07FC85
:1004300046EA0C062037B6FBF4FCA7EB0507103F95
:1004400007F01F0BCBF120060CFA0BFB2CFA06F67B
:1004500044BFB3460026202FA4BF5E464FF0000BDA
:100460005BEA060C08BF4FF0010B19EB0B09ABFB65
:10047000027C48EB0608C01B06FB02CC0BFB03CC3E
:1004800071EB0C01C1E70B46024641464846BDE808
:10049000F08B13B54FF000004FF00001AFF3008078
:1004A000BDE81C407047032A40F2308010F0030C76
:1004B00000F0158011F8013BBCF1020F624498BFB7
:1004C00011F801CB00F8013B38BF11F8013BA2F154
:1004D000040298BF00F801CB38BF00F8013B11F0CF
:1004E000030300F02580083AC0F0088051F8043B6F
:1004F000083A51F804CBA0E80810F5E7121D5CBFDC
:1005000051F8043B40F8043BAFF30080D20724BF0E
:1005100011F8013B11F801CB48BF11F8012B24BFA2
:1005200000F8013B00F801CB48BF00F8012B7047F1
:1005300010B5203AC0F00B80B1E81850203AA0E87E
:100540001850B1E81850A0E81850BFF4F5AF5FEAB2
:10055000027C24BFB1E81850A0E8185044BF18C965
:1005600018C0BDE810405FEA827C24BF51F8043B0C
:1005700040F8043B08BF7047D20728BF31F8023B60
:1005800048BF11F8012B28BF20F8023B48BF00F8F4
:10059000012B70474FF0000200B513469446964673
:1005A000203922BFA0E80C50A0E80C50B1F1200186
:1005B000BFF4F7AF090728BFA0E80C5048BF0CC034
:1005C0005DF804EB890028BF40F8042B08BF704792
:1005D00048BF20F8022B11F0804F18BF00F8012B04
:1005E000704770477047704710B500F00DF800680D
:1005F00010BD10B5044600F007F8046010BD0000FF
:1006000000487047F82F002400487047F82F002456
:1006100070477546FFF7F4FFAE460500694653463E
:1006200020F00700854618B020B5FFF7B3FEBDE8FF
:1006300020404FF000064FF000074FF000084FF049
:10064000000B21F00701AC46ACE8C009ACE8C009DA
:10065000ACE8C009ACE8C0098D46704710B5044647
:10066000AFF300802046BDE81040FFF77EBE0000DB
:1006700001491820ABBEFEE72600020070EE600ABA
:10068000C0ED030A90ED000A20EE800A80ED050A15
:1006900090ED061AD0ED011A00EEA11A80ED061AAF
:1006A000D0ED081AB0EEE01AB4EEE11AF1EE10FA4D
:1006B00003DD9FED0C1A80ED061A90ED091AD0EDBE
:1006C000021A30EEC11A21EEC11A80ED071AD0EDE0
:1006D000061A30EE210A30EE010A80ED0A0AC0ED5A
:1006E000090A70470000000030EE600A234ADFED7F
:1006F000240A10EE101A80ED030A914202DD30EE5A
:10070000600A06E010EE101A1E4A914203D930EE3C
:10071000200A80ED030AF0EE400A90ED000A20EE78
:10072000800A80ED050A90ED061AD0ED011A00EE60
:10073000A11A80ED061AD0ED081AB0EEE01AB4EE58
:10074000E11AF1EE10FA03DD9FED0F1A80ED061AA3
:1007500090ED091AD0ED021A30EEC11A21EEC11A3D
:1007600080ED071AD0ED061A30EE210A30EE010AAC
:1007700080ED0A0AC0ED090A70470000000034430A
:100780000000B443000034C300000000C0ED081AAC
:1007900080EC030A9FED040A80ED050A80ED060A4D
:1007A00080ED070A704700000000000030EE600A8C
:1007B00080ED030AD0ED000A20EE201A80ED051A24
:1007C000D0ED060AD0ED011A40EE210AC0ED060A6E
:1007D000D0ED081AF0EEC00AF4EEE10AF1EE10FADC
:1007E00003DDDFED0F0AC0ED060AD0ED090AD0EDFA
:1007F000021A70EE600A61EEE00AC0ED070AD0ED61
:10080000061A31EE211A71EE200AC0ED0A0A80EDB7
:10081000090ABDEEE00A10EE100A00B270470000AF
:1008200000000000FEE7000000B58DB00146302258
:100830006846FFF77DFE03480FC807F0F9FF0DB0CB
:10084000002000BD1800002400B58DB00146302204
:100850006846FFF76DFE03480FC807F0E9FF0DB0CB
:10086000002000BD2800002410B588B004460221F5
:1008700000200090CDE901010121CDE90310059090
:100880006946206802F05FFA20680022012102F028
:10089000CFF9206802F01FFF08B010BD50F8042FF8
:1008A0005160C1E900200160704700B500230A686B
:1008B00089B0CDE900230822049305930693CDE97E
:1008C00002320A1D079308936946006802F000FA95
:1008D00010B1002009B000BD0120FBE770B5204E2B
:1008E00038990D9AA1F20124251FC2F30723B042C3
:1008F000D2B208D1032C01D81A480BE0032D2DD811
:1009000018480C3013E0184EB04227D1032C0AD8F7
:1009100014483C3000EB4100A0F5805080F8023CC8
:1009200080F8032C1AE0032D0AD80E48483000EB5B
:100930004100A0F5805080F8FA3B80F8FB2B0DE0D9
:10094000A1F20920022809D80648543000EB4100E2
:10095000A0F5805080F8F23B80F8F32B002070BDAA
:10096000C8010024880000246802002470B52D4EC0
:1009700038990D9AA1F205252C1FD3B2B042C2F3CB
:1009800007221CD1032D0BD8274800EB4100A0F50E
:10099000805080F8FA2B80F8FB3B234818301FE08A
:1009A000022C3CD820480C3000EB4100A0F58050D0
:1009B00080F8F22B80F8F33B1B48243027E01B4ED5
:1009C000B0422CD1032D14D817483C3000EB410025
:1009D000A0F5805080F8FA2B80F8FB3B1248543089
:1009E00000EB4100A0F5805080F8FA2B80F8FB3B2B
:1009F00015E0022C13D80C48483000EB4100A0F55C
:100A0000805080F8F22B80F8F33B0748603000EB11
:100A10004100A0F5805080F8F22B80F8F33B0020D5
:100A200070BD0000C8010024940000246802002466
:100A3000DDE907230188418191B2120C49BA018195
:100A400052BA42809AB252BA82801A0C82710180E4
:100A500000207047074B02689A4202D1064AD160D3
:100A60001060064B02689A4203D1034A1032D160EB
:100A70001060704700A000401800002400A400404F
:100A8000014801F0ABB90000280D0024014801F035
:100A9000A5B90000480B0024014801F09FB90000EF
:100AA000A00D0024014801F099B90000180E00249F
:100AB000014801F093B90000900E0024014801F0B4
:100AC0008DB90000080F0024014801F087B900002B
:100AD000800F0024014801F081B90000F80F0024C4
:100AE000014801F07BB9000068090024014801F0C9
:100AF00075B90000E0090024014801F06FB9000059
:100B0000C00B0024014801F069B90000580A002414
:100B1000014801F063B90000D00A0024014801F047
:100B20005DB90000380C0024014801F057B90000FD
:100B3000B00C0024264A016891422CD0254A9142EB
:100B400029D0254A914226D0244A914223D0244AD2
:100B5000914220D0234A91421DD0234A91421AD07B
:100B6000224A914217D0224A914214D0214A9142FE
:100B700011D0214A91420ED0204A91420BD0204AF6
:100B8000914208D01F4A914205D01F4A914202D09B
:100B90001E4A914217D11E4BCAB2103AA3FB023231
:100BA0001209DFF870C002F007031CF80330C365B8
:100BB000032A04D96FF30901091D816506E06FF36B
:100BC0000901816502E021F0FF018165806D7047B8
:100BD000100002402800024040000240580002403D
:100BE0007000024088000240A0000240B8000240AD
:100BF000100402402804024040040240580402400D
:100C00007004024088040240A0040240B80402407C
:100C1000ABAAAAAA10AF000801680123DFF894C0AC
:100C2000CAB261451BD0DFF890C0614517D0DFF82C
:100C30008CC0614513D0DFF888C061450FD0DFF864
:100C400084C061450BD0DFF880C0614507D0DFF874
:100C50007CC0614503D0DFF878C0614511D1A2F1B5
:100C600008011C4AA2FB012109091B4A02EB81026F
:100C700002661A4A426601F01F0103FA01F1816619
:100C80007047DFF85CC0103AACFB02C21209DFF813
:100C900054C06144A82900D80832134901EB8201ED
:100CA00001661249416602F01F0103FA01F18166F3
:100CB00070470000085402581C540258305402581F
:100CC00044540258585402586C54025880540258E4
:100CD00094540258CDCCCCCC0058025880580258BD
:100CE000ABAAAAAAF0FBFDBF0008024080080240A0
:100CF00001794A1E072A28D8144B0168994214D05A
:100D0000134B994211D0134B99420ED0124B99427A
:100D10000BD0124B994208D0114B994205D0114B80
:100D2000994202D0104B994206D1104901EB820141
:100D3000C1660F49016705E00E4901EB8201C166FA
:100D40000D490167012191404167704708540258DD
:100D50001C540258305402584454025858540258F3
:100D60006C54025880540258945402580059025846
:100D70004059025800090240400902400146002043
:100D80008B698A6A002B0FD0B3F5005F1DD08AB340
:100D9000012A30D0022A2ED0032A04D1C96A11F0C8
:100DA000807F00D0012070471AB1012A07D0022AA3
:100DB000F9D1C96A11F0807FF5D001207047C96A66
:100DC000B1F1C07FFAD1012070475AB1012A0BD08E
:100DD000022A07D0032AF7D1C96AB1F1C07FF3D143
:100DE0000120704701207047C96A11F0807FFAD056
:100DF00001207047FFE70120704700002DE9F04F08
:100E0000846D794ED0F800C0784FDFF8E481B445A6
:100E1000DFF8E091DFF8E0A1DFF8E0B1784D4FD0E6
:100E2000BC454DD0C4454BD0CC4549D0D44547D026
:100E3000DC4545D0DFF8CCE1F44541D0AC453FD0AE
:100E4000DFF8C4E1F4453BD0DFF8C0E1F44537D02A
:100E5000DFF8BCE1F44533D0DFF8B8E1F4452FD03A
:100E6000DFF8B4E1F4452BD0DFF8B0E1F44527D04A
:100E7000DFF8ACE1F44523D0DFF8A8E1F4451FD05A
:100E8000DFF8A4E1F4451BD0DFF8A0E1F44517D06A
:100E9000DFF89CE1F44513D0DFF898E1F4450FD07A
:100EA000DFF894E1F4450BD0DFF890E1F44507D08A
:100EB000DFF88CE1F44503D0DFF888E1F44510D188
:100EC000D0F864E0D0F868C0CEF804C0D0F86CC0A8
:100ED000BCF1000F05D0D0F870E0D0F874C0CEF8A7
:100EE00004C0D0F800C0B44526D0BC4524D0C445C9
:100EF00022D0CC4520D0D4451ED0DC451CD0414E5C
:100F0000B44519D0AC4517D03F4DAC4514D03F4D3A
:100F1000AC4511D03E4DAC450ED03E4DAC450BD04E
:100F20003D4DAC4508D03D4DAC4505D03C4DAC45A4
:100F300002D03C4DAC4523D190F85CC03F250CF06D
:100F40001F0C05FA0CFCC4F808C0D0F800C0DCF88F
:100F5000004024F48024CCF80040D0F800C0CCF845
:100F600004308368402B05D0036899600068C26034
:100F7000BDE8F08F03689A600068C160BDE8F08F3B
:100F8000294DAC4514D0294DAC4511D0284DAC4568
:100F90000ED0284DAC450BD0274DAC4508D0274D81
:100FA000AC4505D0264DAC4502D0264DAC45E5D12B
:100FB00090F85CC001250CF01F0C05FA0CFCC4F87D
:100FC00004C0D0F800C0CCF804308368402B05D0B2
:100FD000036899600068C260BDE8F08F03689A609A
:100FE0000068C160BDE8F08F100002402800024098
:100FF0004000024058000240700002408800024059
:10100000B8000240A0000240100402402804024040
:101010004004024058040240700402408804024028
:10102000A0040240B8040240085402581C5402585C
:101030003054025844540258585402586C540258C0
:1010400080540258945402584FF48061418081804A
:101050000322C18001818272C27201803221018229
:10106000704700000146064800B500F00BF8044840
:10107000B0F912101E2901DD00210182002000BDFF
:10108000EC270024F0B5428A4FF47A73521C12B256
:1010900042829A4200DD43820125857300220B883B
:1010A0004FF4A566C3F30A04A4F5B673B34200D89F
:1010B00001224B78DF088B7847EA4317C7F30A070A
:1010C000A7F5B677B74200D8521CCF789B0943EA00
:1010D00087070B7947EA8327C7F30A07A7F5B6778F
:1010E000B74200D8521C5F084B7947EAC317C7F3D1
:1010F0000A07A7F5B677B74200D8521CB5EB931F85
:1011000007D00225B5EB931F03D00325B5EB931F42
:1011100000D1521CC3F30115012D05D0022D03D0BF
:101120006FEA13139B0700D1521C062A3CD144805E
:10113000A4F2FD344A788B78D20842EA4312C2F313
:101140000A0282808B78CD789B0943EA85030D796A
:1011500043EA8523C3F30A05C5800B794E795B0802
:1011600043EAC613C3F30A0303814E79B6098672B4
:101170004E79072CC6F30116C672098AC1F30A011B
:1011800001804FF4806100D24180A2F2FD32072A33
:1011900000D28180A5F2FD35072D00D2C180A3F2D7
:1011A000FD33072B00D2018100218173F0BD0000C7
:1011B0000A4808B5017800290ED1012101700849BB
:1011C0004A68009243699A4202D20269521C026143
:1011D000496841610021017008BD00003800002409
:1011E000001000E00A4841680A4AD2ED010A42684C
:1011F000521AF8EE601A01EE102AB8EE411A60EEAB
:10120000211AB4EEE11AF1EE10FAF0D370470000A3
:10121000001000E03800002410B500F043F80C483E
:101220009FED0C1A90ED000A8188C08800EE901A9C
:10123000B8EE400AF8EE600A00EE810A00EE900A6D
:101240009FED051AF8EE600A00EE810A10BD00005D
:10125000680000246F12833ABD3786350D490A684D
:1012600042F080720A600C4900224A600B6843F029
:1012700001030B6009494FF47A7348430849B0FBF6
:10128000F3F3C1E90103054BB0FBF3F0C1E903023D
:10129000FFF78EBFFCED00E0001000E040420F00C1
:1012A000380000241F482DE9F84340680090FFF7FC
:1012B0007FFF1D4C00274FF0FF3200983D463B4614
:1012C0002169E1FB020506462946C4E90E05D4F86A
:1012D00004804246FFF770F80246A2FB083C01FB7F
:1012E00008C004F1300802FB0701F61AC8F8002014
:1012F000D4F8089065EB0105002330464A4629469C
:10130000FFF75AF882B2A8F80420002302FB09F282
:10131000B01AE26865EB0701FFF74EF8A8F806007F
:10132000BDE8F883001000E0380000247047C0E9F1
:10133000001270474FF4806101804180002281805B
:10134000C1800321027241728172C272704772B60B
:10135000FEE70000014801F02FBE0000C801002494
:10136000014801F029BE000068020024416B0268B8
:10137000D2F884306FF38F0343EA8103C2F88430DC
:101380000268D2F88430B0F838C023F47F0343EA0F
:101390000C43C2F88430826B11440268D2F8883062
:1013A0006FF38F0343EA8103C2F888300268D2F8F2
:1013B0008830B0F83CC023F4FE0343EA0C43C2F883
:1013C0008830C26B01EB42010268D2F8A0306FF3A3
:1013D0008F0343EA8103C2F8A0300268D2F8A0303C
:1013E000B0F840C023F4FE0343EA0C43C2F8A03037
:1013F000436C026C02FB03110268D2F8B0306FF349
:101400008F0343EA8103C2F8B0300268D2F8B030EB
:10141000B0F848C023F4FE0343EA0C43C2F8B030EE
:10142000C36C826C02FB03110268D2F8AC306FF31C
:101430008F0343EA8103C2F8AC30436D026D02FBB7
:1014400003110268D2F8F0306FF38F0343EA81038F
:10145000C2F8F0300268D2F8F030B0F858C023F487
:101460007C1343EA0C43C2F8F030826D01EB420278
:101470000168D1F8C0306FF38F0343EA8202C1F8EC
:10148000C0200168D1F8C020B0F85C3022F47C1292
:1014900042EA0342C1F8C0200168D1F8C02090F8A8
:1014A000603022F07C5242EA0362C1F8C020416BF6
:1014B000294A02EB8101C166826B01EB820202675D
:1014C000C36B02EBC3024267D0F844C0036C03FB5A
:1014D0000CF302EB83028267D0F84CC0836C03FBF1
:1014E0000CF302EB8302C267D0F854C0036D03FB18
:1014F0000CF302EB8302C0F88020836D02EBC30380
:10150000C0F88430D0F85CC0826E0CFB02FC03EBA8
:101510008C03C0F88830D0F860C00CFB02F203EBFB
:101520008202C0F890200D4B9A420AD9D0F89C1044
:1015300041F02001C0F89C10032180F89810012090
:1015400070478A4206D900220A60091DD0F89030FF
:101550008B42F9D80020704700AC0040FCD300401B
:1015600070B4D1F808C00C694D6844EA0C0C0C68E2
:10157000002D40D044F080444CEA040C8D69CC69C5
:1015800091F820602C434D6945EA06652C438D890E
:1015900044EA0544D0F88450806E00FB03F005EB6C
:1015A0008000C0F800C0001D0460031D0020134C23
:1015B000D1F80CC014F80CC0BCF1000F19D902EB23
:1015C000000C155C9CF8036045EA06659CF8026017
:1015D0009CF801C0360446EA0C2C45EA0C0CC3F812
:1015E00000C01B1D001DD1F80CC014F80CC08445B0
:1015F000E5D870BC70474CEA844CBFE7B4AE000835
:101600001649884201D1164870471649884202D1CE
:101610001348D43070471449884201D113487047A9
:101620001349884202D11148D43070471149884289
:1016300001D1114870471149884202D10E48D43077
:1016400070470F49884201D10E4870470E498842C1
:1016500002D10C48D430704700207047180700248E
:1016600070100024AC070024400800241812002445
:10167000C80400245C050024C0130024D4080024FE
:10168000F0050024681500248406002410B50446E3
:1016900037480079C00708D13648C17BB4F98003C8
:1016A000012963D0401EA4F88003B4F9800300210F
:1016B0004FF47A7209F0C0FBA4F88003B4F87C13ED
:1016C0009FED2D1B9FED2E2B11FB00F100EE101A4C
:1016D000B8EEC00B20EE010BB7EEC00B84EDDB0AB9
:1016E000B4F87E1311FB00F000EE900AB8EEE01B98
:1016F00021EE021BF7EEC10BC4EDDC0AB4F9460182
:1017000000EE900A04F54570F8EEE00AFFF74EF897
:1017100000EE100AB8EEC00A84EDDD0AB4F9320218
:1017200000EE100A04F55070F8EEC00A94EDDC0AE1
:10173000FFF73CF800EE100A04F59E70B8EEC00A00
:1017400084EDDE0A94EDDD0ABDEEC00A10EE101A3B
:1017500006F0FAFF94EDDE0A04F50A70BDE81040C9
:10176000BDEEC00A10EE101A06F0EEBF401C9AE75C
:101770001018002400280024FCA9F1D24D62503F2B
:10178000FCA9F1D24D6250BF10B558B1084C491EAA
:101790000BD310F8013B5340DBB234F8133083EA2B
:1017A0001222F4E74FF6FF7010BD104610BD000086
:1017B00040B0000810B5054C03E010F8013B534061
:1017C000E25C491EF9D2104610BD000040AF00088F
:1017D0002DE9F84F044602F069F900905CB194F8E5
:1017E000350002280AD080206065002084F834008B
:1017F0000120BDE8F88F0120BDE8F88FB6492068C8
:10180000B64EB74F8842DFF8DC82DFF8DC92DFF8B3
:10181000DCA2DFF8DCB226D0B04224D0B84222D01D
:10182000404520D048451ED050451CD058451AD0C0
:10183000B04A904217D0B04A904214D0AF4A90427A
:1018400011D0AF4A90420ED0AE4A90420BD0AE4A71
:10185000904208D0AD4A904205D0AD4A904202D0A5
:10186000AC4A90420AD1026822F01E02026020684F
:10187000426922F080024261256804E0026822F099
:101880000E0202602568206888423ED0B0423CD0FB
:10189000B8423AD0404538D0484536D0504534D08B
:1018A000584532D0934A90422FD0934A90422CD040
:1018B000924A904229D0924A904226D0914A904230
:1018C00023D0914A904220D0904A90421DD0904A15
:1018D00090421AD08F4A904217D08F4A904214D02B
:1018E0008E4A904211D08E4A90420ED08D4A90423C
:1018F0000BD08D4A904208D08C4A904205D08C4A39
:10190000904202D08B4A904204D1206E026822F4A9
:101910008072026070492068884226D0B04224D08C
:10192000B84222D0404520D048451ED050451CD05A
:1019300058451AD06F49884217D06F49884214D051
:101940006E49884211D06E4988420ED06D49884256
:101950000BD06D49884208D06C49884205D06C494B
:10196000884202D06B49884204D1016821F001010C
:10197000016003E0016821F001010160286810F0B6
:10198000010F14D002F092F80099401A05280AD9E4
:1019900020206065032084F83500002084F834009E
:1019A0000120BDE8F88F286810F0010FEAD14A4AFB
:1019B00001212068904226D0B04224D0B84222D0E3
:1019C000404520D048451ED050451CD058451AD01F
:1019D000484B984217D0484B984214D0474B9842F6
:1019E00011D0474B98420ED0464B98420BD0464BF5
:1019F000984208D0454B984205D0454B984202D0BA
:101A0000444B98420AD1A06D4FF03F0C94F85C30E3
:101A100003F01F030CFA03F3836007E0A06D94F852
:101A20005C3003F01F0301FA03F343602068904227
:101A30003ED0B0423CD0B8423AD0404538D048457C
:101A400036D0504534D0584532D02A4A90422FD013
:101A5000294A90422CD0294A904229D0284A9042C3
:101A600026D0284A904223D0274A904220D0274AA5
:101A700090421DD0264A90421AD0264A904217D052
:101A8000254A904214D0254A904211D0244A9042CF
:101A90000ED0244A90420BD0234A904208D0234AC9
:101AA000904205D0224A904202D0224A90420BD165
:101AB000626EA06E5060E06E30B1026822F48072F7
:101AC0000260226F606F506084F83510002084F847
:101AD0003400BDE8F88F00001000024028000240EA
:101AE000400002405800024070000240880002405E
:101AF000A0000240B8000240100402402804024046
:101B0000400402405804024070040240880402402D
:101B1000A0040240B8040240085402581C54025861
:101B20003054025844540258585402586C540258C5
:101B300080540258945402582DE9F05F002808D0D0
:101B400090F83510022907D0802141650120BDE8B9
:101B5000F09F0120BDE8F09FDFF81CE20168874B91
:101B6000DFF81CC27145874C874D884E884FDFF8DF
:101B70002482DFF82492DFF824A2DFF824B2894A15
:101B800025D0994223D0614521D0A1421FD0A9423E
:101B90001DD0B1421BD0B94219D0DFF80CE271451B
:101BA00015D0DFF808E2714511D0DFF804E2714585
:101BB0000DD041450BD0494509D0DFF8F8E171451A
:101BC00005D0514503D0594501D0914232D14FF053
:101BD000040E80F835E06848814221D099421FD038
:101BE00061451DD0A1421BD0A94219D0B14217D0E6
:101BF000B94215D06C48814212D06C4881420FD056
:101C00006B4881420CD041450AD0494508D069480B
:101C1000814205D0514503D0594501D0914204D1AC
:101C2000086820F001000860A3E0086820F00100C7
:101C300008609EE0D1F800E02EF00E0EC1F800E042
:101C4000DFF834E10168714525D0994223D0614520
:101C500021D0A1421FD0A9421DD0B1421BD0B94210
:101C600019D0DFF844E1714515D0DFF840E1714546
:101C700011D0DFF83CE171450DD041450BD049450D
:101C800009D0DFF830E1714505D0514503D0594501
:101C900001D0914206D1D1F800E02EF0010EC1F83A
:101CA00000E005E0D1F800E02EF0010EC1F800E000
:101CB000DFF8C4E00168714539D0994237D06145F9
:101CC00035D0A14233D0A94231D0B1422FD0B94250
:101CD0002DD0354B99422AD0344B994227D0344BE2
:101CE000994224D0414522D0494520D0314B9942D8
:101CF0001DD051451BD0594519D0914217D02E4ABD
:101D0000914214D02D4A914211D02D4A91420ED0C9
:101D10002C4A91420BD02C4A914208D02B4A914236
:101D200005D02B4A914202D02A4A914218D1016E25
:101D30000A6822F480720A60816D90F85C2002F0DB
:101D40001F0301229A404A60426E816E5160C16E4B
:101D500031B10A6822F480720A60026F416F5160EB
:101D6000012180F83510002180F83410016D01B197
:101D700088470020BDE8F09F100002402800024084
:101D800040000240580002407000024088000240BB
:101D9000A00002404004024058040240880402406F
:101DA000A0040240B8040240B800024010040240FF
:101DB0002804024070040240085402581C5402587F
:101DC0003054025844540258585402586C54025823
:101DD0008054025894540258406D70472DE9F04FDA
:101DE00083B00446002002904FF41651FD4800686D
:101DF000B0FBF1F00190A56D2E682968FA4F2068BC
:101E0000DFF8E8A3DFF8E8B3B842DFF8E883DFF8EB
:101E1000E8932DD0524690422AD05A46904227D07D
:101E2000404525D0484523D0F44A904220D0F44A7A
:101E300090421DD0F34A90421AD0F34A904217D0F4
:101E4000DFF8C8C3604513D0F14A904210D0DFF8E4
:101E5000C4E370450CD0F04A904209D0EF4A90425A
:101E600006D0EF4A904203D0EE4B984240F04082B9
:101E700094F85C10082201F01F0102FA01F13142CE
:101E800041D0B84228D0504526D0584524D04045AE
:101E900022D0484520D0D94988421DD0D84988420F
:101EA0001AD0D849884217D0D749884214D0D74988
:101EB000884211D0D64988420ED0D64988420BD0EC
:101EC000D549884208D0D549884205D0D4498842AE
:101ED00002D0D449884203D1016801F0040102E034
:101EE000016801F0080171B1016821F0040101608D
:101EF00094F85C0000F01F0002FA00F0A860606D2A
:101F000040F00100606594F85C0000F01F010120C2
:101F100000FA01F1314234D02068B84228D050454F
:101F200026D0584524D0404522D0484520D0B34A39
:101F300090421DD0B24A90421AD0B24A904217D075
:101F4000B14A904214D0B14A904211D0B04A904266
:101F50000ED0B04A90420BD0AF4A904208D0AF4A60
:101F6000904205D0AE4A904202D0AE4A90427DD116
:101F7000406910F0800F04D0A960606D40F002004D
:101F8000606594F85C0000F01F01042000FA01F184
:101F9000314234D02068B84228D0504526D0584528
:101FA00024D0404522D0484520D0944A90421DD0AC
:101FB000934A90421AD0934A904217D0924A904244
:101FC00014D0924A904211D0914A90420ED0914A38
:101FD00090420BD0904A904208D0904A904205D04F
:101FE0008F4A904202D08F4A904245D1006810F04B
:101FF000020F04D0A960606D40F00400606594F8A1
:102000005C0000F01F01102000FA01F1314259D0AC
:102010002068B84228D0504526D0584524D04045A5
:1020200022D0484520D0754A90421DD0744A904233
:102030001AD0744A904217D0734A904214D0734A0F
:10204000904211D0724A90420ED0724A90420BD008
:10205000714A904208D0714A904205D0704A90422D
:1020600002D0704A904209D1006800E002E000F01E
:10207000080006E0006884E70068C0E7006800F038
:102080000400F8B1A9602068016811F4802F0DD018
:10209000006810F4002F04D0A16C99B12046884745
:1020A00010E0216C71B1204688470BE0016811F403
:1020B000807F03D1016821F008010160216C09B122
:1020C0002046884794F85C0000F01F01202000FAA9
:1020D00001F131426FD02068B84228D0504526D057
:1020E000584524D0404522D0484520D0434A90420C
:1020F0001DD0434A90421AD0424A904217D0424AD9
:10210000904214D0414A904211D0414A90420ED0A0
:10211000404A90420BD0404A904208D03F4A9042F9
:1021200005D03F4A904202D03E4A904203D1006817
:1021300000F0100002E0006800F00200D8B3A960CF
:1021400094F8350004280DD02068016811F4802F20
:1021500037D0006810F4002F2ED0E16B59B3204621
:10216000884764E02068016821F01601016020685A
:10217000416921F080014161206C08B9A06C20B157
:102180002068016821F00801016094F85C003F219B
:1021900000F01F0001FA00F0A860012084F835006B
:1021A000002084F83400216D00297BD003B0204644
:1021B000BDE8F04F084737E0616CA9B32046884777
:1021C00035E0016811F4807F09D1016821F0100128
:1021D0000160012084F83500002084F83400E16BB0
:1021E00011B322E004000024100002402800024045
:1021F0004000024058000240700002408800024047
:10220000A0000240B800024010040240280402402E
:102210004004024058040240700402408804024016
:10222000A0040240B804024001E020468847606DE7
:10223000002837D0606D10F0010F51D0042084F8D1
:1022400035002068B84228D0504526D0584524D0C3
:10225000404522D0484520D0AB4988421DD0AB49EB
:1022600088421AD0AA49884217D0AA49884214D075
:10227000A949884211D0A94988420ED0A84988426C
:102280000BD0A849884208D0A749884205D0A74961
:10229000884202D0A649884205D1016821F0010197
:1022A000016004E096E0016821F00101016021680D
:1022B0000298019A401C0290904203D8086810F0DE
:1022C000010FF5D1086810F0010F03D0032084F846
:1022D000350002E0012084F83500002084F8340045
:1022E000E16C002976D003B02046BDE8F04F0847E6
:1022F000904B984214D0904B984211D08F4B9842FB
:102300000ED08F4B98420BD08E4B984208D08E4BFC
:10231000984205D08D4B984202D08D4B984259D1AE
:1023200003684FF0040A94F85C6006F01F060AFA8E
:1023300006FA1AEA010F5AD013F0040F57D0C5F865
:1023400004A013F4004F12D013F4803F07D0216C87
:1023500000293FD003B02046BDE8F04F0847A16CEC
:10236000002937D003B02046BDE8F04F084713F0EE
:10237000200F34D12068B84227D07649884224D033
:102380007549884221D040451FD048451DD05E493F
:1023900088421AD05D49884217D05D49884214D0DE
:1023A0005C49884211D060450FD05C4988420CD00E
:1023B00070450AD05B49884207D05B49884204D007
:1023C000904202D05A49884205D1016821F00801A3
:1023D000016004E083E0016821F004010160216CE8
:1023E00000297CD003B02046BDE8F04F08474FF0ED
:1023F000020A0AFA06FA1AEA010F5FD013F0020F76
:102400005CD0C5F804A013F4004F12D013F4803F41
:1024100007D0E16B002974D003B02046BDE8F04F2F
:102420000847616C00296CD003B02046BDE8F04F2E
:10243000084713F0200F39D12068B84227D045490A
:10244000884224D04449884221D040451FD0484585
:102450001DD02D4988421AD02C49884217D02C49CA
:10246000884214D02B49884211D060450FD02B49A7
:1024700088420CD070450AD02A49884207D02A49A0
:10248000884204D0904202D02949884204D1016890
:1024900021F01401016003E0016821F00A010160EC
:1024A000012084F83500002084F83400E16B002915
:1024B00027D003B02046BDE8F04F08470822B240BD
:1024C0000A421ED013F0080F1BD0016821F00E0144
:1024D000016094F85C0000F01F01012000E010E0B2
:1024E00000FA01F16960606584F83500002084F825
:1024F0003400E16C002904D003B02046BDE8F04F61
:10250000084703B0BDE8F08F88000240A0000240F9
:10251000B800024010040240280402404004024077
:10252000580402407004024088040240A0040240A3
:10253000B8040240085402581C540258305402583F
:1025400044540258585402586C540258805402584B
:102550009454025828000240400002402DE9F05FE8
:10256000044601F0A3FA0646002C6AD0DC4F022292
:1025700020680025DFF86C83DFF86C93B842DFF841
:102580006CA3DFF86CB328D0DA49884225D04045E7
:1025900023D0484521D050451FD058451DD0D6499D
:1025A00088421AD0D549884217D0D549884214D0DC
:1025B000D449884211D0D44988420ED0D3498842A8
:1025C0000BD0D349884208D0D249884205D0D2499D
:1025D000884202D0D14988427ED184F8352084F8DF
:1025E0003450B84228D0C349884225D0404523D032
:1025F000484521D050451FD058451DD0BE4988427E
:102600001AD0BE49884217D0BD49884214D0BD496E
:10261000884211D0BC4988420ED0BC4988420BD0B8
:10262000BB49884208D0BB49884205D0BA49884294
:1026300002D0BA49884207D1016821F00101016046
:1026400006E00120BDE8F09F016821F00101016072
:102650002068006810F0010F11D001F027FA801BEC
:10266000052807D920206065032084F83500012063
:10267000BDE8F09F2068006810F0010FEDD12268DE
:102680001068A7490840E368A168D4F814C019434A
:10269000236943EA0C031943A3691943E369194306
:1026A000236A19430843616A042903D1236BE16A51
:1026B000194308439B4909686FF30F01B1F1005FAB
:1026C00011D36168A1F12903052B0AD9163B032B0D
:1026D00007D9083B012B00E02CE002D94F39032930
:1026E00001D840F4801010602068406920F0070194
:1026F000606A40EA010604280ED1A06A0643E06A37
:1027000050B12046FEF73AFB30B140206065012011
:1027100084F83500BDE8F09F206846612046FEF74A
:1027200009FA94F85C103F2201F01F0102FA01F14E
:1027300081605BE07C49884214D07C4B984211D088
:102740007B4B98420ED07B4B98420BD07A4B9842F1
:1027500008D07A4B984205D0794B984202D0794BF9
:1027600098427DD188420CD07049884209D0704986
:10277000884206D06F49884203D06F49884200D012
:102780006E4984F8352084F8345002686FF31012D3
:10279000A168402979D0802979D00021E36841EAF5
:1027A000D301236941EAD301636941EAD301A369F3
:1027B00041EAD301E36941EAD301236A41EA1311F3
:1027C000114301606049206801446048A0FB01108A
:1027D00000098000E0652046FEF7ACF994F85C1033
:1027E000012201F01F0102FA01F141602068B842A4
:1027F00042D0404988423FD040453DD048453BD03B
:10280000504539D0584537D03B49884234D03B49B0
:10281000884231D03A4988422ED03A4988422BD05A
:102820003949884228D03949884225D038498842D8
:1028300022D0384988421FD0374988421CD03749B6
:10284000884219D03849884216D03849884213D076
:102850003749884210D0374988420DD0364900E0C8
:1028600018E0884208D03549884205D0344988426A
:1028700002D0344988422CD12046FEF7CDF9A06819
:1028800080280FD00FE000E001E0102186E74FF430
:10289000804183E740206065032084F835000120F3
:1028A000BDE8F09F6560216E20790860616EA06EC2
:1028B00048606068401E072808D82046FEF718FACE
:1028C000E06E0560216F606F486002E0E566256795
:1028D00065676565012084F835000020BDE8F09F3C
:1028E00010000240400002405800024070000240C8
:1028F0008800024028000240A0000240B8000240C8
:1029000010040240280402404004024058040240DF
:102910007004024088040240A0040240B80402404F
:102920003F8010FE0010005C085402581C540258EE
:102930003054025844540258585402586C540258A7
:102940008054025894540258F8ABFDA7CDCCCCCC9F
:102950002DE9F84F044600200090002C16D094F882
:102960003400012815D0012084F8340094F835C0D3
:102970000020BCF1010F0FD04FF40061616584F8B5
:102980003400012000900098BDE8F88F0120BDE8D8
:10299000F88F0220BDE8F88F4FF0020C84F835C0A4
:1029A0006065DFF82CC220688A4D8B4E60458B4FE6
:1029B000DFF82C82DFF82C92DFF82CA2DFF82CB2A3
:1029C0002DD0A8422BD0B04229D0B84227D04045C4
:1029D00025D0484523D0504521D058451FD0DFF899
:1029E00010C260451BD0DFF80CC2604517D0DFF87D
:1029F00008C2604513D0DFF804C260450FD0DFF88D
:102A000000C260450BD0DFF8FCC1604507D0DFF89D
:102A1000F8C1604503D0DFF8F4C1604506D1D0F8B5
:102A200000C02CF0010CC0F800C005E0D0F800C0D8
:102A30002CF0010CC0F800C02046FEF7DFF9644915
:102A40002068884225D0A84223D0B04221D0B84285
:102A50001FD040451DD048451BD0504519D0584582
:102A600017D0634A904214D0624A904211D0624A11
:102A700090420ED0614A90420BD0614A904208D0F9
:102A8000604A904205D0604A904202D05F4A90422C
:102A90000DD1026822F01E0242F016020260206C84
:102AA00090B12068026842F0080202600CE00268FF
:102AB00022F00E0242F00A020260206C20B120686F
:102AC000026842F004020260206888423DD0A842B9
:102AD0003BD0B04239D0B84237D0404535D04845D8
:102AE00033D0504531D058452FD0414A90422CD058
:102AF000404A904229D0404A904226D03F4A9042D4
:102B000023D03F4A904220D03E4A90421DD03E4AB8
:102B100090421AD03D4A904217D03D4A904214D07C
:102B20003C4A904211D03C4A90420ED03B4A9042DF
:102B30000BD03B4A904208D03A4A904205D03A4ADC
:102B4000904202D0394A90420ED1206E026812F4AF
:102B5000803F03D0026842F480720260E06E18B1D8
:102B6000026842F4807202602068884225D0A84240
:102B700023D0B04221D0B8421FD040451DD0484597
:102B80001BD0504519D0584517D01949884214D048
:102B90001849884211D0184988420ED017498842F6
:102BA0000BD01749884208D01649884205D01649EB
:102BB000884202D01549884204D1016841F00101E0
:102BC0000160E0E6016841F001010160DBE6000020
:102BD000100002402800024040000240580002401D
:102BE0007000024088000240A0000240B80002408D
:102BF00010040240280402404004024058040240ED
:102C00007004024088040240A0040240B80402405C
:102C1000085402581C540258305402584454025864
:102C2000585402586C540258805402589454025814
:102C300090F89830012B09D0022B07D0D0F89C10C7
:102C400041F00201C0F89C10012070470368D3F8DE
:102C500058C01CEA010F06D1D3F85CC04CF0010C3F
:102C6000C3F85CC008E0D3F858C031EA0C0C26D099
:102C70004FF0030CC3F85CC011F4007F06D003686A
:102C8000D3F8E0C04CEA020CC3F8E0C011F4806F46
:102C900006D00368D3F8E4C04CEA0202C3F8E4208B
:102CA0000068426D21F4401323F040431A4342650B
:102CB0000648026842EA9171016000207047D3F82B
:102CC0005CC04CF0020CC3F85CC0D5E714A800400F
:102CD00070B5044694F89800022807D0D4F89C00F8
:102CE00040F00800C4F89C00012070BD2068D0F8B6
:102CF000C03013F07C5F0CD0D0F8C43013F4001F48
:102D00000FD0D4F89C0040F40070C4F89C0001205F
:102D100070BDD4F89C0040F02000C4F89C00012055
:102D200070BDD0F8C400C0F3044520462B46FEF722
:102D300017FC21680120A840C1F8D000C4F8940015
:102D4000002070BD704790F89820012A09D0022A0F
:102D500007D0D0F89C1041F00201C0F89C1001206F
:102D60007047CA680B6893B1072A0B6943EA42733C
:102D70002ED091F808C04A6942EA8C724968006F07
:102D800000EBC100036042604FF000007047072A6B
:102D900012D091F808C04FEAC2624B6943EA8C73C3
:102DA000B1F810C042EA0C4243EA02024968C06E20
:102DB00000EB81000260E7E70B8A4FF0605C8A69F4
:102DC00042EA0342CB694CEA032342EA0302EDE7FD
:102DD0008A69D3E770477047F0B44FF0000C90F861
:102DE0009840022C08D0D0F89C1041F00801C0F89F
:102DF0009C10F0BC0120704740290DD0412940D0E3
:102E0000046D8C4273D8D0F89C1041F02001C0F8BA
:102E10009C10F0BC012070470468D4F8A05015F451
:102E2000FE0F1CD0D4F8A45015F07F0F20D0D4F89A
:102E3000A45015F0807F06D0D4F8A05015F0004FB4
:102E400001D54FF0010CD4F8A440C4F30524A444E8
:102E5000456C446F05FB0CF504EB85044DE0D0F8A0
:102E60009C1041F02001C0F89C10F0BC012070477C
:102E7000D0F89C1041F48071C0F89C10F0BC012087
:102E800070470468D4F8B05015F4FE0F1CD0D4F885
:102E9000B45015F07F0F20D0D4F8B45015F0807FD7
:102EA00006D0D4F8B05015F0004F01D54FF0010C0A
:102EB000D4F8B440C4F30524A444C56C846F05FB66
:102EC0000CF504EB850418E0D0F89C1041F02001CB
:102ED000C0F89C10F0BC01207047D0F89C1041F461
:102EE0008071C0F89C10F0BC01207047FFE7456D71
:102EF000C46F05FB01F504EB8504256805F08045EA
:102F00005560E5B3256825F060451560256805F036
:102F100000559560256805F000451561241D25883C
:102F2000ADB2D5612568C5F30347D760256805F4C0
:102F300080155561256805F4001595612568C5F370
:102F4000066515622568ED0F5562251D0024184E93
:102F5000F75D002F06D92F5D1F55641CD768F75DFC
:102F6000A742F8D8402910D0412912D001222029A7
:102F700013D2006802FA01F1C0F8981014E0FFE7DC
:102F80002568C5F38A451560C0E70068C0F8A8C089
:102F90000AE00068C0F8B8C006E0006801F01F0150
:102FA00002FA01F1C0F89C100020F0BC704700004C
:102FB000B4AE0008704700002DE9F04F83B004461E
:102FC000BC4F38688007391D096800EA817920689C
:102FD000016D01F47041426D02EA010A016D01F0D8
:102FE0000F01426D02EA010B016D01F0F001426D2B
:102FF00011400291016D01F07151426D02EA010828
:10300000016D01F06071426D11400191456D066DD9
:1030100015F4807F09D016F4807F06D0B9150165BC
:10302000002038602046FFF7C5FF15F4806F10D0F0
:1030300016F4806F0DD02068D0F8DC10D0F8E420B2
:1030400011404FF48062026500203860204600F095
:1030500061FBB9F1000F0CD0216829F4401020F079
:10306000404008654FEA9970386049462046FFF7AE
:1030700069FEBAF1000F0CD021682AF4401020F04C
:10308000404008654FEA9A7038605146204600F08B
:1030900043FBBBF1000F0CD021682BF4401020F053
:1030A000404008654FEA9B7038605946204600F062
:1030B000E3FA029868B12168029820F4401020F0E9
:1030C000404008650298800F38600299204600F061
:1030D00001FB15F4006F0BD016F4006F08D02168C7
:1030E0004FF40060086500203860204600F015FBB2
:1030F00015F4007F10D016F4007F0DD02068D0F8B2
:10310000D810D0F8E02011404FF400720265002082
:103110003860204600F0FFFA15F4002F0BD016F4AB
:10312000002F08D021684FF4002008650020386087
:10313000204600F09FFA15F4803F0BD016F4803F34
:1031400008D021684FF480300865002038602046A0
:1031500000F0DFFA15F4802F0BD016F4802F08D082
:1031600021684FF48020086500203860204600F078
:10317000CFFA15F4003F0ED016F4003F0BD02168B3
:103180004FF40030086500203860D4F89C0040F00F
:103190008000C4F89C00019868B12168019820F46F
:1031A000401020F0404008650198800F3860019978
:1031B0002046FFF710FEB8F1000F0ED0216828F46A
:1031C000401020F0404008654FEA98703860D4F80D
:1031D0009C0040EA0800C4F89C002068A0F18041EF
:1031E000B1F520415CD16068816811F0030F57D0C0
:1031F000016A01F00F01426A1140026A02F03002D6
:10320000436A03EA0207026A02F4C072436A03EAED
:103210000208026A02F4FC42436A03EA0205026AF7
:1032200002F4F022436A03EA0206D0F82490D0F8B0
:1032300020A019B10162204600F067FA2FB1606842
:1032400007623946204600F062FA19F0400F0DD0AF
:103250001AF0400F0AD06068C16B090CC26B02F013
:103260003F0240230362204600F050FAB8F1000FFD
:1032700006D06068C0F820804146204600F044FA3D
:1032800035B160680562D4F89C002843C4F89C00FE
:1032900036B160680662D4F89C003043C4F89C00E4
:1032A000D4F89C00002802D02046FFF793FD03B01D
:1032B000BDE8F08F10A800402DE9F04194B004461D
:1032C0004C22A14901A8FDF733F95CB19F4F20685A
:1032D000B84202D100F58070606094F89800002632
:1032E00020B108E014B00120BDE8F08184F89960B5
:1032F000204600F02DF92068816921F010018161DC
:1033000000F0D4FB0546206880694FF0030810F0F8
:10331000080F15D000F0CAFB401B0A280BD9D4F8BF
:103320009C0040F00100C4F89C0084F8988014B020
:103330000120BDE8F0812068806910F0080FE9D114
:103340002068816941F00101816100F0AFFB054611
:103350002068806910F0010F15D100F0A7FB401B19
:103360000A280BD9D4F89C0040F00100C4F89C0056
:1033700084F8988014B00120BDE8F081206880694D
:1033800010F0010FE9D02068816941F002018161EC
:10339000207C012839D02068816941F04001816199
:1033A000607C012837D02068816921F480418161E7
:1033B000A07C012835D02068816941F48051816169
:1033C00020688169A26821F44071114381612068FD
:1033D000816921F0A40181612068016921F0100157
:1033E0000161E068012822D030B302282BD0206888
:1033F000816941F0800181612068016941F010011B
:103400000161E068032818D022E02068816921F07A
:1034100040018161C4E72068816941F48041816194
:10342000C6E72068816921F480518161C8E720687E
:10343000816941F0040181610AE02068816941F0FD
:103440002001816104E02068816941F020018161EF
:10345000207EE169401E491E400640EA0120216AA3
:10346000491E0843A18A491E40EA01402168C861FB
:10347000A068B0F5407F0FD1E16AA06A491E401EE6
:1034800040EA0120216B491E40EA0110A18C491E2F
:1034900040EA01402168C860206E30B12068D0F851
:1034A000C010626E1143C0F8C010216EE06DC842BA
:1034B00001A90AD02068D0F8C820A36E22F0070224
:1034C00051F823301A43C0F8C820206C50B120684E
:1034D000D0F8BC20636C22F0070251F823301A4365
:1034E000C0F8BC20A06C58B12068D0F8BC20E36CB8
:1034F00022F0700251F8233042EA0312C0F8BC20D7
:10350000206D58B12068D0F8BC20636D22F4E062D1
:1035100051F8231042EA0121C0F8BC102068B842DB
:1035200004D16068816821F003018160C4F894606F
:10353000C4F89C60012084F898002046FDF716FF2F
:1035400014B0BDE8F0810000C4AE000800A0004047
:103550002DE9F043B7B00446142130A8FDF71AF85E
:10356000C0216846FDF716F83E4D00263B494FF056
:10357000805220680C3D3A4F4FF00208394C884287
:103580004FF0090931D100201C925113CDE90010F0
:10359000684601F047F908B1FDF7D9FE3868401CCC
:1035A0003860012807D1206840F4807020602068CE
:1035B00000F480703590286840F001002860286889
:1035C00030A900F0010035904FF4C0503090CDE9A3
:1035D00031862548CDE9336900F060F901221320D6
:1035E000114600F0C5FE132033E02049884232D155
:1035F00000201C924FF40041CDE90010684601F014
:1036000011F908B1FDF7A3FE3868401C38600128A5
:1036100007D1206840F480702060206800F480703A
:103620003590286840F002002860286830A900F032
:103630000200359060203090CDE931860C48CDE90C
:10364000336900F02BF901220221142000F090FED2
:10365000142000F07FFE37B0BDE8F08300A00040EA
:1036600000000024EC4402580000025800A400406E
:10367000000402587047000030B513490446006842
:103680008DB00AAD88420BD140212B466A462046B8
:10369000FFF7A2FB012803D00C48C16868468847A1
:1036A0000B49206888420CD140212B466A462046AF
:1036B000FFF792FB012804D004481030C168684627
:1036C00088470DB030BD000000A000401800002465
:1036D00000A40040704790F89810012907D0D0F856
:1036E0009C1041F00401C0F89C1001207047022199
:1036F00080F8981001688A6922F001028A6100212D
:10370000C0F89C10002070477047704770477047A2
:103710007047704770477047704770472DE9F04F0A
:1037200000235D4C00297DD04FF0B04A4FF0010ED0
:103730004FF00F090EFA03F707EA010CBCF1000F76
:1037400071D023F0030202F1B045D5F808249E079A
:103750004FEA167809FA08F606EA020BA0F1B04221
:10376000B2F500327BD0A0F1B042B2F501327ED08A
:10377000A0F1B042B2F502327BD0A0F1B042B2F576
:10378000033278D0A0F1B042B2F5043275D0A0F186
:10379000B042B2F5053272D0A0F1B042B2F50632B5
:1037A00072D0A0F1B042B2F507326FD0A0F1B042B2
:1037B000B2F508326CD0A0F1B042B2F5093269D04E
:1037C0000A2202FA08F25A4518D1226822EA0C02AB
:1037D0002260626822EA0C026260DAF8042022EABF
:1037E0000C02CAF80420DAF8002022EA0C02CAF817
:1037F0000020D5F80824B243C5F80824D0F800C04A
:103800005D000322AA404CEA020CC0F800C04FEA57
:10381000D30C00EB8C0CDCF820505E07F60E09FA96
:1038200006F601E019E013E0B543CCF82050D0F8DB
:103830000CC02CEA020CC0F80CC0D0F804C02CEA72
:10384000070CC0F804C0D0F808C02CEA020282605D
:103850005B1C31FA03F27FF46DAFBDE8F08F04E03A
:1038600005E006E007E008E009E00022A9E7012200
:10387000A7E70222A5E70322A3E70422A1E7052286
:103880009FE701E002E003E006229AE7072298E7BB
:10389000082296E7092294E7800000582DE9F84FA6
:1038A0000022DFF8E4C10B68002B7DD0DFF8DCB12B
:1038B0004FF0B04A4FF0010E4FF003084FF00F09E0
:1038C0000B680EFA02F52B40002B6ED00C7904F039
:1038D0000304012C01D0022C11D18668540008FA8F
:1038E00004F7BE43CF6807FA04F4344384604468A5
:1038F000AC430D79C5F3001595402C4344604C68EA
:1039000038EA040409D0C568540008FA04F6B5433F
:103910008E6806FA04F42C43C4600C7904F00304A6
:10392000022C0DD1D40800EB84052E6A5407E40E56
:1039300009FA04F7BE430F6907FA04F434432C6212
:103940000568540008FA04F6B5430E7906F003063C
:1039500006FA04F42C4304604C6814F4403F78D019
:10396000DBF8004044F00204CBF80040DBF80040F4
:1039700004F00204009422F0030404F1B046D6F8E7
:10398000084495072D0F09FA05F724EA0707A0F167
:10399000B044B4F5003463D0A0F1B044B4F50134C0
:1039A00060D0A0F1B04401E058E052E0B4F5023438
:1039B0005AD0A0F1B044B4F5033457D0A0F1B044CC
:1039C000B4F5043454D0A0F1B044B4F5053451D06A
:1039D000A0F1B044B4F506344ED0A0F1B044B4F533
:1039E00007344BD0A0F1B044B4F5083448D0A0F16E
:1039F000B044B4F5093445D00A24AC403C43C6F881
:103A00000844DAF800409C434D6815F4801F00D04C
:103A10001C43CAF80040DAF804409C434D6815F492
:103A2000001F00D01C43CAF80440DCF804409C434B
:103A30004D6815F4003F00D01C43CCF80440DCF87E
:103A400000409C434D6815F4803F00D01C43CCF8E7
:103A50000040521C0B68D3407FF432AFBDE8F88FB2
:103A60000024CAE70124C8E70224C6E70324C4E708
:103A70000424C2E70524C0E70624BEE70724BCE708
:103A80000824BAE70924B8E780000058F444025833
:103A9000002A01D0816170470904816170470000EC
:103AA00001480068000C70470010005C0148806805
:103AB000704700000C00002490F84120202A01D01B
:103AC0000220704790F84020012A20D0012280F87F
:103AD0004020242280F841200268136823F001036B
:103AE00013600268136823F480531360026813683C
:103AF0001943116001680A6842F001020A6020213E
:103B000080F84110002180F840100020704702200A
:103B1000704790F84120202A01D00220704790F889
:103B20004020012A1ED0012280F84020242280F863
:103B300041200268136823F00103136002681368D0
:103B400023F4706343EA0121116001680A6842F0BE
:103B500001020A60202180F84110002180F8401005
:103B6000002070470220704710B50446002C14D086
:103B7000242084F841002068016821F001010160DF
:103B8000204600F0CDFA0020606484F841002063F4
:103B900084F8420084F8400010BD012010BD90F868
:103BA0004100704770B50446002C04D094F84100E1
:103BB000002510B106E0012070BD84F84050204679
:103BC00000F0CCFA242084F841002068016821F03C
:103BD00001010160606820F0706120680161206867
:103BE000816821F400418160E068012833D02168B8
:103BF000A06840F404408860E068022831D0206862
:103C0000416821F4006141602068416841F400414D
:103C100041F0007141602068C16821F40041C16039
:103C2000616920690843A16940EA01202168C860F0
:103C3000216AE0690843216808602068016841F052
:103C4000010101606564202084F84100256384F847
:103C50004250002070BD2168A06840F40040886098
:103C6000CAE72068416841F400614160CCE72DE972
:103C7000F04F83B0044692461D464FF0000BCDF83E
:103C800008B094F84100202803D003B00220BDE81A
:103C9000F08F2068806910F4004F03D003B0022039
:103CA000BDE8F08F94F8400001282AD0012084F864
:103CB0004000242084F84100C4F844B0C1F3090056
:103CC00020F480614FF0200920F4806041F4005717
:103CD00040F4205847F0007748F00078E068012869
:103CE00013D0404621684860FFF7E0FE0646206892
:103CF0008169C1F340118069C0F30010084306D008
:103D000017E003B00220BDE8F08F3846EAE7B5F1CE
:103D1000FF3F05D0FFF7CAFE801BA8421AD8CDB1DD
:103D200020688169C1F340118069C0F30010084325
:103D3000EDD02068806910F0100F17D000222B46BC
:103D400020212046009603F005FE30B303B0012089
:103D5000BDE8F08F84F84190606C40F02000606412
:103D600084F840B003B00120BDE8F08F00222B465C
:103D700020212046009603F0EDFD18B103B001208C
:103D8000BDE8F08F2068C0F81C9084F8419084F85A
:103D900040B003B00020BDE8F08F21681020C8615A
:103DA0002068C0F81C900298401C02900298504570
:103DB00094D384F84190606C40F02000606484F8F3
:103DC00040B003B00120BDE8F08F00002DE9FF4FA7
:103DD00083B0044692469B46DDF84490DDF840806F
:103DE000129F94F84100202803D007B00220BDE8BC
:103DF000F08FB8F1000F18D0B9F1000F15D094F87A
:103E00004000012818D0012084F84000FFF74EFE42
:103E100005462046012200951923D10303F09AFD9F
:103E200070B107B00120BDE8F08F4FF400706064FE
:103E300007B00120BDE8F08F07B00220BDE8F08F89
:103E4000222084F84100402084F842000026666465
:103E5000C4F82480A4F82A9066635B46049952460D
:103E600020460097019503F0DDFC28B184F84060FE
:103E700007B00120BDE8F08F618D4FF0FF083D488D
:103E8000FF290AD94246A4F8288004994FF080738C
:103E90000090204603F042FD0AE0618D21854FF03D
:103EA00000730090204694F82820049903F036FD12
:103EB00000223B4604212046009503F04BFD18B13B
:103EC00007B00120BDE8F08F2068406A616A087081
:103ED000606A401C6062208D401E80B22085618D2A
:103EE000491E6185618D29B320BB00223B4680219C
:103EF0002046009503F02EFD18B107B00120BDE863
:103F0000F08F608DFF280AD94246A4F828800499D2
:103F10004FF080732046009603F000FD0AE0608DAC
:103F200020854FF000730096204694F828200499CD
:103F300003F0F4FC608D0028BAD12A4639462046A9
:103F400003F053FD18B107B00120BDE8F08F2068E1
:103F50002021C16120684268074B1A40426084F802
:103F6000411084F8426084F8406007B00020BDE84A
:103F7000F08F00000024008000E800FE2DE9FF4FD4
:103F800083B0044692469B46DDF84490DDF84080BD
:103F9000129F94F84100202803D007B00220BDE80A
:103FA000F08FB8F1000F18D0B9F1000F15D094F8C8
:103FB0004000012818D0012084F84000FFF776FD6A
:103FC00005462046012200951923D10303F0C2FCC7
:103FD00070B107B00120BDE8F08F4FF4007060644D
:103FE00007B00120BDE8F08F07B00220BDE8F08FD8
:103FF000212084F84100402084F8420000266664B5
:10400000C4F82480A4F82A9066635B46049952465B
:1040100020460097019503F043FC28B184F84060E6
:1040200007B00120BDE8F08F608D4FF0FF08FF283A
:104030000AD94246A4F8288004994FF0807320469C
:10404000009603F06BFC0AE0608D20854FF0007352
:104050000096204694F82820049903F05FFC2A4635
:104060003946204603F0F2FC18B107B00120BDE844
:10407000F08F606A216800788862606A401C606224
:10408000608D401E6085208D401E80B22085618D30
:1040900029B320BB00223B4680212046009503F037
:1040A00059FC18B107B00120BDE8F08F608DFF28E2
:1040B0000AD94246A4F8288004994FF0807320461C
:1040C000009603F02BFC0AE0608D20854FF0007312
:1040D0000096204694F82820049903F01FFC608D78
:1040E0000028BCD12A463946204603F07EFC18B190
:1040F00007B00120BDE8F08F20682021C161206851
:104100004268064B1A40426084F8411084F84260CD
:1041100084F8406007B00020BDE8F08F00E800FEA2
:1041200010B500680A49884211D10A48016821F493
:1041300080010160084C4FF480612046FFF7EEFAE1
:104140002046BDE810404FF40061FFF7E7BA10BD0C
:1041500000580040E84402580004025810B5B6B0B8
:104160000446142130A8FCF715FAC0216846FCF774
:1041700011FA1949206888422BD10020219008218A
:104180000446CDE90010684600F04CFB08B1FDF78D
:10419000DEF81248016841F002010160006830A9B0
:1041A00000F0020035904FF4406030901220CDE9CD
:1041B00031040420CDE933400948FFF76FFB07487D
:1041C0000830016841F480010160006800F480005B
:1041D000359036B010BD000000580040E044025851
:1041E00000040258024881680278114481607047D7
:1041F0000C00002410B5032000F0F0F801F010FAD4
:104200000F4A1168C1F303230E49CB5C03F01F036F
:10421000D840126802F00F02895C0B4A01F01F01BE
:1042200020FA01F1116009490860002000F010F83F
:1042300008B1012010BD00F07DF8002010BD000085
:1042400018440258A4AE000808000024040000240A
:1042500070B504460F4D2A78002A0CD04FF47A70BE
:104260000D49B0FBF2F00968B1FBF0F001F066FF18
:1042700018B1012070BD012070BD102C07D20022A2
:104280002146501E00F074F86C60002070BD0120C3
:1042900070BD00000C00002404000024124A417884
:1042A000116012490A6822F001020A600B1F42687D
:1042B0001A60027BC37A120742EA0362837A42EAF7
:1042C000C342437B42EA8342837B42EA4342C37B4D
:1042D00042EA0342437A42EA0322037A007842EA3E
:1042E000430210430860704798ED00E0A0ED00E045
:1042F000BFF35F8F0448016821F4803101600349F6
:10430000002008607047000024ED00E094ED00E01C
:10431000064940F0010008600548016841F4803119
:104320000160BFF34F8FBFF36F8F704794ED00E0D4
:1043300024ED00E0064882B0016841F0020101600E
:10434000006800F002000090052002B000F046B8BE
:10435000F444025800280ADB012200F01F0102FA8F
:1043600001F14009800000F1E020C0F80011704721
:104370004DF8044D184B1B68C3F30223C3F1070C1F
:10438000BCF1040F01D94FF0040C1C1D072C01D205
:10439000002300E0DB1E012404FA0CFCACF1010C4C
:1043A0000CEA0101994004FA03F35B1E1A40114321
:1043B000002807DB00F1E020090180F800145DF817
:1043C000044B704700F00F0000F1E020090180F875
:1043D000141D5DF8044B70470CED00E000F0070081
:1043E000064A11684FF6FF03194041EA002040F0E9
:1043F000FD7040F080601060704700000CED00E040
:1044000070B515490A6812F0040F0DD00A6822F041
:10441000070210430860FFF749FB04460F4D286868
:1044200010F4005F09D014E0096801F0070181422F
:1044300001D0012070BD002070BDFFF737FB001BCD
:10444000B0F57A7F01D9012070BD286810F4005FB3
:10445000F3D0002070BD00000C48025804480258F8
:1044600010B501F091F805490968054AC1F3021138
:10447000515C01F01F01C84010BD000020440258EB
:10448000A4AE000869490A6802F003020968C1F392
:104490000531674B1B68C3F30013DFF898C1DCF8E4
:1044A00000C0CCF3CC0C1CFB03F300EE103AB8EECA
:1044B000400A002972D09FED601A604B002AF7EE87
:1044C000000A46D0DFED5E1A012A68D0022A67D0C2
:1044D00002EE101A1968F8EE422A81EEA22AC1F300
:1044E000080101EE901AF8EE611A40EE011A31EE61
:1044F000A00A22EE000A1968C1F3462101EE101A43
:10450000B8EE411A31EE201AC0EE011ABCEEE11AE3
:1045100080ED001A1968C1F3064101EE101AB8EED9
:10452000411A31EE201AC0EE011ABCEEE11A80EDFC
:10453000011A1968C1F3066101EE101AB8EE411AAA
:1045400071EE200A80EE201ABCEEC10A80ED020A4C
:1045500070473C4AD2F800C01CF0200F21D01268EE
:10456000DFF8E4C0C2F3C1022CFA02F201EE902A95
:10457000F8EE612A01EE901A1968F8EE611A82EEDF
:10458000A12AC1F3080101EE901AF8EE611A40EE7B
:10459000011A31EEA00A22EE000AACE741E016E073
:1045A00029E001EE901ADFED292A1968F8EE611A68
:1045B00082EEA12AC1F3080101EE901AF8EE611A09
:1045C00040EE011A31EEA00A22EE000A93E702EE55
:1045D000101A1968F8EE422A81EEA22AC1F30801E6
:1045E00001EE901AF8EE611A40EE011A31EEA00ABF
:1045F00022EE000A7FE701EE901ADFED152A196816
:10460000F8EE611A82EEA12AC1F3080101EE901AB8
:10461000F8EE611A40EE011A31EEA00A22EE000A0D
:1046200069E70021016041608160704728440258B9
:104630002C4402583C4402580000003938440258C7
:104640000024744A004402580090D0030024744CA3
:104650000024F44A69490A6802F003020968C1F3B8
:104660000551674B1B68C3F30023DFF898C1DCF8E2
:1046700000C0CCF3CC0C1CFB03F300EE103AB8EEF8
:10468000400A002972D09FED601A604B002AF7EEB5
:10469000000A46D0DFED5E1A012A68D0022A67D0F0
:1046A00002EE101A1968F8EE422A81EEA22AC1F32E
:1046B000080101EE901AF8EE611A40EE011A31EE8F
:1046C000A00A22EE000A1968C1F3462101EE101A71
:1046D000B8EE411A31EE201AC0EE011ABCEEE11A12
:1046E00080ED001A1968C1F3064101EE101AB8EE08
:1046F000411A31EE201AC0EE011ABCEEE11A80ED2B
:10470000011A1968C1F3066101EE101AB8EE411AD8
:1047100071EE200A80EE201ABCEEC10A80ED020A7A
:1047200070473C4AD2F800C01CF0200F21D012681C
:10473000DFF8E4C0C2F3C1022CFA02F201EE902AC3
:10474000F8EE612A01EE901A1968F8EE611A82EE0D
:10475000A12AC1F3080101EE901AF8EE611A40EEA9
:10476000011A31EEA00A22EE000AACE741E016E0A1
:1047700029E001EE901ADFED292A1968F8EE611A96
:1047800082EEA12AC1F3080101EE901AF8EE611A37
:1047900040EE011A31EEA00A22EE000A93E702EE83
:1047A000101A1968F8EE422A81EEA22AC1F3080114
:1047B00001EE901AF8EE611A40EE011A31EEA00AED
:1047C00022EE000A7FE701EE901ADFED152A196844
:1047D000F8EE611A82EEA12AC1F3080101EE901AE7
:1047E000F8EE611A40EE011A31EEA00A22EE000A3C
:1047F00069E70021016041608160704728440258E8
:104800002C440258444402580000003940440258E5
:104810000024744A004402580090D0030024744CD1
:104820000024F44A2DE9F84F0446002500262068AC
:10483000C04310F0006FFE4FDFF8F8830DD1A06E7B
:1048400088B1B0F5801F13D0B0F5001F17D0B0F5B8
:10485000401F00D00125CDB12E462088C04310F462
:10486000807F1CD039E0386840F400303860F2E7CF
:10487000022104F1080004F057F90546EBE7022194
:1048800004F1280004F0F0F90546E4E7D8F8000048
:10489000A16E20F440100843C8F80000DDE7A06DC9
:1048A000052817D2DFE800F003080F171700386853
:1048B00040F4003038600EE0002104F1080004F0FC
:1048C00033F9054607E0002104F1280004F0CCF993
:1048D000054600E0012535B12E462088C04310F47E
:1048E000007F09D018E0D8F80000A16D20F0070083
:1048F0000843C8F80000F0E7E06D802820D003DC12
:1049000090B1402805D114E0C02803D0B0F5807FD5
:1049100000D00125DDB12E462088DFF81C93C0436E
:1049200010F4806F1CD02FE0386840F400303860FD
:10493000F0E7002104F1080004F0F6F80546E9E785
:10494000002104F1280004F08FF90546E2E7D8F8C9
:104950000000E16D20F4E0700843C8F80000DBE7D8
:10496000D4F8A800B0F5800F20D004DC90B1B0F5E9
:10497000001F06D113E0B0F5C00F03D0B0F5000F53
:1049800000D00125CDB12E462088C04310F4006F21
:104990001DD030E0386840F400303860F2E7002184
:1049A00004F1080004F0C0F80546EBE7002104F12B
:1049B000280004F059F90546E4E7D9F80000D4F8D6
:1049C000A81020F460000843C9F80000DCE7D4F820
:1049D000AC00B0F1007F20D004DC90B1B0F1807F5A
:1049E00006D113E0B0F1407F03D0B0F1806F00D06A
:1049F0000125CDB12E462068C04310F0007F1DD0A8
:104A000027E0386840F400303860F2E7002104F114
:104A1000080004F089F80546EBE7002104F12800BE
:104A200004F022F90546E4E7D9F80000D4F8AC1008
:104A300020F0E0600843C9F80000DCE7E06C30B12A
:104A400010280CD020280FD0302800D0012595B197
:104A50002E462088C04310F4805F14D026E03868CA
:104A600040F400303860F2E7022104F1080004F05D
:104A70005BF80546EBE771480168E26C21F0300114
:104A800011430160E5E7206EB0F5005F20D004DC43
:104A900090B1B0F5805F06D113E0B0F5405F03D070
:104AA000B0F5804F00D00125CDB12E462088C043FF
:104AB00010F4005F1CD031E0386840F400303860FA
:104AC000F2E7002104F1080004F02EF80546EBE7B8
:104AD000002104F1280004F0C7F80546E4E7D8F8FF
:104AE0000000216E20F4E0400843C8F80000DDE734
:104AF000606EB0F5403F0FD007DC68B1B0F5803F85
:104B000012D0B0F5003F06D115E0B0F5802F03D0EC
:104B1000B0F5A02F00D00125A5B12E462088C043B6
:104B200010F4804F17D02DE0012104F1080003F0AC
:104B3000FBFF0546F0E7012104F1280004F094F89A
:104B40000546E9E7D8F80000616E20F4E02008434C
:104B5000C8F80000E2E7D4F8B000B0F1405F0FD031
:104B600007DC68B1B0F1805F12D0B0F1005F06D110
:104B700015E0B0F1804F03D0B0F1A04F00D0012577
:104B8000A5B12E462088C04310F4004F18D022E073
:104B9000012104F1080003F0C7FF0546F0E70121F9
:104BA00004F1280004F060F80546E9E7D9F80000B0
:104BB000D4F8B01020F0E0400843C9F80000E1E765
:104BC000206F30B1B0F1805F0BD0B0F1005F0DD03D
:104BD000012595B12E462068C04310F0807F15D086
:104BE0001FE0386840F400303860F2E7012104F13A
:104BF000080003F099FF0546EBE7D8F80000216FA5
:104C000020F040500843C8F80000E4E7A06C30B141
:104C1000012819D002281CD0032800D00125FDB19D
:104C20002E462068DFF818B0C04310F4800F09E06A
:104C30002C44025850440258584402584C440258DC
:104C40001044025814D030E0386840F40030386026
:104C5000E5E7022104F1080003F066FF0546DEE700
:104C6000F8480168A26C21F0030111430160D8E704
:104C7000F548006840F48071F3480160FEF716FFC4
:104C80008246F148006810F4807F0CD1FEF70EFFD9
:104C9000A0EB0A00642801D9032504E0EA48006873
:104CA00010F4807FF2D045B12E462078DFF89CA327
:104CB000C04310F0010F60D070E0DFF894A3DAF881
:104CC0000000B4F8B41000F4407001F44071884260
:104CD00011D0DAF8000020F44070DAF8001041F446
:104CE0008031CAF80010DAF8001021F48031CAF8D7
:104CF0000010CAF80000D4F8B400B0F5807F16D1D7
:104D0000FEF7D4FE0090DAF8000010F0020F0ED18A
:104D1000FEF7CCFE0099411A41F28830814201D958
:104D2000032504E0DAF8000010F0020FF0D00DB116
:104D30002E46BAE7D4F8B4004FF4407181430FD047
:104D4000DBF8000020F47C50CBF80000DAF800001B
:104D5000B4F8B410C1F30B010843CAF80000A4E78B
:104D6000DBF8001020F4407020F0704021F47C51FA
:104D700041EA1010CBF80000E8E7E06F18280BD0EC
:104D800005DC48B108280FD0102804D113E02028F2
:104D900002D0282800D00125A5B12E462078C04396
:104DA00010F0020F17D02FE0012104F1080003F0EA
:104DB000BBFE0546F0E7012104F1280003F054FF93
:104DC0000546E9E7DAF80000E16F20F03800084313
:104DD000CAF80000E2E7A06F062812D2DFE800F070
:104DE00012030A121212012104F1080003F09CFEC2
:104DF000054607E0012104F1280003F035FF0546D0
:104E000000E0012535B12E462078C04310F0040F94
:104E100009D022E0DAF80000A16F20F00700084373
:104E2000CAF80000F0E7D4F89400062812D2DFE8B0
:104E300000F012030A121212012104F1080003F01B
:104E400073FE054607E0012104F1280003F00CFF82
:104E5000054600E0012535B12E462078C04310F00C
:104E6000200F0AD020E0D9F80000D4F8941020F0E8
:104E700007000843C9F80000EFE7D4F89000B0F14C
:104E8000405F0FD007DC68B1B0F1805F12D0B0F1A5
:104E9000005F06D115E0B0F1804F03D0B0F1A04F14
:104EA00000D00125A5B12E462078C04310F0400F58
:104EB00018D02EE0002104F1080003F035FE05466D
:104EC000F0E7022104F1280003F0CEFE0546E9E7F1
:104ED000DAF80000D4F8901020F0E0400843CAF857
:104EE0000000E1E7D4F89C00B0F5406F0FD007DC7C
:104EF00068B1B0F5806F12D0B0F5006F06D115E043
:104F0000B0F5805F03D0B0F5A05F00D00125A5B15A
:104F10002E462078C04310F0800F18D02EE00021DC
:104F200004F1080003F000FE0546F0E7022104F159
:104F3000280003F099FE0546E9E7D9F80000D4F807
:104F40009C1020F4E0500843C9F80000E1E7D4F8D1
:104F5000A000B0F5C04F0FD007DC68B1B0F5005F1E
:104F600012D0B0F5804F06D115E0B0F5004F03D058
:104F7000B0F5204F00D00125A5B12E462078C043C2
:104F800010F0080F18D02CE0002104F1080003F005
:104F9000CBFD0546F0E7022104F1280003F064FE92
:104FA0000546E9E7D9F80000D4F8A01020F46040E5
:104FB0000843C9F80000E1E7D4F88400B0F5805F49
:104FC00006D1022104F1280003F04EFE00B10126B3
:104FD000DAF80000D4F8841020F440500843CAF8EE
:104FE00000002078C04310F0100F14D1D4F89800BE
:104FF000B0F5807F06D1022104F1280003F034FED1
:1050000000B10126D9F80000D4F8981020F44070BF
:105010000843C9F800002068C04310F4002F0BD1EA
:10502000D4F8A400B0B1B0F5803F1AD0B0F5003F7D
:1050300000D00125E5B12E462068C04310F4802F32
:1050400020D02DE04C4402580048025854440258E5
:1050500070440258002104F1080003F065FD054684
:10506000E8E7022104F1280003F0FEFD0546E1E730
:10507000D9F80000D4F8A41020F440300843C9F84F
:105080000000D9E7D4F88800B0F5801F0ED0B0F545
:10509000001F10D0B0F5401F00D0012595B12E465D
:1050A0002068C04310F4803F16D01DE0386840F4FB
:1050B00000303860F2E7012104F1280003F0D4FD4C
:1050C0000546EBE7DAF80000D4F8881020F4401029
:1050D0000843CAF80000E3E7206D58B1B0F5803FFF
:1050E0000DD0012595B12E462068C04310F0005F19
:1050F00014D01AE0386840F400303860F2E702213A
:1051000004F1080003F010FD0546EBE76E48016866
:10511000226D21F4803111430160E5E7022104F1A1
:10512000280003F0A1FD00B101262068C04310F45F
:10513000003F0ED1D4F8800048B1B0F5807F0ED08A
:10514000B0F5007F03D0B0F5407F00D001255DB100
:105150002E462068C04310F4801F0FD016E0386838
:1051600040F400303860F2E7DAF80000D4F880103C
:1051700020F440700843CAF80000EAE7D8F80000BD
:10518000616F20F000400843C8F800002068C04369
:1051900010F0805F08D1DBF80000D4F8B81020F4DC
:1051A00080400843CBF800002068C04310F4001F83
:1051B00007D1D8F80000E16E20F080700843C8F8ED
:1051C00000002068C04310F0804F0CD1DBF80000D5
:1051D00020F40040CBF80000DBF80000D4F8BC104D
:1051E0000843CBF800002068C04310F0004F06D100
:1051F00035480168626D21F040511143016020681B
:10520000C04310F4000F08D1DAF80000D4F88C1075
:1052100020F440000843CAF8000020790025C0436C
:1052200000F00100284306D1002104F1080003F03A
:105230007BFC00B106462079C04300F00200284301
:1052400006D1012104F1080003F06EFC00B106460E
:105250002079C04300F00400284306D1022104F164
:10526000080003F061FC00B106462079C04300F05D
:105270000800284306D1002104F1280003F0F4FCC3
:1052800000B106462079C04300F01000284306D143
:10529000012104F1280003F0E7FC00B10646207963
:1052A000C04300F02000284306D1022104F1280069
:1052B00003F0DAFC00B1064616B10120BDE8F88F14
:1052C0000020BDE8F88F00004C4402582DE9F05F43
:1052D00004460D46002C17D0DFF88492D9F8000060
:1052E00000F00F00A84212D2D9F8000020F00F0001
:1052F0002843C9F80000D9F8000000F00F00A842C8
:1053000005D00120BDE8F09F0120BDE8F09F207886
:10531000944E10F0040F0AD02069316801F070013A
:10532000884204D9316821F0700108433060207848
:105330008D4F10F0080F0AD06069396801F07001D4
:10534000884204D9396821F0700108433860207818
:1053500010F0100F0AD0A069396801F4E0618842AA
:1053600004D9396821F4E061084338602078DFF817
:10537000FCB110F0200F0DD0E069DBF8001001F057
:105380007001884206D9DBF8001021F07001084353
:10539000CBF80000207810F0020F0AD0E0683168E6
:1053A00001F00F01884204D9316821F00F01084350
:1053B0003060207810F0010F51D03068A16820F4DF
:1053C00070600843306060686949022808D003288B
:1053D0000DD0012812D0096811F0040F34D011E06B
:1053E000096811F4003F0DD10120BDE8F09F096864
:1053F00011F0007F06D10120BDE8F09F096811F48B
:10540000807F1ED0DFF86CA1DAF8001021F00701D0
:105410000843CAF80000FEF749FB8046DAF80000AE
:10542000616800F03800B0EBC10F18D0FEF73EFB0A
:10543000A0EB080141F28830814208D90320BDE881
:10544000F09F0120BDE8F09F0120BDE8F09FDAF851
:105450000000616800F03800B0EBC10FE6D12078A1
:1054600010F0020F0AD0E068316801F00F018842A5
:1054700004D2316821F00F0108433060D9F80000F0
:1054800000F00F00A8420FD9D9F8000020F00F005B
:105490002843C9F80000D9F8000000F00F00A84226
:1054A00002D00120BDE8F09F207810F0040F0AD050
:1054B0002069316801F07001884204D2316821F01E
:1054C000700108433060207810F0080F0AD060693E
:1054D000396801F07001884204D2396821F0700106
:1054E00008433860207810F0100F0AD0A06939689E
:1054F00001F4E061884204D2396821F4E061084394
:105500003860207810F0200F0DD0E069DBF8001033
:1055100001F07001884206D2DBF8001021F0700122
:105520000843CBF8000000F07BF83168C1F3032298
:1055300011498A5C02F01F02D040326802F00F026B
:10554000895C0E4A01F01F0120FA01F111600C493B
:1055500008600C480068BDE8F05FFEF779BE000007
:1055600000200052184402581C440258204402589B
:105570000044025810440258A4AE00080800002459
:1055800004000024100000244DF804ED00F048F859
:105590000B4A11680B4BC1F30321595C01F01F0149
:1055A00020FA01F11068084A00F00F00185C00F0C2
:1055B0001F0021FA00F01060044A11605DF804FB3E
:1055C00018440258A4AE0008080000240400002477
:1055D0004DF804EDFFF7D8FF05490968054AC1F306
:1055E0000211515C01F01F01C8405DF804FB00008E
:1055F0001C440258A4AE00084DF804EDFFF7C4FFA8
:1056000005490968054AC1F30221515C01F01F01F7
:10561000C8405DF804FB00001C440258A4AE00081A
:105620004DF8044D69480068DFF8A4C1694B10F0DB
:1056300038014ED008294FEA2C1047D0102959D0F4
:10564000182943D16448016801F003010068C0F3E0
:105650000510624A126802F00102614C2468C4F32A
:10566000CC0414FB02F200EE102AB8EE400A002827
:105670007BD0DFED5C0A5C4AB7EE001AA9B39FED60
:105680005B2A012974D0022971D001EE900A1068BA
:10569000F8EE611AC2EE212AC0F3080001EE900A6A
:1056A000F8EE611A40EE201A31EE810A22EE800AED
:1056B0001068C0F34620401C00EE900AF8EE600A25
:1056C00080EE201ABCEEC10A10EE100A5DF8044B01
:1056D0007047186810F0200F08D018685DF8044B68
:1056E000C0F3C1002CFA00F0704707E05DF8044BEE
:1056F000604670473E485DF8044B7047196811F0EA
:10570000200F1CD01968C1F3C1012CFA01F101EE80
:10571000901AF8EE612A01EE900A1068F8EE611A0C
:1057200082EEA12AC0F3080001EE900AF8EE611A99
:1057300040EE201A31EE810A22EE000AB8E701EEAF
:10574000900ADFED2C2A1068F8EE611A82EEA12A89
:10575000C0F3080001EE900AF8EE611A40EE201A3C
:1057600031EE810A22EE000AA2E72BE000E013E00E
:1057700001EE900A1068F8EE611AC2EE212AC0F319
:10578000080001EE900AF8EE611A40EE201A31EEA0
:10579000810A22EE800A8BE701EE900ADFED162ADD
:1057A0001068F8EE611A82EEA12AC0F3080001EE3B
:1057B000900AF8EE611A40EE201A31EE810A22EECC
:1057C000000A75E75DF8044B00207047104402584A
:1057D0000090D00300440258284402582C44025838
:1057E0003444025800000039304402580024744AFE
:1057F00000127A000024744C0024F44A2DE9F05F72
:105800000446002C11D02078DFF8F883FE4F10F00A
:10581000010FFE4D6BD0D8F8000000F03800396859
:10582000102823D0182803D006E00120BDE8F09FFF
:1058300001F00300022819D06068B0F5803F1ED047
:1058400010B3B0F5A02F28D0286820F4803028604D
:10585000286820F480202860606878B3FEF726F975
:105860000646286810F4003F20D040E0286810F475
:10587000003F3CD0606830BB0120BDE8F09F286845
:1058800040F480302860E7E7286820F48030286002
:10589000286820F480202860DEE7286840F4802013
:1058A0002860286840F480302860D5E7FEF7FEF8CD
:1058B000801B642803D90320BDE8F09F04E028681A
:1058C00010F4003FF2D012E0FEF7F0F80646286828
:1058D00010F4003F0BD0FEF7E9F8801B642802D9D2
:1058E0000320BDE8F09F286810F4003FF3D1207832
:1058F00041F2030AC64E10F0020F4BD0D8F8000058
:1059000000F038003968A0B1182802D111F0030F57
:105910000FD0E068002878D0296821F019010843E9
:105920002860FEF7C3F88146286810F0040F41D0C4
:105930004DE0286810F0040F01D0E06868B12868D5
:10594000E16820F0190008432860FEF7AFF88146AF
:10595000286810F0040F03D00FE00120BDE8F09F8D
:10596000FEF7A4F8A0EB0900022802D90320BDE845
:10597000F09F286810F0040FF2D0FEF791F8504520
:1059800010D82069402806D0316821F47C3141EAE2
:105990000030306051E0306820F47C3040F400305A
:1059A00030604AE03068217C20F0FE4040EA01602F
:1059B000306042E0FEF77AF8A0EB0900022802D935
:1059C0000320BDE8F09F286810F0040FF2D0FEF726
:1059D00067F8504511D82069402806D0316821F475
:1059E0007C3141EA0030306027E0306820F47C30C0
:1059F00040F40030306020E007E03068217C20F087
:105A0000FE4040EA0160306017E0286820F00100A5
:105A10002860FEF74BF88146286810F0040F0CD080
:105A2000FEF744F8A0EB0900022802D90320BDE8E4
:105A3000F09F286810F0040FF2D1207810F0100FBA
:105A400045D0D8F8000000F038003968DFF8C4B15C
:105A5000082813D0182803D101F0030001280DD025
:105A6000E069A8B3286840F080002860FEF71EF8BF
:105A70008146286810F4807F2BD037E0286810F426
:105A8000807F05D0E069802802D00120BDE8F09F2A
:105A9000FEF706F8504510D8206A202806D0316855
:105AA00021F0F84141EA8060306056E0306820F033
:105AB000F84040F0804030604FE0DBF8000094F8A0
:105AC000201020F07C5040EA0160CBF8000044E058
:105AD0002CE0FDF7EBFFA0EB0900022802D9032020
